:020000040800F2
:10000000A0130024AD020008B76000080F480008E4
:10001000B5600008990A000871720008000000002D
:1000200000000000000000000000000095680008CB
:100030009B0A00080000000065630008CD68000806
:10004000C7020008C7020008C7020008C70200086C
:10005000C7020008C7020008C7020008C70200085C
:10006000C7020008C7020008C7020008C70200084C
:10007000C7020008C7020008C7020008C70200083C
:10008000C7020008C7020008C7020008C70200082C
:10009000C7020008C7020008C7020008C70200081C
:1000A000C7020008C7020008C7020008C70200080C
:1000B000B56A0008C16A0008CD6A00081D4800083A
:1000C00011480008C7020008C7020008C70200085C
:1000D000C7020008C5700008D1700008DD70000874
:1000E000C7020008C702000800000000E56A000817
:1000F000F16A0008C7020008C7020008C70200082A
:10010000C7020008C7020008D96A0008C702000831
:10011000C7020008B9700008C7020008C70200083B
:10012000C7020008C7020008C7020008C70200088B
:10013000C7020008C7020008C7020008C70200087B
:1001400000000000000000000000000000000000AF
:10015000C7020008C7020008C7020008C70200085B
:10016000C7020008C7020008C7020008C70200084B
:10017000C7020008C7020008C7020008000000000C
:10018000C7020008C7020008C7020008C70200082B
:10019000C7020008C7020008C7020008C70200081B
:1001A000C7020008C7020008C7020008C70200080B
:1001B000C7020008C7020008C7020008C7020008FB
:1001C000C7020008C7020008C7020008C7020008EB
:1001D000C7020008C7020008C7020008C7020008DB
:1001E000C7020008C7020008C7020008C7020008CB
:1001F000C7020008C7020008C7020008C7020008BB
:10020000C7020008C7020008C7020008C7020008AA
:100210008D6A0008C7020008C7020008C70200086C
:10022000C7020008C7020008C7020008000000005B
:10023000C7020008C702000800000000C70200084B
:10024000C7020008C7020008C7020008C70200086A
:10025000C7020008C7020008C7020008C70200085A
:10026000C7020008C7020008C7020008C70200084A
:10027000C7020008C7020008C7020008000000000B
:10028000C7020008C7020008C702000800000000FB
:1002900000000000C7020008DFF80CD000F056FA9A
:1002A00000480047F1920008A01300240648804748
:1002B00006480047FEE7FEE7FEE7FEE7FEE7FEE74B
:1002C000FEE7FEE7FEE7FEE779690008990200080D
:1002D000002800DA4042704740EA01039B0703D040
:1002E00009E008C9121F08C0042AFAD203E011F875
:1002F000013B00F8013B521EF9D27047D2B201E037
:1003000000F8012B491EFBD270470022F6E710B51A
:1003100013460A4604461946FFF7F0FF204610BD73
:1003200030B50B46014600202022012409E021FAC5
:1003300002F59D4205D303FA02F5491B04FA02F5C2
:100340002844151EA2F10102F1DC30BD2DE9F05F59
:100350000546002092469B46884606468146402434
:100360001BE0284641464746224600F010FA534615
:100370005A46C01A914110D311461846224600F041
:10038000F7F92D1A67EB01084F462246012000219C
:1003900000F0EEF917EB00094E41201EA4F1010414
:1003A000DFDC484631462A464346BDE8F09F2DE94A
:1003B000FE4F804681EA0300C00F0C46009021F0FA
:1003C000004123F00045B8EB0200A94105D24046A8
:1003D000214690461C460B46024623F0004010433F
:1003E00047D0270DC7F30A00C3F30A510290401A01
:1003F000019040286BDAC3F3130040F4801B00988F
:10040000924620B10023D2EB030A63EB0B0B019859
:100410005946C0F14002504600F0AAF906460D4682
:1004200050465946019A00F0C2F910EB08006141AC
:10043000002487EA115284EAE7731A4340D0009AF5
:1004400062B3019A012A4FEA075215DC001B61EBE7
:1004500002014FF0004202EA0752CDE90042001CBF
:1004600041F5801132462B4600F0C2F903B0BDE8D9
:10047000F08F40462146F9E7001B61EB0201001CAA
:1004800041F5801300185B412018A2F5001747EBD7
:10049000030140EAD570B6196D4111E06D084FEACD
:1004A000360645EAC0754FEA0752001B61EB0201B0
:1004B000001C41F5801149084FEA300000195141F4
:1004C00032462B4603B0BDE8F04F00F082B90098E9
:1004D000012240000023D0EB020263EBE07300989E
:1004E00021464FEAE074B8EB000061EB0401E9E754
:1004F00083F000435BE781F0004158E72DE9FE4FB0
:1005000081EA030404F0004421F0004100944FF01C
:10051000000B23F0004350EA01045ED052EA0304CA
:100520005BD0C3F30A54C1F30A552C44A4F2F3344C
:100530000194A0FB0254C1F3130141F48011C3F3F1
:10054000130343F4801301FB024400FB034E840AAF
:10055000970A44EA815447EA8357A4FB0768029547
:100560008D0A05FB07854FEA932C04FB0C542705E5
:10057000029D4FEA065847EA1637B5EB08056EEBC1
:10058000070C870E920E47EA811742EA8312A7FBF7
:100590000201B6EB0B0164EB00042B0D43EA0C33B4
:1005A0005E1844EB1C50DA465146E7FB0201C5F3E6
:1005B00013044FEA0B3343EA14534FEA0432019C0D
:1005C00043EA0603A4F10C040294009CCDE900B4B4
:1005D00000F00EF903B0BDE8F08F00200146F9E706
:1005E0002DE9F04D81EA030404F0004B21F00045B1
:1005F00014464FF0000A23F0004150EA050220D0D3
:1006000054EA01021DD0C5F30A570246C5F313038D
:10061000C1F31300C1F30A5640F4801543F480136C
:10062000A7EB0608101BD64608F2FD3873EB050051
:1006300002D308F1010801E092185B41B8F1000F04
:1006400003DA00200146BDE8F08D00204FF4801150
:10065000064684460EE0171B73EB050705D3121BF5
:1006600063EB050306434CEA010C49084FEA3000EE
:1006700092185B4150EA0107EDD152EA030012D013
:1006800082EA040083EA0501084305D0101BAB4150
:1006900006D20122002306E000224FF0004302E0D0
:1006A0006FF0010253101AEB06004CEB085110EBEF
:1006B0000A0041EB0B01BDE8F04D00F08AB870B5BF
:1006C00021F0004303430CD0C1F30A550024D5EBBD
:1006D000040564EB0403D617AD1AB34102DB002016
:1006E000014670BD201841EB025170BDC1F30A52A2
:1006F000C1F3130140F2FF3341F480119A4202DA50
:1007000000200146704740F233439A42A2F233423E
:1007100002DC524200F03BB800F02AB830B5041EAB
:1007200071F1000404DB4FF00044404264EB01012E
:10073000141E73F1000405DB1C464FF000435242C7
:1007400063EB0403994208BF904230BD064C074D4D
:1007500006E0E06840F0010394E807009847103491
:10076000AC42F6D3FFF79CFD20A0000840A0000893
:10077000202A04DB203A00FA02F100207047914061
:10078000C2F1200320FA03F3194390407047202A56
:1007900004DB203A21FA02F00021704721FA02F32B
:1007A000D040C2F120029140084319467047202AE8
:1007B00006DBCB17203A41FA02F043EAE07306E089
:1007C00041FA02F3D040C2F1200291400843194699
:1007D000704710B5141E73F1000408DA401C41F193
:1007E000000192185B411A4301D120F0010010BDB5
:1007F0002DE9F04D92469B4611B1B1FA81F202E02B
:10080000B0FA80F220329046FFF7B2FF04460F465E
:1008100040EA0A0041EA0B0153465A46084313D006
:10082000114653EA010019D0C8F140025046FFF7C3
:10083000AEFF05460E46504659464246FFF798FF22
:10084000084305D0012004E020463946BDE8F08D7C
:100850000020054346EAE0762C4337430A986305B7
:10086000E40AA0EB08000022FD0A44EA47540A30DB
:1008700002D500200146E9E7010510196941DDE9CB
:10088000084500196941BDE8F04DA2E770B58C1824
:1008900010F8015B15F0070301D110F8013B2A1194
:1008A00006D110F8012B03E010F8016B01F8016B81
:1008B0005B1EF9D12B0705D40023521E0DD401F87D
:1008C000013BFAE710F8013BCB1A921C03E013F846
:1008D000015B01F8015B521EF9D5A142D8D300207B
:1008E00070BD000070B53A4905460068884202D0E4
:1008F000384A904202D1D1F8080302E03648D0F8D5
:10090000080310F4403F11D002F09EFA04466868D4
:10091000B0F5803F06D0B0F5003F03D0B0F5403FC2
:1009200026D101E0000C17E0A40821E04FF40020DC
:1009300001F0BCFB044668688103890B18D181145F
:100940000C2915D2DFE801F0140606060606060B90
:100950000D0F1113800C4000B4FBF0F408E02409E3
:1009600006E0640904E0A40902E0E40900E0240AC6
:1009700000F032FF41F20301884208D81748844250
:100980002868816813D821F48071816070BD144992
:100990006008884204D82868816821F44071F4E72F
:1009A0001049884206D82868816821F4407141F4D2
:1009B0008071EAE70C4988422868816804D821F4EC
:1009C000407141F40071E0E741F44071DDE700005F
:1009D000002002400021024000600258002D310139
:1009E000105E5F0020BCBE0040787D0100220248FE
:1009F000102100F0ECBE0000000002580122024865
:100A0000102100F0E4BE000000000258002310B5E1
:100A10000DE0C469C4F3C014002CFAD011F8014BE6
:100A20008462C469C4F38014002CFAD05B1C934226
:100A3000EFD310BDC269C2F3C012002AFAD081629E
:100A4000C169C1F380110029FAD070470821016201
:100A500050E8001F41F0200140E80012002AF7D1C1
:100A6000704700000022491E13E000BF00EB820324
:100A700093EC020AB4EEE00AF1EE10FA08DD00EBA6
:100A8000820090EC020A80ED010AC0ED000A704776
:100A9000521C8A42EADB7047FEE7704770B5194C7A
:100AA00001260025322000F05DFD04F0C7F904F0B6
:100AB000E1F904F0E5F9FFF7A1FF642000F052FD31
:100AC000FFF794FF267004F0F3F904F0E9F904F05D
:100AD000DDF96D1C022DE5DB0B49A08D80B20860AD
:100AE000091FA08880B20860091F208980B20860B1
:100AF000091FA08A80B208600449208C80B2086077
:100B000070BD00000C000024400C00404008004074
:100B100072B6FEE72DE9F0470F4690F850109AB0F4
:100B2000044601294FF0000922D00026DFF8F480A6
:100B3000012084F85000159616962168414519D178
:100B4000394D0095284604F0C3F98246206804F028
:100B5000BFF950EA0A0115D0616D4FF0010941F06B
:100B600020006065484684F850601AB0BDE8F08700
:100B70000220FAE7606D84F8506040F02000606564
:100B80000120F2E720684146884201D0A84201D105
:100B9000264800E0264840F61F72D7F800C0254BD3
:100BA000BCF1000F23D0D0F808C0D7F804802CF493
:100BB000404C4CEA080CC0F808C0D4F800C08C4582
:100BC00001D0AC4507D18968AB6801F0010103F0A1
:100BD0000103194302E0996801F001010029C1D124
:100BE000BD683968836829439343194317E08768D0
:100BF00027F44047876027688F4201D0AF4207D172
:100C00008968AB6801F0010103F00103194302E0B8
:100C1000996801F001010029A4D1816891438160A4
:100C2000A0E7000000200240002102400023024013
:100C300000630258006002582DE9F84F4FF0000B96
:100C40000446E54E0D46CDF800B05F4690F85000E2
:100C5000DFF888A3012808D04FF0010984F85090EC
:100C6000206804F031F918B168E10220BDE8F88F7E
:100C700021682868CA69030328D090FAA0F0B0FA66
:100C800080F000BF00F01F0309FA03F00243CA61BD
:100C9000D5E900124FF00C0C20681F23C1F38461CA
:100CA0000CEA921C02F01F02604493409140026BD8
:100CB0009A430A430263206804F006F980462068DC
:100CC00004F0FEF858EA000003D07FE0C0F384602F
:100CD000D8E72068AA68296804F0FEF8C0490968C6
:100CE000B9EB117F06D121686869C968C1F3820137
:100CF000490008E02068C168C906C1686869F5D57F
:100D000001F0100149088840296904292ED0226881
:100D10002B6802EB810103F0F8420B6E024303F0F3
:100D2000004010430866697E22682869012917D0AF
:100D30005FF0000102EB8000026E22F000420A43E5
:100D40000266287E21682A6901280CD000200B69E0
:100D500002F01F02904023F4F04202430A6135E0A2
:100D60004FF00041E6E74FF40060F0E72068297893
:100D7000026E02F0F842B2EB816F03D1016E21F0F6
:100D80000041016620682978426E02F0F842B2EB19
:100D9000816F03D1416E21F00041416620682978BE
:100DA000826E02F0F842B2EB816F03D1816E21F0C6
:100DB0000041816620682978C26E02F0F842B2EBE9
:100DC000816F03D1C16E21F00041C1662068816846
:100DD00011F0010F75D150F8C02F95F80CC0814B60
:100DE00029680CF0180C23FA0CF3C1F313080B401C
:100DF00022EA08021A4302607B48E968814276D100
:100E0000286801031AD090FAA0F1B1FA81F1491CC7
:100E100001F01F0109294FEA003130D8002910D014
:100E200090FAA0F1B1FA81F101F1010101F01F0185
:100E300009FA01F208D1C0F3846109E0C0F38461CA
:100E4000E5E7C0F38461EFE790FAA0F1B1FA81F130
:100E500001F1010101F01F0142EA816102D1C0F3F9
:100E6000846003E090FAA0F0B0FA80F000F1010095
:100E700000F01F0000EB400041EA005133E0002980
:100E80000ED090FAA0F1B1FA81F100BF01F1010199
:100E900001F01F0109FA01F205D1C0F3846106E0F7
:100EA000C0F38461F2E790FAA0F1B1FA81F101F1A7
:100EB000010101F01F0142EA816103D1C0F38460A6
:100EC00004E040E090FAA0F0B0FA80F0474A00F168
:100ED000010000F01F0000EB400002EB005041EA6F
:100EE000000141F00071AA68206803F0F5FFD5F811
:100EF00000C0BCF1000F26DA3D4B20683D49DFF809
:100F0000F890984201D0B04201D10A4600E04A462A
:100F10009268984202F0E07201D0B04209D19D6817
:100F2000D6F8088005F0010508F0010845EA080533
:100F300003E0DAF8085005F0010545B1606D0127BE
:100F400040F020006065384684F850B08EE62B4DA6
:100F5000AC451CD115021AD45045F4D1984202D0A8
:100F6000B04200D049468B6842F4000023F0E072A2
:100F700002438A60234922480968B1FBF0F040002F
:100F8000801C00E0401E00900028FBD1DBE71E4DD6
:100F9000AC450CD1D5010AD45045D4D1984202D0E9
:100FA000B04200D049468B6842F080700EE0174D89
:100FB000AC45C8D15502C6D45045C4D1984202D0E0
:100FC000B04200D049468B6842F4800023F0E072C2
:100FD00002438A60B7E70000002102400060025827
:100FE0000010005CFFFF0F000000FF47000020FE24
:100FF000002002400023024000630258000084CB1E
:10100000400D030044010024000052C70000B8CF87
:10101000F8B54FF0000604003546009602D0606D2A
:1010200010B107E00120F8BD204600F005F9A665E3
:1010300084F8506020688168C1F3407119B18168FB
:10104000704A1140816020688168C1F3007181B9E4
:1010500081686D4A114041F0805181606C496B4854
:101060000968B1FBF0F0401C00E0401E0090002831
:10107000FBD120688168C1F3007141B9616D012520
:1010800041F010016165A16D41F00101A16503F01E
:101090001BFF616D01F010010143606D03D001255C
:1010A00040F0100092E020F4807040F00200606593
:1010B0002068816811F0010F1FD1564A564B9042AB
:1010C00001D0984207D191689E6801F0010106F0B5
:1010D0000106314303E05149896801F0010161B91A
:1010E000904201D0984201D14D4800E04D488268BD
:1010F000616822F47C120A43826000F06DFB41F2C9
:101100000301884202D9A06810280CD0617D227F9B
:10111000A368206B490341EA024118430843217F39
:1011200001290CD010E0607D227F216B400340EA52
:10113000024241F01000104340F00C00EFE7218C18
:10114000394A02EB41410843616A29B1A26A01F4BC
:101150007871014342EA01002168344BCA681A40A1
:101160000243CA60206803F0AFFE0646206803F021
:10117000A7FE30431DD1206844F20303267DE16AB7
:10118000C26841EA86319A430A43C26094F8380043
:1011900001281ED02068016921F001010161206849
:1011A000626B016921F07041114301612046FFF734
:1011B00099FBE068012820681CD0016B21F00F0129
:1011C0000163606D20F0020040F001006065284678
:1011D000F8BD2068A38F164FD4E9101C154E07EBFD
:1011E0000347A26C036941EA0C013A4333401143BF
:1011F0001943D3E7A269016B521E21F00F0111437D
:10120000DEE70000C0FFFF5FC0FFFF7F400D03006F
:1012100044010024002002400021024000600258E6
:1012200000230240006302580000FEFF03C0F0FFED
:101230000100FFFF1EF800FC10B586B00446142123
:101240006846FFF762F8204A2168204891421CD185
:101250001E4908390A6842F020020A60096801F054
:1012600020010591016841F004010160006800213E
:1012700000F00400059003200090CDE9010114481E
:10128000694600F081F906B010BD124A9142FAD1C8
:10129000016841F080710160016801F08071059181
:1012A000016841F004010160006800F0040005904D
:1012B0004FF08060014602F01DF94FF000600146DA
:1012C00002F018F9DFE7000000200240E044025875
:1012D00000080258006002582DE9F05F28B190F82C
:1012E0003510022904D0802141650120BDE8F09F1E
:1012F000904C904B0168183C18338E4ADFF83C92B2
:10130000A1428D4CDFF838E28E4FDFF83CB2DFF8B7
:101310003CA28F4D8F4E31D091422FD099422DD08B
:10132000A1422BD0494529D0714527D0B94225D0BB
:10133000DFF810C20CF1180C61451FD0DFF808C2AD
:10134000ACF1600C614519D0DFF8FCC1ACF1480C80
:10135000614513D0DFF8F0C1ACF1300C61450DD020
:10136000DFF8E4C1ACF1180C614507D0594505D050
:10137000514503D0A94201D0B1422CD1DFF8B4C10C
:101380004FF0040880F83580ACF1180C61451DD091
:1013900091421BD0994219D0A14217D0494515D08E
:1013A000714513D0B94211D06648183081420DD032
:1013B00065486038814209D063484838814205D089
:1013C00061483038814201D05F481838086820F001
:1013D00001000860ABE0D1F800C02CF00E08DFF887
:1013E00054C1C1F80080ACF1180C0168614527D0E8
:1013F000914225D0994223D0A14221D049451FD006
:1014000071451DD0B9421BD0DFF838C10CF1180C62
:10141000614515D0DFF830C1ACF1600C61450FD0EB
:10142000DFF824C1ACF1480C614509D0DFF818C1E0
:10143000ACF1300C614503D0DFF80CC1ACF1180CF5
:10144000D1F800C02CF0010CC1F800C0DFF8E48036
:101450004FF0010C0168A8F11808414546D09142AF
:1014600044D0994242D0A14240D049453ED0714536
:101470003CD0B9423AD0334A1832914236D0324A3F
:10148000603A914232D0304A483A91422ED02E4AA8
:10149000303A91422AD02C4A183A914226D05945E6
:1014A00024D0514522D0A94220D0B1421ED02A4A90
:1014B00091421BD0284A1432914217D0264A283232
:1014C000914213D0244A3C3291420FD0224A5032EA
:1014D00091420BD0204A6432914207D01E4A7832A2
:1014E000914203D01C4A8C32914218D1016E0A6895
:1014F00022F480720A6090F85C20816D02F01F0275
:101500000CFA02F24A60D0E919124A60C16E31B198
:101510000A6822F480720A60D0E91C124A60002234
:10152000016D80F835C080F8342001B18847002073
:10153000DCE6000028000240580002407000024033
:1015400088000240A000024070040240880402406B
:10155000A0040240B80402400854025890F8350034
:101560007047000070B5044600F03CF90546601C69
:1015700002D004480078044400F034F9401BA04233
:10158000FAD370BD380100242DE9F84F03247D4DB6
:1015900000234FF001094FF0B04B4FF00F0AE9E084
:1015A00009FA03F73A4076D00E7906F00306012EC9
:1015B00001D0022E18D1D0F808C04FEA430ECE68F1
:1015C00004FA0EF82CEA080C06FA0EF646EA0C06A7
:1015D0008660D0F804C00E792CEA070CC6F300161A
:1015E0009E4046EA0C0646600E79F643B6070BD0DD
:1015F000C6684FEA43088F6804FA08FC26EA0C061E
:1016000007FA08F73743C7600E7906F00306022E83
:1016100012D1DE080F694FEA437C00EB8606B6461E
:10162000366A4FEADC6C0AFA0CF807FA0CF726EA7D
:1016300008063743CEF820700F7906684FEA430852
:1016400007F0030704FA08FC07FA08F726EA0C0675
:10165000374307604E6816F4403F1CD04A4E376847
:1016600047F00207376036689F0706F002060096CB
:1016700023F0030606F1B046B6463F0FD6F80864DD
:10168000DFF808810AFA07FC404526EA0C0603D178
:101690004FF0000C41E06CE0DFF8F4C0604502D18F
:1016A0004FF0010C39E0DFF8ECC0604502D14FF09B
:1016B000020C32E0DFF8E0C0604502D14FF0030CCD
:1016C0002BE0DFF8D8C0604502D14FF0040C24E0D5
:1016D000DFF8CCC0604502D14FF0050C1DE0DFF80B
:1016E000C4C0604502D14FF0060C16E0DFF8B8C068
:1016F000604502D14FF0070C0FE0DFF8B0C0604545
:1017000002D14FF0080C08E0DFF8A4C0604502D118
:101710004FF0090C01E04FF00A0C0CFA07FC4CEA00
:10172000060CCEF808C44F68DBF80060FF0226EA1A
:10173000020600D516435F46CBF80060D1F804C01E
:10174000DBF804605FEA8C2C26EA020600D516431B
:101750007E606E684F6826EA0206BF0300D5164316
:101760006E602E684F6826EA0206FF0300D5164316
:101770002E605B1C0A6832FA03F67FF411AFBDE8F5
:10178000F88F000080000058F4440258000002580E
:101790000004025800080258000C025800100258B9
:1017A0000014025800180258001C02580020025869
:1017B000002402580069084000D0012070474269A7
:1017C00021EA02030A4043EA0241816170470AB1FB
:1017D000816170470904FBE701480068000C70470D
:1017E0000010005C01488068704700003801002448
:1017F00030B590F84120202A24D190F84020012AC9
:1018000020D0012380F84030242280F8412020237A
:1018100000240268156825F0010515600268156846
:1018200025F480551560026815680D431560016840
:101830000A6842F001020A6080F8413080F84040B6
:10184000002030BD022030BD30B590F84120202A64
:1018500022D190F84020012A1ED0012380F8403088
:10186000242280F84120202400250268136823F0F8
:10187000010313600268136823F4706343EA0121D3
:10188000116001680A6842F001020A6080F8414074
:1018900080F84050002030BD022030BD70477047B6
:1018A00030B403689A691968D243D40509D4CC438B
:1018B000240606D4456C4FF4807445F00105456458
:1018C000DC6153050AD4CB431B0607D4446C4FF4A8
:1018D000806344F0080444640468E36192050AD418
:1018E000C943090607D4426C4FF4007142F002026A
:1018F00042640268D161416C11F00B0F02D030BC20
:1019000003F028B830BC70470268436B91691268D5
:10191000002B00D0184770477047000070B50400D6
:1019200004D094F84100002510B106E0012070BDFC
:10193000204684F8405000F04FF8242084F84100FD
:101940002068016821F001010160D4E9001020F055
:10195000706008612068816821F400418160E0685E
:1019600021680128A06806D040F404408860E0683F
:10197000022803D006E040F40040F7E721684FF466
:101980000060486020212068114A43681343436087
:101990002068C26822F40042C26054F8106B0DCC7B
:1019A000104340EA0320F06054F81C3CD4E90002E4
:1019B0001043186054F81C0D026842F001020260E6
:1019C000656484F84110256384F84250002070BD9E
:1019D000008000027047000010B5B6B00446142124
:1019E0002FA8FEF792FCBC216846FEF78EFC20492A
:1019F0002068884239D10820009000216846209153
:101A000000F08AFC08B1FFF783F81A48016841F03A
:101A10000201016000680DF1BC0C122100F002000F
:101A20003490C0200122032304248CE81F001248B4
:101A30002FA9FFF7A9FD0F480830016841F40011F4
:101A4000016000680022114600F4001034901F204D
:101A500000F0D6F81F2000F0C5F800222020114623
:101A600000F0CEF8202000F0BDF836B010BD000028
:101A700000540040E0440258000402587047704788
:101A8000024881680278114481607047380100245F
:101A9000032010B500F0D4F801F0F8F90F4A10490E
:101AA00014681368C4F3032203F00F038A5CC95C53
:101AB00002F01F0201F01F01D0400A4A20FA01F192
:101AC0001160094908600F2000F010F808B10120EA
:101AD00010BD00F079F8002010BD00001844025835
:101AE000749D0008480100244401002470B50D4D88
:101AF00004462878A0B14FF47A71B1FBF0F00A499E
:101B00000968B1FBF0F001F0FDFC48B9102C07D2D8
:101B100000222146501E00F073F800206C6070BD5A
:101B2000012070BD3801002444010024F0B5154C9B
:101B30004378211D0A1D23600378F3B143680B60CD
:101B4000057BC67A817A437B2D07847B45EA06654F
:101B5000C77B90F809C0067A90F800E045EAC140DA
:101B600040EA834040EA444040EA074040EA0C2013
:101B700040EA460040EA0E0001E0002008601060E4
:101B8000F0BD000098ED00E0BFF35F8F0448002136
:101B90000368034A23F48033036070321160704796
:101BA00024ED00E0074A40F0010006497032106061
:101BB000086840F480300860BFF34F8FBFF36F8F29
:101BC0007047000024ED00E0054808B5016841F0C9
:101BD00002010160006800F00200009008BD0000F2
:101BE000F4440258002809DB410900F01F02890073
:101BF000012001F1E0219040C1F800017047000090
:101C00000E4BF0B41B680D46C3F30223C3F1070665
:101C1000042E00D90426191D072901D2002300E053
:101C2000DB1E012404FA06F19C40491E2940641E73
:101C3000994014402143F0BC05F06BBB0CED00E073
:101C4000064900F0070210B54FF6FF040868044B80
:101C5000204040EA02201843086010BD0CED00E06F
:101C60000000FA05134970B50A68D243520705D53A
:101C7000096801F00701814213D118E00A6822F0D7
:101C8000070202430A60FFF7ADFD0A4D4FF47A7672
:101C90000446083D07E000BFFFF7A4FD001BB0426B
:101CA00001D9012070BD2868C0438004F4D400200D
:101CB00070BD00000C48025810B501F0C5F8054988
:101CC0000968054AC1F30211515C01F01F01C840C7
:101CD00010BD000020440258749D00084A4930B5E8
:101CE000494C0B1D0A680C3409681D68246802F011
:101CF000030305F00102C1F30511C4F3CC0400296C
:101D000014FB02F200EE102AF8EE400A76D0414AA7
:101D10009FED3E1ADFED3E1AB7EE000A23B1012B0C
:101D20005AD0022B18D15CE0374C283C23689B0624
:101D300012D5394B246801EE901A1168C4F3C1041E
:101D4000F8EE612AE34001EE903AC1F30801F8EEA3
:101D5000611A81EEA22A07E002EE101A1168F8EE6D
:101D6000422A81EEA22A45E001EE901A1168F8EEAF
:101D7000611A40EE811A71EE800A62EE200AC1F308
:101D8000462101EE101AB8EE411A31EE001AC0EEEB
:101D9000811ABCEEE11A80ED001A1168C1F3064108
:101DA00001EE101AB8EE411A31EE001AC0EE811A97
:101DB000BCEEE11A80ED011A1168C1F3066101EE73
:101DC000101AB8EE411A31EE000A80EE801ABCEE0D
:101DD000C10A80ED020A30BD01EE901ADFED0F2A34
:101DE00003E001EE901ADFED0E2A1168F8EE611A99
:101DF00082EEA12AC1F30801B6E7FFE700210160E6
:101E00004160816030BD0000284402580000003964
:101E10000024744C304402580090D0030024744ACB
:101E2000001B374B494930B5484C0B1D0A68143428
:101E300009681D68246802F00303C5F30012C1F3AA
:101E40000531C4F3CC04002914FB02F200EE102A81
:101E5000F8EE400A75D03F4A9FED3D1AB7EE000AF2
:101E60006BB1DFED3D1A012B01D0022B64D002EEE5
:101E7000101A1168F8EE422A81EEA22A21E0334CB2
:101E8000283C23689B0612D5344B246801EE901A37
:101E90001168C4F3C104F8EE612AE34001EE903A00
:101EA000C1F30801F8EE611A81EEA22A0BE001EEFF
:101EB000901ADFED2B2A00BFF8EE611A116882EE4E
:101EC000A12AC1F3080101EE901A1168F8EE611A17
:101ED00040EE811A71EE800A62EE200AC1F34621BB
:101EE00001EE101AB8EE411A31EE001AC0EE811A56
:101EF000BCEEE11A80ED001A1168C1F3064101EE53
:101F0000101AB8EE411A31EE001AC0EE811ABCEE7A
:101F1000E11A80ED011A1168C1F3066101EE101A91
:101F2000B8EE411A31EE000A80EE801ABCEEC10A0A
:101F300080ED020A30BD04E001EE901ADFED092ABF
:101F4000BAE70021016041608160F3E7284402584C
:101F500000000039384402580024744A0090D0032D
:101F60000024744C001B374B494930B5484C0B1DBD
:101F70000A681C3409681D68246802F00303C5F36D
:101F80000022C1F30551C4F3CC04002914FB02F272
:101F900000EE102AF8EE400A75D03F4A9FED3D1A38
:101FA000B7EE000A6BB1DFED3D1A012B01D0022B19
:101FB00064D002EE101A1168F8EE422A81EEA22ACD
:101FC00021E0334C283C23689B0612D5344B24680F
:101FD00001EE901A1168C4F3C104F8EE612AE340DF
:101FE00001EE903AC1F30801F8EE611A81EEA22ADF
:101FF0000BE001EE901ADFED2B2A00BFF8EE611A1C
:10200000116882EEA12AC1F3080101EE901A11684D
:10201000F8EE611A40EE811A71EE800A62EE200A33
:10202000C1F3462101EE101AB8EE411A31EE001A42
:10203000C0EE811ABCEEE11A80ED001A1168C1F3FE
:10204000064101EE101AB8EE411A31EE001AC0EE48
:10205000811ABCEEE11A80ED011A1168C1F3066124
:1020600001EE101AB8EE411A31EE000A80EE801A25
:10207000BCEEC10A80ED020A30BD04E001EE901A08
:10208000DFED092ABAE70021016041608160F3E7D2
:102090002844025800000039404402580024744A81
:1020A0000090D0030024744C001B374B2DE9F04FF7
:1020B000944A4FF48079DFF848824845924B89B0C2
:1020C000924EA8F1040592494FF080574FEA22142E
:1020D0004FF0005C2ED1D8F8000000F00700052872
:1020E00024D2DFE800F09BB58425AA0003A8FFF7FF
:1020F000F5FD049809B0BDE8F08F6846FFF792FE41
:102100000098F7E706A8FFF72FFF0698F2E70868A0
:10211000C0F3C10022FA00F0ECE70A68D2057CD5D2
:10212000B8427AD12046E5E71846E3E70020E1E728
:102130003046DFE7B0F5007F1AD0DFF8D891B0F570
:10214000806F26D0B0F5006F37D04FF4805A5045DD
:102150004FF4804B4FD1D8F8000000F4E040B0F5C8
:10216000005F44D03DDC002858D05045DED16FE000
:10217000D8F8000000F4E070802838D004DC002893
:102180004CD04028D2D163E0C028D1D04845CDD131
:1021900053E0D9F8000000F46000B0F5800F26D0BD
:1021A00004DCD8B3B0F5001FC0D151E0B0F5C00FCA
:1021B000BED0B0F5000FB9D13FE0D9F8000000F073
:1021C000E060B0F1007F12D004DC38B3B0F1807F62
:1021D000ACD13DE0B0F1407FAAD0B0F1806FA5D185
:1021E0002BE0B0F5405FA3D058459FD125E00868AB
:1021F00080009BD586E7B0F5002F4FF4803612D0D3
:10220000B04237D1286810F4803075D0B0428DD1FB
:10221000086800018AD5684601E025E06CE0FFF718
:1022200001FE029866E7D9F8000010F440300FD0A4
:10223000B04211D0B0F5003F98D128680D6800F089
:1022400040506D077FF569AF00287FF466AF5EE709
:1022500008680001CDD550E708688000C9D506A8F8
:10226000FFF782FE089845E709688903C1D56045F4
:1022700088D159E758452BD1D9F8000000F0E0404B
:10228000B0F1405F1CD00CDC90B1B8422CD060455E
:102290008AD108688000ACD506A8FFF765FE0798CC
:1022A00028E7B0F1804F0FD0B0F1A04F90D11FE0E0
:1022B000FFF702FD1EE76846FFF7B4FD019819E736
:1022C0000868400795D522E70868C00591D529E739
:1022D000B0F5004F89D1D8F8000010F0405007D079
:1022E000B84209D0604592D108680001E3D41DE7E7
:1022F00008688003FBD517E708688001F7D5F5E685
:10230000504402580090D003001BB7000080BB006F
:1023100000440258584402582DE9FC5F044650F826
:10232000241B002500902E460801FE4FDFF8F8839D
:102330001DD5606E50B1B0F5801F0CD0B0F5001FF8
:102340000ED0B0F5401F1DD001250FE0386840F4D5
:102350000030386016E00221201D04F0E1F803E0AF
:102360000098022104F06CF905000BD02E4620885D
:10237000C00523D5606D05281ED2DFE800F00C11E2
:10238000161B1B00626ED8F8001021F44011114397
:10239000C8F80010EBE7386840F40030386009E016
:1023A0000021201D04F0BCF803E00098002104F097
:1023B00047F905466DB100E001252E4620888005CD
:1023C00028D5A06D80281ED00CDC90B140280ED1FD
:1023D00014E0626DD8F8001021F007011143C8F82D
:1023E0000010EBE7C02813D0B0F5807F10D0012596
:1023F0000FE0386840F40030386009E00021201D0B
:1024000004F08EF803E00098002104F019F9054665
:1024100095B12E462088DFF81093400509F1080990
:102420002CD5D4F8A400B0F5800F20D00DDCA0B1DD
:10243000B0F5001F0FD115E0A26DD8F8001021F4FF
:10244000E0711143C8F80010E4E7B0F5C00F13D0F5
:10245000B0F5000F10D001250FE0386840F40030CF
:10246000386009E00021201D04F05AF803E00098CC
:10247000002104F0E5F8054675B12E4620880005D8
:102480002DD5D4F8A800B0F1007F21D00EDCA8B182
:10249000B0F1807F10D116E0D4F8A420D9F8001054
:1024A00021F460011143C9F80010E7E7B0F1407F63
:1024B00013D0B0F1806F10D001250FE0386840F4E0
:1024C0000030386009E00021201D04F029F803E005
:1024D0000098002104F0B4F805466DB12E4620683E
:1024E00080011FD5A06CD8B110280FD0202812D0A1
:1024F000302815D0012514E0D4F8A820D9F8001010
:1025000021F0E0611143C9F80010E8E7386840F4B1
:102510000030386004E00221201D04F001F8054677
:102520006DB12E462088C0042BD5E06DB0F5005F5C
:1025300020D00DDCA0B1B0F5805F0FD115E07A4856
:10254000A26C001F016821F0300111430160E9E72E
:10255000B0F5405F13D0B0F5804F10D001250FE0EB
:10256000386840F40030386009E00021201D03F095
:10257000D7FF03E00098002104F062F8054685B11A
:102580002E462088800429D5206EB0F5403F23D008
:1025900010DC08B3B0F5803F14D0B0F5003F0FD188
:1025A00015E0E26DD8F8001021F4E0411143C8F8BD
:1025B0000010E6E7B0F5802F0ED0B0F5A02F0BD0BD
:1025C00001250AE00121201D03F0AAFF03E0009885
:1025D000012104F035F805468DB12E4620884004CF
:1025E0002AD5D4F8AC00B0F1405F23D010DC08B39A
:1025F000B0F1805F14D0B0F1005F0FD115E0226E12
:10260000D8F8001021F4E0211143C8F80010E5E7E4
:10261000B0F1804F0ED0B0F1A04F0BD001250AE0F1
:102620000121201D03F07CFF03E00098012104F04C
:1026300007F805466DB12E46208800041FD5E06ED0
:10264000D8B1B0F1805F0ED0B0F1005F10D001259D
:1026500014E0D4F8AC20D9F8001021F0E041114387
:10266000C9F80010E8E7386840F40030386004E04A
:102670000121201D03F054FF05466DB12E46206850
:10268000C0011ED5606CD0B101280ED0022811D037
:10269000032814D0012513E0E26ED8F8001021F0D1
:1026A00040511143C8F80010E9E7386840F40030A1
:1026B000386004E00221201D03F032FF054685B199
:1026C0002E462068DFF85CB04002ABF11C0B57D5FA
:1026D0001648016841F480710160FFF783F8824673
:1026E0000EE01148626C001F016821F003011143E4
:1026F0000160E6E7FFF776F8A0EB0A0064283DD812
:102700000A480068C005F5D57DBBDFF81CA0B4F809
:10271000B0200AF1200ADAF8001002F4407001F447
:10272000407105E02C4402585044025800480258B9
:10273000814211D0DAF80010DAF8002021F440715B
:1027400042F48032CAF80020DAF8002022F4803205
:10275000CAF80020CAF80010D4F8B000B0F5807FA5
:1027600021D1FFF73FF8019019E008E0FFF73AF8B0
:102770000199411A41F28830814210D903252E4631
:102780002078DFF844A4C0073DD0A06F182838D0C7
:1027900026DC80B3082829D0102825D12CE0DAF8CF
:1027A00000008007E2D5D4F8B010C1F3012003285F
:1027B00058460DD0016821F47C510160B4F8B02076
:1027C000DAF80010C2F30B021143CAF80010D7E781
:1027D000FE4A036802EA111223F47C511143ECE72C
:1027E00020280ED028280CD001250BE00121201D27
:1027F00003F096FE04E004E00098012103F020FFBE
:1028000005465DB12E46207880071ED5606F0628EC
:1028100019D2DFE800F0160C11161616A26FDAF8BE
:10282000001021F038011143CAF80010EBE7012134
:10283000201D03F075FE03E00098012103F000FF66
:10284000054675B100E001252E46207840071FD5CA
:10285000D4F89000062819D2DFE800F0160C111603
:102860001616626FDAF8001021F007011143CAF85A
:102870000010EAE70121201D03F052FE03E000985A
:10288000012103F0DDFE05469DB100E001252E4645
:10289000207880062BD5D4F88C00B0F1405F24D08E
:1028A00011DC10B3B0F1805F15D0B0F1005F10D132
:1028B00016E0D4F89020D9F8001021F00701114358
:1028C000C9F80010E4E7B0F1804F0ED0B0F1A04F8E
:1028D0000BD001250AE00021201D03F021FE03E0BA
:1028E0000098022103F0ACFE05468DB12E462078FB
:1028F00040062BD5D4F89800B0F5406F24D011DCF9
:1029000010B3B0F5806F15D0B0F5006F10D116E0A0
:10291000D4F88C20DAF8001021F0E0411143CAF815
:102920000010E4E7B0F5805F0ED0B0F5A05F0BD0EB
:1029300001250AE00021201D03F0F2FD03E00098CC
:10294000022103F07DFE05468DB12E46207800065B
:102950002BD5D4F89C00B0F5C04F24D011DC10B3B7
:10296000B0F5005F15D0B0F5804F10D116E0D4F867
:102970009820D9F8001021F4E0511143C9F8001053
:10298000E4E7B0F5004F0ED0B0F5204F0BD0012595
:102990000AE00021201D03F0C3FD03E0009802219E
:1029A00003F04EFE05464DB12E46207800071ED599
:1029B000D4F88000B0F5805F0AD00FE0D4F89C20F6
:1029C000D9F8001021F460411143C9F80010ECE778
:1029D0000098022103F034FE00B10126D4F88020D3
:1029E000DAF8001021F440511143CAF800102078A1
:1029F000C00613D5D4F89400B0F5807F05D10098B7
:102A0000022103F01DFE00B10126D4F89420D9F86C
:102A1000001021F440711143C9F800102068000330
:102A200016D5D4F8A00038B1B0F5803F09D0B0F584
:102A3000003F0BD001250AE00021201D03F070FDAE
:102A400003E00098022103F0FBFD054685B12E4608
:102A50002068400322D5D4F88400B0F5801F11D03F
:102A6000B0F5001F13D0B0F5401F15D0012514E0BC
:102A7000D4F8A020D9F8001021F440311143C9F84E
:102A80000010E5E7386840F40030386004E0009852
:102A9000012103F0D5FD054655B12E462068C0033F
:102AA0001CD5E06C70B1B0F5803F10D0012514E06A
:102AB000D4F88420DAF8001021F440111143CAF848
:102AC0000010EBE7386840F40030386004E0022181
:102AD000201D03F025FD0546CDB12E46206880005F
:102AE00005D50098022103F0ABFD00B10126206856
:102AF00080031BD5E06FB8B1B0F5807F10D0B0F582
:102B0000007F11D0B0F5407F0ED001250DE02E489A
:102B1000E26C0838016821F4803111430160DDE77F
:102B2000386840F400303860F5B32E462068C002A3
:102B300007D5226FD8F8001021F000411143C8F8E2
:102B400000102068C00008D5D4F8B420DBF80010CD
:102B500021F480411143CBF800102068800207D592
:102B6000A26ED8F8001021F080711143C8F800104F
:102B7000206840000CD5DBF8001021F40041CBF8B0
:102B80000010DBF80010D4F8B8201143CBF8001087
:102B90002068002807DA0C48226D0838016821F007
:102BA00040511143016000E014E02068000208D5A4
:102BB000D4F88820DAF8001021F440011143CAF853
:102BC000001086B1012003E054440258CFFFFF00FB
:102BD000BDE8FC9FE26FDAF8001021F44071114368
:102BE000CAF80010A2E70020EDE700002DE9F05F31
:102BF00004000F467ED0DFF83882D8F8000000F0DD
:102C00000F00B8420CD2D8F8001021F00F01394360
:102C1000C8F80010D8F8000000F00F00B84269D1E1
:102C20002078844D40070AD52069296801F0700199
:102C3000884204D9296821F0700101432960207875
:102C40007C4E361D00070AD56069316801F07001BD
:102C5000884204D9316821F0700101433160207845
:102C6000C0060AD5A069316801F4E061884204D940
:102C7000316821F4E061014331602078DFF8B4B1BC
:102C800080060BF1080B0CD5E1695846DBF80020F3
:102C900002F07002914204D9026822F070020A43E5
:102CA0000260207880070AD5E068296801F00F01EA
:102CB000884204D9296821F00F0101432960207856
:102CC000C0073ED05B49A2682868183920F47060BC
:102CD000104328606068022818D0032819D00968BA
:102CE000012819D0490700294ADADFF848A1AAF1DA
:102CF000080A00E044E0DAF8002022F0070202436C
:102D0000CAF80020FEF76EFD814612E009688903CB
:102D1000E9E709688901E6E7C905E4E7FEF762FD2E
:102D2000A0EB090141F28830814202D90320BDE8BD
:102D3000F09F6168DAF8000000F03800B0EBC10FD6
:102D4000ECD1207880070AD5E068296801F00F01EE
:102D5000884204D2296821F00F0101432960D8F884
:102D60000010404601F00F01B9420BD9016821F073
:102D70000F0139430160006800F00F00B84201D034
:102D80000120D4E7207840070AD52069296801F09E
:102D90007001884204D2296821F070010143296042
:102DA000207800070AD56069316801F07001884217
:102DB00004D2316821F07001014331602078C006EF
:102DC0000AD5A069316801F4E061884204D2316813
:102DD00021F4E06101433160207880060CD5E1697F
:102DE0005846DBF8002002F07002914204D20268DB
:102DF00022F070020A43026000F048F80E492A6887
:102E00002B68C2F3032203F00F038A5CC95C02F053
:102E10001F0201F01F01D040084A20FA01F11160A1
:102E20000749086007480068BDE8F05FFEF75EBE2E
:102E30000020005218440258749D000848010024E4
:102E4000440100243C01002430B500F01FF80B4A77
:102E50000B490C4B15681468C5F3032204F00F04EA
:102E60008A5C095D02F01F0201F01F01D040064A92
:102E700020FA01F119601060084630BD184402586C
:102E8000749D00084801002444010024454970B5A0
:102E900045480968434B103B11F0380208D0011136
:102EA000082A03D0102A0BD0182A0BD0084670BD70
:102EB00019688906FBD51968C1F3C101C84070BD06
:102EC0003A4870BD3749374D18310C1D24350A6812
:102ED000096826682D6802F0030406F00102C1F3B8
:102EE0000511C5F3CC0515FB02F200EE102AB8EE71
:102EF000400AE9B32F4ADFED2E0AB7EE001A6CB193
:102F0000DFED2D1A012C01D0022C43D002EE101A55
:102F10001068F8EE422A81EEA22A1EE01C68A40680
:102F200011D51B6801EE901A1168C3F3C103F8EEC6
:102F3000612AD84001EE900AC1F30800F8EE611A48
:102F400081EEA22A0BE001EE901ADFED1C2A00BFF1
:102F5000F8EE611A106882EEA12AC0F3080001EEB3
:102F6000900AF8EE611A40EE201A31EE810A00E074
:102F700015E022EE000A1068C0F34620401C00EE67
:102F8000900AF8EE600A80EE201ABCEEC10A10EE3C
:102F9000100A70BD01EE901ADFED092AD8E7002073
:102FA00070BD0000104402580090D003001BB70011
:102FB00000000039304402580024744A0024744C44
:102FC000001B374B2DE9F05F04007DD0FF4F2078C8
:102FD000FE4D1837DFF8F493103DC00748D0D9F8FC
:102FE0000000396800F03800102815D0182803D1E7
:102FF00001F0030002280FD06068B0F5803F12D0C6
:1030000010B1B0F5A02F18D0286820F480302860C7
:10301000286820F4802009E02868800328D56068AB
:103020000028D2D024E0286840F48030286060680E
:1030300088B1FEF7D7FB064609E0286840F48020F7
:103040002860F0E7FEF7CEFB801B64286FD8286865
:103050008003F7D50CE0FEF7C5FB064605E000BF90
:10306000FEF7C0FB801B6428F0D828688003F7D4E3
:10307000207841F20308D54E0C3E800769D5D9F877
:103080000000396810F038000ED0182801D18807E8
:103090000AD0E06890B3296821F019010143296042
:1030A000FEF7A0FB824631E02868400702D5E068C1
:1030B00000288AD0E168286820F0190008432860B9
:1030C000FEF790FB824607E0DFE000BFFEF78AFBD9
:1030D000A0EB0A000228B9D828684007F6D500BF3F
:1030E000FEF77AFB40451BD82069402812D0316892
:1030F00021F47C3141EA003030602AE018E000BF62
:10310000FEF770FBA0EB0A0002289FD82868400752
:10311000F6D5E5E7306820F47C3040F40030EBE78A
:10312000207C316821F0FE4141EA0060E4E70DE1D6
:10313000286820F001002860FEF754FB824605E075
:10314000FEF750FBA0EB0A0002288DD82868400744
:10315000F6D42078C0065DD5D9F80000DFF86CB24F
:10316000396800F03800ABF1040B082810D018289B
:1031700003D101F0030001280AD0E0690028286883
:1031800038D040F080002860FEF72CFB824623E018
:103190002868C00523D5E069802876D11FE0206A21
:1031A000202821D0316821F0F84141EA8060306068
:1031B00030E000BF94F82010DBF8002022F07C52B1
:1031C00042EA0161CBF8001024E000BFFEF70AFBE1
:1031D000A0EB0A00022898D82868C005F6D5FEF7AB
:1031E000FBFA4045E6D8DAE7306820F0F84040F0D6
:1031F0008040DCE720F080002860FEF7F3FA064606
:1032000005E000BFFEF7EEFA801B02289DD8286873
:10321000C005F7D42078000729D56C48616964306F
:1032200000298046016811D041F001010160FEF7DC
:10323000D9FA064605E000BFFEF7D4FA801B022843
:10324000C9D8D8F800008007F6D510E021F00101B8
:103250000160FEF7C7FA064605E000BFFEF7C2FAB6
:10326000801B022872D8D8F800008007F6D4207896
:10327000800623D5A0690028286810D040F480502B
:103280002860FEF7AFFA064605E02CE1FEF7AAFA41
:10329000801B02285AD828688004F7D50EE020F455
:1032A00080502860FEF79EFA064604E0FEF79AFA80
:1032B000801B02284AD828688004F7D42078400769
:1032C0004FD5DFF80C81D8F8001041F48071C8F8B0
:1032D0000010FEF787FA064605E000BFFEF782FA07
:1032E000801B642832D8D8F80000C005F6D5374EC8
:1032F000A068603601280AD008B1052813D03068CC
:1033000020F001003060306820F0040002E03068F6
:1033100040F001003060A06841F2883A90B1FEF7B9
:1033200061FA80460AE0306840F004003060EEE761
:10333000FEF758FAA0EB0801514507D8306880071E
:10334000F6D50EE0FEF74EFA804607E084E000BFB7
:10335000FEF748FAA0EB080151457DD83068800798
:10336000F6D4606AB0B3DFF86480D9F8001008F1D1
:103370002008C1F3C20103296FD00228286820F079
:103380008070286003D0FEF72DFA044680E0FEF737
:1033900029FA064605E000BFFEF724FA801B022842
:1033A00073D828688001F7D4E26A40F2F3313868B4
:1033B00054F8283F884340EA021018433860217BC4
:1033C0004FF4FE0C22894FF0FE4704E010440258EF
:1033D0000048025889E0208A4902521E267DA1F544
:1033E000007189B2401EC2F308021143761E0CEA36
:1033F000004001433E4807EA066211433C4AC8F8D0
:1034000000100832016821F00101016011684FF6D7
:10341000F876236AB14341EAC30111600168A269E9
:1034200021F00C01114301600168E26921F0020101
:1034300011430160016841F480310160016841F489
:1034400000310160016841F480210160016841F0B0
:1034500001010160286801E017E01DE040F0807084
:103460002860FEF7BFF9044605E000BFFEF7BAF991
:10347000001B022809D828688001F7D535E000BF75
:10348000FEF7B0F9001B022802D90320BDE8F09F27
:1034900028688001F4D428E039680128D8F80000B1
:1034A00021D0A26A01F0030393421CD1E26AC1F366
:1034B00005118A4217D1216BC0F30802491E8A42C6
:1034C00011D1616BC0F34622491E91420BD1A16B11
:1034D000C0F30642491E914205D1E16BC0F306607C
:1034E000491E814201D00120D0E70020CEE7000034
:1034F0002C440258024A136883430B4313607047FD
:1035000004040058401EB0F1807F10B501D30120A3
:1035100010BD4FF0E02460610F21601703F0F9FE49
:103520000020A0610721216110BD704770477047DE
:10353000F0B590F83C20012A3BD01F4E012480F8C2
:103540003C40022280F83D2002681C4D5368B24284
:10355000D2F808C001D0AA4203D14F6823F4700307
:103560003B430F6823F070031F4357600268B24269
:1035700013D0B2F1804F10D0114B9A420DD0114BA5
:103580009A420AD0104B9A4207D0AA4205D00F4B5C
:103590009A4202D00E4B9A4204D189682CF08003E3
:1035A00019439160002180F83D4080F83C100846A6
:1035B000F0BD0220F0BD0000000001400004014009
:1035C0000004004000080040000C004000180040CB
:1035D0000040014010B5040003D094F83D0010B144
:1035E00007E0012010BD002084F83C00204600F0D8
:1035F00023F8022084F83D002068211D03F07EFAA4
:10360000012084F8480084F83E0084F83F0084F8E4
:10361000400084F8410084F8420084F8430084F8B4
:10362000440084F8450084F8460084F8470084F894
:103630003D00002010BD0000F0B587B00446142105
:103640006846FCF762FE674A002523680224654944
:10365000083A6548B3F1804F644E35D0644FBB42A1
:1036600064D10B6843F002030B60096801F00201AA
:103670000591116841F001011160116801F001012B
:103680000591116841F002011160116801F0020119
:103690000591C0218DE83200CDE903546946FDF75C
:1036A00073FF032069468DE83100CDE903543046AD
:1036B000FDF76AFF002201211D20FEF7A1FA1D205F
:1036C000FEF790FA07B0F0BD0B6843F001030B6002
:1036D000096801F001010591116841F001011160D3
:1036E000116801F001010591116841F002011160BA
:1036F0001168012701F00201059120218DE83200B7
:10370000CDE903576946FDF73FFF40F6084069469B
:103710008DE83100CDE903573046FDF735FF002233
:103720001C201146FEF76CFA1C20C9E73148834281
:103730000ED1086840F004000860086800220221E9
:1037400000F0040005901E20FEF75AFA1E20B7E78D
:10375000294883420ED1086840F0080008600868D4
:103760000022032100F0080005903220FEF748FAFD
:103770003220A5E7214883420ED1086840F040007E
:10378000086008680022082100F0400005902B2006
:10379000FEF736FA2B2093E7194883420ED10868CA
:1037A00040F08000086008680022092100F08000D5
:1037B00005902C20FEF724FA2C2081E71148834243
:1037C00080D108480830016841F480310160006808
:1037D00000220A2100F4803005907420FEF710FAD0
:1037E00074206DE7E84402580000025800040258B3
:1037F0000004004000080040000C00400018004099
:10380000001C00400040014090F83D10012901D00B
:1038100001207047174A022180F83D100168CB68EB
:1038200043F00103CB600068904214D0B0F1804FA8
:1038300011D0114988420ED0104988420BD010494E
:10384000884208D00F49884205D00F49884202D0EB
:103850000E49884207D181680D4A1140062906D0D9
:10386000B1F5803F03D0016841F001010160002003
:1038700070470000000001400004004000080040C4
:10388000000C0040000401400018004000400140CE
:1038900007000100016841F21113CA6822F0010219
:1038A000CA6001680A6A1A4207D10A6A9B101A4262
:1038B00003D10A6822F001020A60012180F83D105C
:1038C0000020704770B5044690F83C0000250128A0
:1038D00014D03A4B012684F83C60022084F83D0065
:1038E00022689068184020F47F4090600868702833
:1038F0002FD010DC10F00F0F03D022E04FF00200A9
:1039000070BD4FEA2012072A1BD2DFE802F05353A2
:1039100053534B394100B0F1101F4BD009DCB0F5C7
:10392000805F0FD0B0F5005F1ED0B0F5801F08D1CA
:1039300040E0A0F5801120393CD010293AD0202950
:1039400038D0012584F83D60002084F83C002846EA
:1039500070BD4A682068D1E9021303F03EF920687F
:10396000816841F0770109E04A682068D1E90213D3
:1039700003F033F92068816841F480418160E1E718
:10398000CA684968206803F0D7FA2068502106E029
:10399000CA684968206803F021FB2068602103F0B1
:1039A00025F9CFE7CA684968206803F0C5FA20689E
:1039B0004021F4E7226801461046F0E788FFCEFF79
:1039C0002DE9FF5FFE4F834600680024DFF8F4A373
:1039D0004FF002084EF660294FF001063968AAF14F
:1039E000800588422ED19BF81C00012806D00228B1
:1039F00054D0042879D00828F4D1ECE0E86F4FF0D7
:103A000000010028EE481ED000F0EAFEE861002127
:103A1000CDF80080CDE90164E948039400F0DAFBB9
:103A2000E7480022694600F06FFA39686FF002003B
:103A300008610021E24800F02BFB10B1E2A003F086
:103A400019FCEC6714E100F0CBFE28620021DC4891
:103A5000CDE900460294039400F0BCFBD848002254
:103A6000694600F051FA39686FF0020008610021E0
:103A7000D34800F00DFB10B1D3A003F0FBFBD5E958
:103A80000701814201DD091A02E0081A00EB090171
:103A90006962CFA003F0EEFBEE67E9E0DAF8000020
:103AA0004FF004010028C64820D000F099FEA8621B
:103AB0000421CDF80080CDE90164C148039400F0F1
:103AC00089FBBF480422694600F01EFA39686FF08E
:103AD000040008610421BA4800F0DAFA10B1BAA073
:103AE00003F0C8FBCAF80040C2E026E000F078FE10
:103AF000E8620421B248CDE900460294039400F044
:103B000069FBAF480422694600F0FEF939686FF09E
:103B1000040008610421AA4800F0BAFA10B1AAA072
:103B200003F0A8FBD5E90A018142A1EB000000DC0B
:103B300048442863CAF800609AE0DAF804004FF0BD
:103B4000080100289E481FD000F04AFE6863082143
:103B5000CDF80080CDE901649948039400F03AFB68
:103B600097480822694600F0CFF939686FF00800DD
:103B700008610821924800F08BFA10B192A003F07E
:103B800079FBCAF8044073E000F02AFEA86308211C
:103B90008B48CDE900460294039400F01BFB884853
:103BA0000822694600F0B0F939686FF00800086132
:103BB0000821834800F06CFA10B183A003F05AFB8F
:103BC000D5E90D018142A1EB000000DC4844E86327
:103BD000CAF804604CE0DAF808004FF00C01002845
:103BE00077481FD000F0FCFD28640C21CDF8008040
:103BF000CDE901647248039400F0ECFA70480C229D
:103C0000694600F081F939686FF0100008610C21F5
:103C10006B4800F03DFA10B16BA003F02BFBCAF823
:103C2000084025E000F0DCFD68640C216448CDE923
:103C300000460294039400F0CDFA61480C226946D4
:103C400000F062F939686FF0100008610C215C48DF
:103C500000F01EFA10B15CA003F00CFBD5E91001D6
:103C60008142A1EB000000DC4844A864CAF8086067
:103C7000534FDBF800004C37396888422BD19BF852
:103C80001C00012829D0022878D0042874D00828E4
:103C900021D1DAF818004FF00C01002838466CD01A
:103CA00000F09EFD28670C21CDF800803846CDE954
:103CB0000164039400F08EFA0C226946384600F045
:103CC00023F939686FF0100008610C21384600F0C4
:103CD000DFF9CAF81840BDE8FF9FDAF80C004FF092
:103CE00000010028364800F14C001ED000F078FD9D
:103CF000E86400213248CDF80080CDE901644C3001
:103D0000039400F067FA2E48002269464C3000F018
:103D1000FBF839686FF002000861002128484C3038
:103D200000F0B6F9CAF80C40D5E700F059FD286557
:103D300000212348CDE900464C300294039400F062
:103D400049FA1F48002269464C3000F0DDF8396816
:103D50006FF002000861002119484C3000F098F91A
:103D6000D5E913108842A0EB010000DC48446865E7
:103D7000CAF80C60AFE701E05BE0A0E0DAF8100001
:103D80004FF0040100280E4800F14C002ED000F046
:103D900027FDA86504210A48CDF80080CDE901641B
:103DA0004C30039400F016FA0548042269464C3062
:103DB00000F0AAF839686FF00400086104210FE0F0
:103DC000680B0024DC0000244552524F520D0A00BB
:103DD000415558325F496E7075743A25640D0A007A
:103DE000484800F055F9CAF8104074E700F0F8FCB4
:103DF000E86504214348CDE900460294039400F0AD
:103E0000E9F940480422694600F07EF839686FF00D
:103E10000400086104213B4800F03AF9D5E9161086
:103E20008842A0EB010000DC48442866CAF8106014
:103E300051E7DAF814004FF00801002831481BD090
:103E400000F0CEFC68660821CDF80080CDE9016461
:103E50002C48039400F0BEF92A480822694600F075
:103E600053F839686FF0080008610821254800F010
:103E70000FF9CAF814402EE700F0B2FCA86608213A
:103E80002048CDE900460294039400F0A3F91D48B0
:103E90000822694600F038F839686FF008000861B8
:103EA0000821184800F0F4F8D5E919108842A0EB71
:103EB000010000DC4844E866CAF814600BE700F033
:103EC0008FFC68670C210F48CDE9004602940394EB
:103ED00000F080F90B480C22694600F015F83968AB
:103EE0006FF0100008610C21064800F0D1F8D5E908
:103EF0001C108842A0EB010000DC4844A867CAF807
:103F00001860E8E6B40B00242DE9F041054690F86E
:103F10003C0000260C46012810D0012085F83C000A
:103F200072B1042A1CD0082A2CD00C2A51D00126A8
:103F3000002085F83C003046BDE8F0810220FBE718
:103F4000E3682868D4E9001203F008F8286881695A
:103F500021F00C01816128688169A26811430FE09A
:103F6000E3682868D4E9001203F04AF828688169F8
:103F700021F44061816128688169A26841EA0221D7
:103F80008161D5E7D4E900232868217B076A4FF4D3
:103F9000206C090727F4807707620CEA0222C769C0
:103FA000D0F820C027F003071F432CF4206C27F023
:103FB000F00342EA0C0243EA1161C161026228681F
:103FC000C16921F00C01C1612868A268C16911436F
:103FD00029E02868D4E90032E168076A4FF6FF7CDF
:103FE0004FF4204E27F4805707620CEA0131C7696D
:103FF000D0F820C00EEA033327F4407747EA0222C4
:104000002CF4204C22F470421143C16143EA0C03AA
:1040100003622868C16921F44061C1612868A16810
:10402000C26942EA0121C16182E710B5040003D0F0
:1040300094F83D0010B107E0012010BD002084F885
:104040003C00204600F022F8022084F83D00206861
:10405000211D02F053FD012084F8480084F83E0041
:1040600084F83F0084F8400084F8410084F842005E
:1040700084F8430084F8440084F8450084F846003E
:1040800084F8470084F83D00002010BD7047000010
:1040900030B504464FF0000579B1042912D0082943
:1040A00015D00C2918D0102919D094F8430000BF5E
:1040B00094F84720012817D114E094F83E0094F8B2
:1040C0004420F7E794F83F0094F84520F2E794F88D
:1040D000400094F84620EDE794F84100E8E794F8B2
:1040E0004200E5E7012A01D0012030BD4FF0020077
:1040F00079B1042916D008291DD00C294FD01029D8
:1041000050D084F843000C2984F847004DD0012595
:1041100043E084F83E0084F844002068C26842F01E
:10412000020210E084F83F0084F845002068C2686D
:1041300042F0040207E084F8400084F8460020685A
:10414000C26842F00802C2602068012202F038FD15
:1041500018492068884214D0B0F1804F11D0164918
:1041600088420ED0154988420BD01549884208D0A4
:104170001449884205D01449884202D01349884224
:1041800007D18168124A1140062906D0B1F5803F57
:1041900003D0016841F001010160284630BD84F878
:1041A0004100B0E784F84200ADE72068C26842F001
:1041B0001002C8E700000140000400400008004071
:1041C000000C004000040140001800400040014085
:1041D0000700010070B50D0004464FF0000607D03F
:1041E000042D0AD0082D0DD00C2D10D0012635E05D
:1041F0002068C16821F002010DE02068C16821F04B
:10420000040108E02068C16821F0080103E020688B
:10421000C16821F01001C16020680022294602F027
:10422000CFFC206841F21112016A114207D1016AE4
:104230009210114203D1016821F0010101604FF099
:1042400001006DB1042D10D0082D13D00C2D16D007
:10425000102D17D084F8430084F84700304670BD15
:1042600084F83E0084F84400F8E784F83F0084F8BE
:104270004500F3E784F8400084F84600EEE784F850
:104280004100E9E784F84200E6E770B504460068BB
:1042900000250169C943890715D4C168C943890745
:1042A00011D4EA1E0261012121772068806980070C
:1042B000204602D0FFF784FB04E000F0E9F8204636
:1042C00000F0ABF9257720680169C943490717D485
:1042D000C168C943490713D402216FF00402026187
:1042E00021772068806910F4407F204602D0FFF7D4
:1042F00067FB04E000F0CCF8204600F08EF925774B
:1043000020680169C943090716D4C168C943090770
:1043100012D404216FF00802026121772068C0697D
:104320008007204602D0FFF74BFB04E000F0B0F816
:10433000204600F072F9257720680169C943C90653
:1043400017D4C168C943C90613D408216FF01002FD
:10435000026121772068C06910F4407F204602D0B6
:10436000FFF72EFB04E000F093F8204600F055F92B
:10437000257720680169C943C90708D1C168C943C5
:10438000C90704D1891E0161204600F0CFF92068D9
:104390000169C943090609D4C168C943090605D49E
:1043A0006FF0800101612046FFF7C0F820680169C5
:1043B000C943C90509D4C168C943090605D46FF4C6
:1043C000807101612046FFF7B0F820680169C94398
:1043D000490609D4C168C943490605D46FF04001B4
:1043E0000161204600F012FA20680169C94389067C
:1043F0000BD4C168C943890607D46FF0200101615D
:104400002046BDE87040FFF792B870BD10B586B089
:10441000044614216846FBF778FF184A00202368F9
:10442000174993424FF0020211D10B6843F0080381
:104430000B60096801F0080105914FF4704100918B
:10444000CDE90120CDE903020E48694612E00E4C89
:10445000A34211D10B6843F001030B60096801F01E
:10446000010105910F210091CDE90120CDE9030261
:1044700006486946FDF788F806B010BD0008004000
:10448000E0440258000C0258000C004000000258A2
:10449000704770B5044690F83C0000260D46012890
:1044A0000BD0012084F83C000C2A4AD007DC82B1F2
:1044B000042A20D0082A06D131E0022070BD102A3B
:1044C00053D0142A63D00126002084F83C003046E3
:1044D00070BD206802F094FB2068816941F00801FA
:1044E00081612068816921F00401816120682A6965
:1044F0008169114311E0206802F0D6FB20688169D0
:1045000041F4006181612068816921F480618161E9
:1045100020682969826942EA01218161D4E7206823
:1045200002F00EFC2068C16941F00801C1612068F9
:10453000C16921F00401C16120682A69C169114380
:1045400011E0206802F048FC2068C16941F4006174
:10455000C1612068C16921F48061C1612068296955
:10456000C26942EA0121C161AEE7206802F070FC35
:104570002068416D41F0080141652068416D21F0DE
:104580000401416520682A69416D114311E02068EA
:1045900002F098FC2068416D41F40061416520689B
:1045A000416D21F48061416520682969426D42EACC
:1045B0000121416588E710B5040003D094F83D005F
:1045C00010B107E0012010BD002084F83C00204617
:1045D00000F022F8022084F83D002068211D02F03E
:1045E0008DFA012084F8480084F83E0084F83F00EA
:1045F00084F8400084F8410084F8420084F84300C5
:1046000084F8440084F8450084F8460084F84700A4
:1046100084F83D00002010BD7047704730B5044657
:104620004FF0020269B1042912D0082917D00C29D1
:104630001CD0102921D094F84300012824D0012057
:1046400030BD94F83E000128F9D184F83E201DE0E9
:1046500094F83F000128F2D184F83F2016E094F846
:1046600040000128EBD184F840200FE094F841008D
:104670000128E4D184F8412008E094F842000128A0
:10468000DDD184F8422001E084F843200122206833
:1046900002F096FA1B4B20681B491C4A984209D02D
:1046A000884207D0904205D0194DA84202D0194D3A
:1046B000A84203D1456C45F4004545642068984202
:1046C00012D0B0F1804F0FD0134B98420CD0134B47
:1046D000984209D0124B984206D0884204D0114922
:1046E000884201D0904207D181680F4A11400629C3
:1046F00006D0B1F5803F03D0016841F001010160AF
:10470000002030BD00000140000401400040014095
:1047100000440140004801400004004000080040FF
:10472000000C0040001800400700010027492DE957
:10473000F0410968054600680026254C4FF4FA77D9
:1047400088420ED1A08A401C80B2A082B84208D113
:104750002048016821F001010160002002F07AF98F
:10476000A6821A4928684C310968884212D1E08A29
:10477000401C80B2E082B8420CD11748E18941F078
:104780008001E181016821F001010160002002F057
:104790006FF9E6820D49286898310968884212D17C
:1047A000208B401C80B2208308280CD10B48A189A3
:1047B00041F40041A181016921F001010161002062
:1047C00002F06AF92683BDE8F0810000980C00240D
:1047D0005C00002410180040101C00400040014004
:1047E00002464FF0000041B1042909D008290AD03F
:1047F0000C2901D11068006C70471068406B70473D
:104800001068806B70471068C06B70477047FEE798
:104810000148FDF745B800001C0B00240148FDF7D6
:1048200073B800001C0B0024806B0021826B02B166
:104830001165C26B02B1116500F0EABACA074FF008
:1048400028034FF0000210B506D090F841404222F4
:1048500033EA040400D0F2228C0707D590F84140D7
:1048600042F04402A34301D042F0B0020B0401D550
:1048700042F0B802102904D0202905D0402906D0E2
:1048800007E042F0900204E042F0200201E042F032
:104890004002006801689143016010BD01688A69A7
:1048A000D243920701D400228A6200688169C94319
:1048B000C90703D0816941F00101816170472DE989
:1048C000F047044690F84100282200250821824341
:1048D000206804D0C16184F84050BDE8F087876942
:1048E00086694FF0FE088268D0F80CC04FF400498A
:1048F000E36808EA16460CF0FE08022BC7F30047EF
:10490000C2F3090207D049462046FFF797FF324617
:1049100084F8405010E0062306F0060603EAD2139E
:104920009E420ED1A36C5B1CA364A36C022BD4D15A
:10493000A564C16184F8405039462046FCF7AFFFBA
:10494000CBE749462046FFF779FF424684F84050BE
:10495000F2E7000070B53A4A044690F8410000259D
:1049600084F84250E2626585626C282842EA0102BE
:1049700062641FD029281DD02A281BD048F20301C9
:104980002046FFF75BFF94F84100602802D020200A
:1049900084F841006563A16B206B2A4E19B1112880
:1049A00012D0212810D0E16BF1B3122824D0222894
:1049B00022D03EE003212046FFF740FF2249282075
:1049C000616384F84100E6E720680168490403D583
:1049D000016821F480410160A06BFCF7BFFD012854
:1049E00027D0A06B066584F84050A06BFCF774FCE0
:1049F000002823D0A06B16E020680168090403D5C5
:104A0000016821F400410160E06BFCF7A7FD01287B
:104A10000FD0E06B066584F84050E06BFCF75CFC5F
:104A200000280BD0E06B00E003E0016DBDE87040B2
:104A300008472046BDE8704000F0EAB970BD0000AC
:104A40000000FFFF29480008F14C000870B504463B
:104A5000164AC843002541074FF02000E262256353
:104A600084F8410084F84250656311D42068616A7B
:104A7000406A0870606A401C6062208D40B1618DA0
:104A8000401E2085491E6185606C40F00400606412
:104A900048F203012046FFF7D1FE21681020C861CB
:104AA000204684F84050FCF795FF70BD0000FFFFE2
:104AB0002DE9F05F026820260446176890F841004F
:104AC0000D46D661212806D0292804D0222809D0F5
:104AD0002A2807D00DE048F201012046FFF7AEFE7C
:104AE000212005E048F202012046FFF7A7FE222020
:104AF000206320685649426842F4004242602068C0
:104B000042680A4042602046FFF7C8FEF843514918
:104B1000514ADFF84CC14304504B524FDFF84891E3
:104B2000DFF848A1DFF848B1DFF848E10BD420688E
:104B3000D0F8008028F48048C0F80080A06B0CE01A
:104B40004068608534E0000432D42068D0F80080EA
:104B500028F40048C0F80080E06B48B30068884241
:104B6000EED09042ECD09842EAD06045E8D0B8420E
:104B7000E6D04845E4D05045E2D05845E0D07045F5
:104B8000DED03C4918318842DAD03A493031884287
:104B9000D6D0384948318842D2D03649603188422F
:104BA000CED0344978318842CAD032499031C7E7F3
:104BB000E84340070FD4206825F00405616A406A85
:104BC0000870606A401C6062218D21B1608D491EB1
:104BD0002185401E6085608D18B1606C40F0040036
:104BE0006064002784F84270606C676368B1616C30
:104BF0002046FFF7AFFE94F84100282815D129463A
:104C00002046BDE8F05FFFF721BFE06A1A4DA842D9
:104C10000DD0204600F032F8E56284F84160276349
:104C2000204684F84070FCF7D5FEBDE8F09F94F86C
:104C3000410084F8416022282763204684F84070B0
:104C400002D0FCF71CFFF0E7FCF718FFEDE70000CF
:104C500000E800FE10000240280002404000024030
:104C6000580002407000024088000240A00002404C
:104C7000B8000240100402400000FFFF70B5044677
:104C800000680025016884F84250C9434A0403D4EF
:104C9000016821F4804104E0090403D4016821F48F
:104CA0000041016094F841102820292911D094F87E
:104CB00041102A290CD1222184F8410021630221CC
:104CC0002046FFF7BBFD204684F84050FCF7D6FE97
:104CD00070BD212184F84100216301212046FFF7A6
:104CE000ADFD204684F84050FCF7C9FE70BD0000C1
:104CF0002DE9F041044690F840008846E56A012815
:104D000026D06FEA0807012084F84000B9066FEA50
:104D1000020605D4B00603D441462046FFF7C8FE7C
:104D20003A49F8064FF0807231D4F0062FD4638DE3
:104D3000102083B12168C861606C40F00400606499
:104D40000DB195425ED1616C2046FFF703FE59E03C
:104D50000220BDE8F08194F84120282A02D1B5F163
:104D6000007F04D094F84120292A05D00CE0414668
:104D70002046FFF76BFE45E08D4205D02168C861F3
:104D80002046FFF78BFD3AE02168C8613AE07807DA
:104D900015D4700713D4608D60B12068626A406AD0
:104DA0001070606A401C6062208D401E2085608DFE
:104DB000401E6085608D28BB8D4220D122E03807DF
:104DC00006D4300704D441462046FFF778FD19E0A9
:104DD000B80717D4B00715D4608D68B1606A216830
:104DE00000788862606A401C6062608D401E608549
:104DF000208D401E208505E0954200D015B9204643
:104E0000FFF73CFF002084F84000A2E70000FFFF0E
:104E100010B590F841200021602A05D0016380F888
:104E20004010FCF779FD10BD202280F8412001637D
:104E300080F84010FCF732FD10BD0000014804214D
:104E4000FCF7BDBC0010025810B5094C002204212B
:104E50002046FCF7BCFC6420FCF784FB01222046C2
:104E60000421FCF7B4FCBDE810406420FCF77ABBD9
:104E70000010025801480821FCF7A1BC001002589C
:104E800001481021FCF79BBC001002580122024887
:104E90000421FCF79CBC000000100258FFF7EABF99
:104EA000012202480821FCF792BC000000100258C1
:104EB000012202481021FCF78ABC000000100258B1
:104EC0008068C0F3C00070478068C0F380007047FE
:104ED0008068C0F38000704710B5042404EAD15400
:104EE0000723C1F3045120448B408A404169994310
:104EF0001143416110BD0000044908B50A6802432E
:104F00000A6009680140009108BD0000E0440258B1
:104F1000044908B50A6802430A6009680140009123
:104F200008BD0000E8440258F0B50A6892FAA2F2FF
:104F3000B2FA82F44CE00125A54013EA050246D0FE
:104F40004B68012B01D0022B10D1856802FB02F3C4
:104F50008E685E4303EB43039D433543856045689C
:104F6000CE680B689D435E4335434560C56802FBD0
:104F700002F30E6903FB06F703EB4306B5433D431B
:104F8000C5604D68022D1CD1FF2A0BD803FB02F52A
:104F9000076A55434A696A43C5EB0515AF43174392
:104FA00007620EE0476A120AD1F814C002FB02F54C
:104FB0005543554305FB0CF2C5EB0515AF431743AD
:104FC000476205684A68B54353431D430560641C46
:104FD0000A681346E240AED10020F0BD02480068E6
:104FE000C0F30020704700000044025800EE100A91
:104FF00000EE901A01EE102A9DED002AB8EE403A1C
:10500000F8EE600AB8EE410AB8EE421A01EE903AA4
:1050100083EE202AF8EE611ADFED062A01EEA20ADD
:1050200022EE000AC0EE010ABCEEE00A10EE100A01
:1050300070470000000000390649030EC0F3042247
:1050400051FA80F1934009681940D14040EA01408B
:10505000704700004C4402582DE9F84F364F0025A8
:105060000446A846386810F0030004D001280BD08D
:10507000022812D10DE000F0F9F970B100F0EEF95C
:105080002E4DC008C54008E0FFF7A8FF28B12C4D01
:1050900003E000F0DBF900B12A4D00202060264E2D
:1050A0006060A06008363868311F33680A68C0F352
:1050B0000517C3F3080012F0010F00F1010A03D035
:1050C000301D0068C0F3CC08002F33D00868894633
:1050D000C0F3004058B13068434652463946C0F3E9
:1050E0004620401C00902846FFF780FF2060D9F83A
:1050F0000000C0F3404058B130684346524639463C
:10510000C0F30640401C00902846FFF76FFF606028
:10511000D9F80000C0F3804000280BD03068434627
:1051200052463946C0F30660401C00902846FFF7FF
:105130005DFFA060BDE8F88F284402580090D003BE
:1051400000093D00001BB7002DE9F84F374F00253F
:105150000446A846386810F0030004D001280BD09C
:10516000022812D10DE000F081F970B100F076F95B
:105170002F4DC008C54008E0FFF730FF28B12D4D86
:1051800003E000F063F900B12B4D00202060274EB2
:10519000606026491036A0603868091D33680A68C7
:1051A000C0F30537C3F3080000F1010AC2F300128F
:1051B0001AB1301D0068C0F3CC08002F33D0086846
:1051C0008946C0F3C04058B130684346524639461C
:1051D000C0F34620401C00902846FFF707FF2060E0
:1051E000D9F80000C0F3005058B130684346524629
:1051F0003946C0F30640401C00902846FFF7F6FEF3
:105200006060D9F80000C0F3405000280BD030682F
:10521000434652463946C0F30660401C009028467B
:10522000FFF7E4FEA060BDE8F88F000028440258B4
:105230000090D00300093D00001BB7002DE9F84F96
:10524000384F00250446A846386810F0030004D003
:1052500001280BD0022812D10DE000F007F970B13F
:1052600000F0FCF8304DC008C54008E0FFF7B6FE7E
:1052700028B12E4D03E000F0E9F800B12C4D0020DC
:105280002060284E606027491836A0603868091DE4
:1052900033680A68C0F30557C3F3080000F1010A38
:1052A000C2F300221AB1301D0068C0F3CC08002FF1
:1052B00035D0002D33D008688946C0F3805058B1EE
:1052C0003068434652463946C0F34620401C0090A1
:1052D0002846FFF78BFE2060D9F80000C0F3C050CD
:1052E00058B13068434652463946C0F30640401C28
:1052F00000902846FFF77AFE6060D9F80000C0F3FE
:10530000006000280BD03068434652463946C0F34F
:105310000660401C00902846FFF768FEA060BDE8CC
:10532000F88F0000284402580090D00300093D0087
:10533000001BB7000248006800F47060704700006E
:1053400018440258FEB50024FFF776FE39494FF4A1
:1053500040724FF47D43451A88424FF480315FD04C
:1053600022DC354EB042A0EB06050AD010DC334DEE
:10537000A0F10800B0F1E06040D090422DD088420A
:1053800029D100F083F830B36846FFF7DDFE09E06D
:105390009D4201D08D421ED100F080F8D8B1684600
:1053A000FFF74CFF019C16E0254EA81BB54204D028
:1053B00008DC954234D08D420DD1FFF70FFE50B17D
:1053C000204C08E0984201D0884204D100F056F801
:1053D00008B14FF400442046FEBD01F0EFF9044649
:1053E000FFF7A8FFC0F30320285C00F01F0024FA99
:1053F00000F001F0B5F901F0D1F90FE001F0DEF9AC
:105400000446FFF797FFC0F30320285C00F01F005D
:1054100024FA00F001F0A4F901F0B0F90446DAE74B
:1054200000F024F80028D6D000F018F8064CC00888
:10543000C440D0E70800030708030107349D0008B3
:105440000003010000093D000090D00302480068FD
:10545000C0F3404070470000004402580248006812
:1054600000F018007047000000440258024800682D
:10547000C0F38000704700000044025802480068F2
:10548000C0F34000704700007044025802480068B2
:10549000C0F3C06070470000004402580248006832
:1054A000C0F340707047000000440258416821F486
:1054B00090414160816821F02A01816070470000BD
:1054C0002DE9F0410446006801260D4610F0010F59
:1054D00054D1D5E904C1EB69A86822681943324F59
:1054E00040EA0C0008433A40104320606168E868D5
:1054F00021F4405101436160A168A86921F4407121
:105500000143A16029482A49844201D1084615E097
:10551000284A2948944211D0284A94420ED0284A59
:1055200094420BD0274A944208D0274A9442EDD0A7
:1055300026498C4202D026498C4218D1FFF702FF3F
:10554000A8B1696899B12A680026EB690B2A0ED8C0
:10555000B3F5004F1F4B14D0D2B253F82220B0FB4A
:10556000F2F000EB5100B0FBF1F080B2E060E16AD4
:10557000288821F00F0180B20143E1623046BDE886
:10558000F081D7B24FF6F07253F82730B0FBF3F04A
:10559000400000EB5100B0FBF1F081B201EA0200E3
:1055A000C1F342010843E1E7F369FFEF0010014056
:1055B00008030007004400400800000700480040BE
:1055C000004C0040005000400014014000780040B2
:1055D000007C0040449D000810F1080050E8002FB6
:1055E00022F0606242EA416240E80023002BF5D1DC
:1055F0007047000010F1080050E8002F61F35F725F
:1056000040E80023002BF7D1704700002DE9F04F50
:105610002DED028BB0EE408AB7EEE00A81B09846DD
:1056200093468946824602F06BFCB7EEC80A02F048
:1056300067FCBAEB0B07A9EB0805C7F1000601D51B
:10564000304600E03846284CA16A88420FDB38001B
:1056500000D530462D2801DA012300E0002323483D
:105660005A46514600F042FDA16808446063002F8D
:1056700000DA3746A06A874203DA1D4A218989B2D7
:105680001160A9EB0802291EC2F1000600DA3146BA
:10569000814210DB280000D530462D2801DA012395
:1056A00000E00023114842464946203800F01EFD24
:1056B000616808442063002D00DA3546A06A8542FF
:1056C00004DA0B49A088091D80B208604B46206BA4
:1056D0005146009007A0626B01F0CCFD01B0BDEC1B
:1056E000028BBDE8F08F00000C000024A001002414
:1056F000380C0040526F6C6C5F78203D2025642090
:105700002C2025642C2050697463685F79203D202B
:1057100025642C2025640D0A0000000030B58BB0F4
:10572000002468461C21079408940994FAF7EDFDBB
:105730001B4804251949012284600160C0E9034522
:10574000047544758261047744628462C4620463B0
:10575000446380F83840FBF75BFC08B172B6FEE7A3
:105760000F4807A90794FBF7D5F908B172B6FEE711
:105770000C48062140F2FF7203928DE8130008489E
:105780006946CDE904548DF81940FBF755FA002815
:1057900001D072B6FEE70BB030BD00000020024021
:1057A000540A00240004002A70B588B01C21684601
:1057B000FAF7ABFD1748042515490024012684603B
:1057C0000160C0E90345047544758661047744624D
:1057D0008462C4620463446380F83840FBF718FCB9
:1057E00008B172B6FEE7062040F2FF710096039101
:1057F0006946CDE901040748CDE904548DF8194004
:10580000FBF71AFA002801D072B6FEE708B070BDA7
:1058100000600258B80A0024F0B587B01421684629
:10582000FAF773FD2C48016841F01001016001682E
:1058300001F010010591016841F0800101600168EB
:1058400001F080010591016841F0040101600168E7
:1058500001F004010591016841F001010160016856
:1058600001F001010591016841F002010160016848
:1058700001F002010591016841F008010160006832
:105880000122164E1C2100F0080005903046FBF75F
:105890009EFF134F002210213846FBF798FF00248B
:1058A000694601251C200090CDE90154304603943F
:1058B000FBF76AFE10200090CDE901546946384696
:1058C0000394FBF761FE0F2069468DE8310005481F
:1058D000FBF75AFE07B0F0BDE04402580010025832
:1058E00000000258000C02581248002110B5104C5C
:1058F0000123114A0460C0E90121C0E9033141617B
:105900008161C1610162FCF709F808B172B6FEE776
:1059100008480021FBF76CFF08B172B6FEE70548A6
:105920000021FBF791FF002801D072B6FEE710BD01
:10593000005400401C0B0024D48D80201FB511485A
:10594000002140F6B8320E4C00914723019102919C
:105950000391C0E9021201618161C0E90043FDF7D2
:1059600039FE08B172B6FEE74FF48050009005484A
:105970006946FDF7A7FF002801D072B6FEE71FBDFC
:1059800000180040980C002410B588B01748002477
:1059900040F6B8321449009401940294039404949C
:1059A00005940694C0E90014C0E902420461446110
:1059B0008461FDF70FFE08B172B6FEE74FF4805028
:1059C00000900A486946FDF77DFF08B172B6FEE710
:1059D000064804A904940694FDF7AAFD002801D006
:1059E00072B6FEE708B010BD00400140300D002443
:1059F00030B58BB02E4800244EF65F23472200942A
:105A00004FF08041019480250294039404940594FE
:105A100006940794089409940A9480E81600856116
:105A2000C0E90334FDF7D6FD08B172B6FEE74FF4C6
:105A3000805000901E486946FDF744FF08B172B6D9
:105A4000FEE71B48FEF7F1FA08B172B6FEE7184808
:105A500004A904940694FDF76BFD08B172B6FEE745
:105A60000120002207A9CDE90740114809940A94B2
:105A7000FEF74AFA08B172B6FEE70D48042207A9FC
:105A8000FEF742FA08B172B6FEE70948082207A9F4
:105A9000FEF73AFA08B172B6FEE705480C2207A9EC
:105AA000FEF732FA002801D072B6FEE70BB030BD27
:105AB000680B002430B58BB02F4800242D494722B5
:105AC0004EF65F230094802501940294039404947D
:105AD000059406940794089409940A9480E81600A3
