:020000040800F2
:10000000682000209D01000835490008312C0008B7
:10001000D54700086D0A0008C15B00080000000019
:100020000000000000000000000000008D4F0008EC
:100030001D0B000800000000B94C00085D520008CC
:10004000B7010008B7010008B7010008B7010008B0
:10005000B7010008B7010008B7010008B7010008A0
:10006000B7010008B7010008B7010008B701000890
:10007000B7010008B7010008B7010008B701000880
:10008000B7010008B7010008B7010008B701000870
:10009000B7010008B7010008B7010008B701000860
:1000A000B70100089553000889530008B7010008FC
:1000B000A1530008AD530008B9530008B701000868
:1000C000B7010008B7010008B7010008B701000830
:1000D000B7010008695A0008755A0008815A0008DB
:1000E000B7010008B7010008B7010008B701000810
:1000F000E9530008DD530008B7010008B701000804
:10010000B7010008B7010008C5530008B70100088F
:10011000B70100085D5A0008B7010008D153000874
:10012000B7010008B7010008B7010008B7010008CF
:10013000B7010008B7010008B7010008B7010008BF
:10014000B7010008B7010008B7010008B7010008AF
:10015000B7010008B7010008B7010008B70100089F
:10016000B7010008B7010008B7010008B70100088F
:10017000B7010008B7010008B7010008000000003F
:10018000B7010008B7010008DFF80CD000F0D4FB7D
:1001900000480047F1A20008682000200648804778
:1001A00006480047FEE7FEE7FEE7FEE7FEE7FEE75C
:1001B000FEE7FEE7FEE7FEE7F552000889010008CA
:1001C0002DE9F05F0546002092469B46884606468C
:1001D000814640241BE0284641464746224600F01F
:1001E0008CFA53465A46C01A914110D3114618460C
:1001F000224600F073FA2D1A67EB01084F4622469B
:100200000120002100F06AFA17EB00094E41201E80
:10021000A4F10104DFDC484631462A464346BDE8E6
:10022000F09F40EA01039B0703D009E008C9121FB1
:1002300008C0042AFAD203E011F8013B00F8013BA0
:10024000521EF9D27047D2B201E000F8012B491ECC
:10025000FBD270470022F6E710B513460A46044663
:100260001946FFF7F0FF204610BD10B5044604E024
:100270000B7800F8013B03B1491C521EF8D220460E
:1002800010BD2DE9FE4F804681EA0300C00F0C46E9
:10029000009021F0004123F00045B8EB0200A94195
:1002A00005D24046214690461C460B46024623F0A6
:1002B0000040104347D0270DC7F30A00C3F30A518B
:1002C0000290401A019040286BDAC3F3130040F407
:1002D000801B0098924620B10023D2EB030A63EB07
:1002E0000B0B01985946C0F14002504600F0F6F958
:1002F00006460D4650465946019A00F00EFA10EB9C
:1003000008006141002487EA115284EAE7731A4326
:1003100040D0009A62B3019A012A4FEA075215DCD5
:10032000001B61EB02014FF0004202EA0752CDE9E7
:100330000042001C41F5801132462B4600F045FA80
:1003400003B0BDE8F08F40462146F9E7001B61EBA2
:100350000201001C41F5801300185B412018A2F532
:10036000001747EB030140EAD570B6196D4111E063
:100370006D084FEA360645EAC0754FEA0752001B82
:1003800061EB0201001C41F5801149084FEA300081
:100390000019514132462B4603B0BDE8F04F00F042
:1003A00005BA0098012240000023D0EB020263EB63
:1003B000E073009821464FEAE074B8EB000061EB6F
:1003C0000401E9E783F000435BE781F0004158E76F
:1003D0002DE9FE4F81EA030404F0004421F00041BE
:1003E00000944FF0000B23F0004350EA01045ED06C
:1003F00052EA03045BD0C3F30A54C1F30A552C44F8
:10040000A4F2F3340194A0FB0254C1F3130141F4AC
:100410008011C3F3130343F4801301FB024400FB78
:10042000034E840A970A44EA815447EA8357A4FB9F
:10043000076802958D0A05FB07854FEA932C04FB9C
:100440000C542705029D4FEA065847EA1637B5EBCC
:1004500008056EEB070C870E920E47EA811742EAF9
:100460008312A7FB0201B6EB0B0164EB00042B0D1A
:1004700043EA0C335E1844EB1C50DA465146E7FB66
:100480000201C5F313044FEA0B3343EA14534FEA56
:100490000432019C43EA0603A4F10C040294009C7C
:1004A000CDE900B400F091F903B0BDE8F08F002071
:1004B0000146F9E72DE9F04D81EA030404F0004B11
:1004C00021F0004514464FF0000A23F0004150EAA5
:1004D000050220D054EA01021DD0C5F30A57024696
:1004E000C5F31303C1F31300C1F30A5640F480159A
:1004F00043F48013A7EB0608101BD64608F2FD381C
:1005000073EB050002D308F1010801E092185B418A
:10051000B8F1000F03DA00200146BDE8F08D00209D
:100520004FF48011064684460EE0171B73EB050757
:1005300005D3121B63EB050306434CEA010C490883
:100540004FEA300092185B4150EA0107EDD152EAC0
:10055000030012D082EA040083EA0501084305D0B3
:10056000101BAB4106D20122002306E000224FF00F
:10057000004302E06FF0010253101AEB06004CEB4F
:10058000085110EB0A0041EB0B01BDE8F04D00F003
:100590000DB90EB5C10F80EAE0700844CA0700210A
:1005A00040F233438DE80E000A460B4600F00DF989
:1005B00003B000BD70B5C1F30A5201F0004500243C
:1005C000C1F3130140F2FF3341F480119A4201DA82
:1005D000002070BD40F233439A42A2F2334203DC62
:1005E000524200F08AF800E090402C43F1D04042A3
:1005F00070BD00F0004230F000400AD0C10D01F59E
:100600006071C0F3160042EA0151C208400711436D
:10061000704700200146704730B5041E71F1000498
:1006200004DB4FF00044404264EB0101141E73F1FF
:10063000000405DB1C464FF00043524263EB040309
:100640008B4208BF824230BD30B5041E71F10004F8
:1006500004DB4FF00044404264EB0101141E73F1CF
:10066000000405DB1C464FF00043524263EB0403D9
:10067000994208BF904230BD01F0004330B421F0F0
:10068000004150EA010206D00A0DA2F56072C1F3E2
:100690001301002A02DC30BC00207047440F44EAFA
:1006A000C104C100E01830BC00EBC25000F047B8F4
:1006B00030B50B46014600202022012409E021FA32
:1006C00002F59D4205D303FA02F5491B04FA02F52F
:1006D0002844151EA2F10102F1DC30BD202A04DB02
:1006E000203A00FA02F1002070479140C2F1200345
:1006F00020FA03F3194390407047202A04DB203A84
:1007000021FA02F00021704721FA02F3D040C2F131
:1007100020029140084319467047202A06DBCB1778
:10072000203A41FA02F043EAE07306E041FA02F3AC
:10073000D040C2F120029140084319467047002979
:10074000A8BF7047401C490008BF20F00100704757
:1007500010B4B0FA80FC00FA0CF050EA010404BFB7
:1007600010BC704749B1CCF1200421FA04F411FA0D
:100770000CF118BF012121430843A3EB0C01CB1D51
:100780004FEA00614FEA102042BF002010BC7047C2
:1007900000EBC35010440029A4BF10BC7047401C9C
:1007A000490008BF20F0010010BC704710B5141EAE
:1007B00073F1000408DA401C41F1000192185B411A
:1007C0001A4301D120F0010010BD2DE9F04D9246F1
:1007D0009B4611B1B1FA81F202E0B0FA80F2203208
:1007E0009046FFF77BFF04460F4640EA0A0041EAC5
:1007F0000B0153465A46084313D0114653EA0100F1
:1008000019D0C8F140025046FFF777FF05460E4663
:10081000504659464246FFF761FF084305D0012084
:1008200004E020463946BDE8F08D0020054346EA45
:10083000E0762C4337430A986305E40AA0EB0800EE
:100840000022FD0A44EA47540A3002D5002001463E
:10085000E9E7010510196941DDE908450019694119
:10086000BDE8F04DA2E72DE9F04D00231A461B1A12
:100870008A4103DB00200146BDE8F08DC1F30A5236
:10088000C1F3130141F480154FF0000BD10702D1E1
:1008900000186D41521E0027044640F2FF113846F1
:1008A00001EB620A3E468046024600204FF480116A
:1008B000FFF723FFC2197141BB1846EB0100B4EBEF
:1008C000030C75EB000C04D3E41A65EB0005174626
:1008D0000E46241908F101006D4180463428E3DDFD
:1008E000F91946EB0600091BA84103D24FF0FF326D
:1008F000134601E0002213461BEB070046EB0A51AA
:10090000BDE8F04DFFF752BFC1F30A52C1F3130126
:1009100040F2FF3341F480119A4202DA002001468E
:10092000704740F233439A42A2F2334202DC524211
:10093000FFF7E3BEFFF7D2BE064C074D06E0E068C6
:1009400040F0010394E8070098471034AC42F6D316
:10095000FFF71EFCF0BA000810BB000870B58C1839
:1009600010F8015B15F0070301D110F8013B2A11C3
:1009700006D110F8012B03E010F8016B01F8016BB0
:100980005B1EF9D12B0705D40023521E0DD401F8AC
:10099000013BFAE710F8013BCB1A921C03E013F875
:1009A000015B01F8015B521EF9D5A142D8D30020AA
:1009B00070BD00009FED070A702180ED000A80EDF8
:1009C000010A80ED020A80ED030A018241828182E0
:1009D000C18270470000000000221021014800F091
:1009E00008BA00000000024001221021014800F076
:1009F00000BA00000000024010B500230DE00468BA
:100A0000C4F3C014002CFAD011F8014B4460046800
:100A1000C4F38014002CFAD05B1C9342EFD310BDBA
:100A20000268C2F3C012002AFAD041600168C1F323
:100A300080110029FAD0704708B502C8009150F81B
:100A4000081B009150E8001F41F0200140E800120F
:100A5000002AF7D108BD0000034941F29410086054
:100A6000091D086070470000380C0040FEE77FB5A4
:100A7000044603A905F0B8FF94F87C6394F87F530B
:100A8000002834D16B4601AA02A9204605F09BFE3E
:100A900000282CD1204607F03DFA002827D14FF43A
:100AA000FA71204605F0D3FA002820D12A463146B3
:100AB0002046636904F086FA002818D1DDE9012197
:100AC0002046009B07F0F0F9002810D10098206123
:100AD00003A9204607F003FA002808D1A1780622CE
:100AE000204606F080FC002801D184F87E5304B033
:100AF00070BD000010B5C0B2064A002104F08BF8AA
:100B0000042204490448FFF777FF024900204439D2
:100B1000087010BD1C050020004400407047000014
:100B200070B50025184C0126322000F04BF802F079
:100B3000B1FD02F0CBFD02F0CFFDFFF755FF6420C1
:100B400000F040F8FFF748FF267002F0DBFD02F0EE
:100B5000D1FD02F0C7FD6D1C022DE5DBA08D0B4918
:100B600080B20860A088091F80B208602089091F30
:100B700080B20860A08A091F80B20860208C0449F6
:100B800080B2086070BD000040040020400C0040AE
:100B90003408004072B6FEE700EE900AB7EE001A85
:100BA000F8EEE00A31EE401A60EE800A00EE101A0C
:100BB000B8EEC00A40EE010ABDEEE00A10EE100ADF
:100BC0007047000070B5044600F018F90546601C37
:100BD00002D004480078044400F010F9401BA04201
:100BE000FAD370BD700600202DE9F84FDFF8BCA1E4
:100BF0000022012503264FF00F090AF1040BAAF188
:100C0000040E00BF0B6805FA02F42340A34270D122
:100C10000F7907F00307012F01D0022F16D1876843
:100C20004FEA420806FA08FC27EA0C07D1F80CC084
:100C30000CFA08FC4CEA070CC0F808C04768A74348
:100C40000C79C4F3001494403C4344600C79E443B1
:100C5000A4070AD0C4684FEA420C06FA0CF7BC435A
:100C60008F6807FA0CF72743C7600C7904F0030478
:100C7000022C12D1D40800EB840CDCF8204057077A
:100C8000FF0E09FA07F824EA0804D1F8108008FAE0
:100C900007F848EA0408CCF8208004684FEA420CC0
:100CA00006FA0CF7BC430F7907F0030707FA0CF7B5
:100CB000274307604C6814F4403F70D03C4C2768D1
:100CC00047F480472760246822F0030704F4804437
:100CD0000094384C07EB040CDCF8084897074FEAFF
:100CE000177809FA08F7BC43334FB84202D10027FE
:100CF00024E054E0314FB84201D101271EE0304FCB
:100D0000B84201D1022719E02E4FB84201D1032782
:100D100014E02D4FB84201D104270FE02B4FB84209
:100D200001D105270AE02A4FB84201D1062705E084
:100D3000284FB84201D1072700E0082707FA08F733
:100D40002743CCF80878DAF800405746D1F804C0B9
:100D50009C435FEACC2C00D51C433C60DBF8004090
:100D60005F46D1F804C09C435FEA8C2C00D51C433D
:100D70003C60DEF800407746D1F804C09C435FEA4F
:100D80008C3C00D51C433C60084F083F3C68D1F8C0
:100D900004C09C435FEACC3C00D51C433C60521C21
:100DA000102AFFF42FAFBDE8F88F0000083C014087
:100DB000443802400030014000000240000402407C
:100DC00000080240000C02400010024000140240E3
:100DD00000180240001C02400069084000D00120B9
:100DE0007047426921EA02030A4043EA02418161F5
:100DF00070470AB1816170470904FBE701488068C8
:100E0000704700007006002070B5040025D094F8EB
:100E10003D00002520B984F83C50204600F03EFA01
:100E2000242084F83D002068016821F00101016060
:100E30002068016841F4004101602068016821F4E4
:100E40000041016000F0D2FB4D4A6168914201D837
:100E50004C4900E04C49884201D2012070BD4B4909
:100E60002368B0FBF1F15E6826F03F060E435E603A
:100E70006368934206D94FF4967359434FF47A73DB
:100E8000B1FBF3F12368491C1E6A26F03F0631438B
:100E900019626168914210D84900401EB0FBF1F21E
:100EA000521CC2F30B02042A01D2042022E0B0FB40
:100EB000F1F0401CC0F30B001CE0A268F2B301EBA0
:100EC000C10303EB0116431EB3FBF6F35B1C43F4B3
:100ED00080431B0549D092B301EBC10202EB011123
:100EE000401EB0FBF1F0401CC0F30B0040F480400A
:100EF00040F400402168CA694CF6FF739A431043DE
:100F0000C861D4E9071001432068026822F0C002DA
:100F100011430160D4E9030101432068826848F26B
:100F2000FF339A4311438160D4E9050108432168E6
:100F3000CA6822F0FF021043C86001E00EE016E02C
:100F40002068016841F0010101602564202084F8D7
:100F50003D00256384F83E50002070BD01EB410642
:100F6000431EB3FBF6F35B1CB3E70120C2E701EBC2
:100F70004101401EB0FBF1F0401CC0F30B00B7E78D
:100F8000A086010080841E0000093D0040420F0041
:100F90002DE9F84F1F4690468A460446DDF8289012
:100FA000FFF72CFF054694F83D00202875D1192342
:100FB00001226C492046009501F03CFF0028F5D144
:100FC00094F83C00012868D0012084F83C00206897
:100FD0000168C90703D1016841F00101016020687F
:100FE000016821F400610160222084F83D00102096
:100FF00084F83E0000262664C4F824806785608D4E
:1010000020855948E0622B464A465146204601F069
:1010100027FE002878D1208D544F68B1012814D0C4
:1010200002282068016816D041F4806101602068C0
:1010300041698069009087E0206841698169009179
:10104000016841F4007101607EE02068016821F4CC
:1010500080610160F0E721F480610160206801682F
:1010600041F40061E2E7032848D801280AD00228A9
:1010700014D04B46002239462046009501F0DAFE96
:10108000D8BB27E02A464946204601F052FFA0BBC4
:1010900020680069616A08704DE061E04B460022FB
:1010A00039462046009501F0C5FE30BB2068016836
:1010B00041F40071016020680069616A0870606A2B
:1010C000401C6062218D491E2185618D491E61850C
:1010D00021682EE02068016821F4806101602068A9
:1010E0000069616A0870606A401C6062208D401E61
:1010F0002085608D401E6085D0E705E02A46494680
:10110000204601F016FF10B10120BDE8F88F2068DD
:101110000069616A0870606A401C6062218D491E26
:101120002185618D491E618521684A69D243520734
:101130000AD409690170606A401C6062208D401EFB
:101140002085608D401E6085208D00288BD1202059
:1011500084F83D0084F83E6084F83C600020D4E7C9
:101160000220D2E7020010000000FFFF040001008F
:101170002DE9F84F1F4690468A460446DDF8289030
:10118000FFF73CFE054694F83D0020287FD1192347
:10119000012240492046009501F04CFE002876D1FE
:1011A00094F83C00012872D0012084F83C002068AB
:1011B0000168C90703D1016841F00101016020689D
:1011C000016821F400610160212084F83D001020B5
:1011D00084F83E0000262664C4F824806785608D6C
:1011E00020852D48E0622B464A465146204601F0B4
:1011F000ADFD90B9206841698069009036E02A46CB
:101200004946204601F0C8FE50B1206C042804D1A4
:101210002068016841F4007101600120BDE8F88F89
:10122000606A216800780861606A401C6062618DB4
:10123000491E6185218D491E89B221852268536925
:10124000DB435B070BD451B100781061606A401C2E
:101250006062608D401E6085208D401E20852A467C
:101260004946204601F0C0FD0028CED1208D00283F
:10127000C5D154F83D0B016841F400710160202094
:1012800004F81E09E67766770020C7E7FFE702202B
:10129000C4E70000020010000000FFFF2DE9F0414C
:1012A00086B0044614216846FEF7D4FF2F4A216811
:1012B000DFF8BC8000242E4812250326042708F1FD
:1012C000100891421CD1016841F0020101600068E0
:1012D00002AA00F002000590C020CDE9000582E8D6
:1012E000D00069462348FFF77FFCD8F8001041F48E
:1012F0000011C8F80010D8F8000000F4001031E028
:101300001D4A91422FD1016841F00401016001683A
:1013100001F004010591016841F0010101600068DC
:10132000694600F0010005905015CDE9000502AABC
:10133000124882E8D000FFF757FC4FF48070CDE9E7
:10134000000502AA694682E8D0000D48FFF74CFC70
:10135000D8F8001041F40001C8F80010D8F80000D7
:1013600000F40000059006B0BDE8F0810054004094
:101370003038024000040240005C00400008024097
:101380000000024002488168027811448160704781
:10139000700600200B4810B5016841F4007101602F
:1013A000016841F480610160016841F4807101606D
:1013B000032000F06FF80F2000F006F800F024F88A
:1013C000002010BD003C024070B50D4D04464FF4A6
:1013D0007A712878B1FBF0F00A490968B1FBF0F0A6
:1013E00000F0FAFA48B9102C07D200222146501E0C
:1013F00000F030F800206C6070BD012070BD00006E
:10140000700600207C0600200A4808B5016841F4F7
:1014100080410160006800F4804000900548001F92
:10142000016841F080510160006800F08050009038
:1014300008BD000044380240002809DB00F01F020C
:10144000012191404009800000F1E020C0F8001126
:1014500070470000F0B40E4B1B680C46C3F3022328
:10146000C3F10705042D00D90425191D072901D250
:10147000002300E0DB1E012606FA05F1491E21408B
:1014800099409E40761E16403143F0BC06F03CBEAB
:101490000CED00E0064900F0070208684FF6FF0374
:1014A000184040EA0220034A1043086070470000D9
:1014B0000CED00E00000FA052DE9F0470E460500AE
:1014C00065D0DFF81481D8F80000F7B200F007000B
:1014D000B04207D288F80070D8F8000000F007008A
:1014E000B04254D128683D4C810712D5400703D53E
:1014F000206840F4E05020602878000703D5206879
:1015000040F4604020602068A96820F0F0000843A3
:1015100020602878C0072DD0304968680839012834
:1015200012D0022813D0032811D009688907002996
:101530002DDA216821F0030101432160FFF75EFCF1
:10154000814641F2883A0EE009688903EFE70968AD
:101550008901ECE7FFF752FCA0EB0901514502D9E4
:101560000320BDE8F0872068696800F00C00B0EB4C
:10157000810FEFD1D8F80010404601F00701B142C9
:1015800007D90770006800F00700B04201D00120C1
:10159000E7E72878400705D52068E96820F4E0509F
:1015A000084320602878000706D52068296920F4C0
:1015B000604040EAC100206000F028F82168084A35
:1015C000C1F30311515CC840064908600648006831
:1015D000FFF7FAFE0020C4E7003C02400838024052
:1015E000B0B700087C0600207406002004480549B6
:1015F00000680968044AC1F38221515CC840704701
:101600007C06002008380240C0B70008154810B515
:10161000006810F00C02144813D04110042A0FD0B7
:10162000082A0ED10F4C241F2268236802F03F02C3
:101630005B0207D52068C0F38810A0FB010106E01B
:10164000084610BD2168C1F38811A1FB00010023E9
:10165000FEF7B6FD2168C1F30141491C4900B0FB0A
:10166000F1F010BD083802400024F4002DE9F84FD5
:1016700004006ED02078DFF84C93C007A9F1040570
:101680004AD009F104000168C1F38101012908D0A1
:101690000068C0F3810002280AD1D9F80000400296
:1016A00006D52868800337D560680028E1D033E08C
:1016B0006068B0F5803F10D0B0F5A02F286810D03A
:1016C00020F480302860286820F48020286060683A
:1016D000A8B1FFF793FB06460DE0286840F4803080
:1016E000F4E740F480202860F7E700BFFFF786FBAF
:1016F000801B642873D828688003F7D50CE0FFF7B7
:101700007DFB064605E000BFFFF778FB801B6428E1
:10171000F0D828688003F7D42078DFF8AC828007FF
:101720004FF0000A3ED5A748001D016811F00C0FCC
:1017300008D00068C0F3810002280BD1D9F800005E
:10174000400207D42868800716D5E068012800D138
:1017500012E033E1E068B8B10120C8F80000FFF7FB
:101760004DFB064605E000BFFFF748FB801B022843
:10177000C0D828688007F7D52868216920F0F800CC
:1017800040EAC10028600DE0C8F800A0FFF736FB72
:10179000064604E0FFF732FB801B02281FD82868AA
:1017A0008007F7D42078000722D5864F87486169E3
:1017B000703771B101210160FFF720FB064604E09C
:1017C000FFF71CFB801B022809D838688007F7D573
:1017D0000EE0C0F800A0FFF711FB064605E082E02E
:1017E000FFF70CFB801B02287DD838688007F7D4F0
:1017F0002078400768D5DFF8CCB100270BF13C0B0F
:10180000DBF80000C0000BD4DBF8001041F0805181
:10181000CBF80010DBF80000012700F080500090AA
:101820006B4E3068C00510D4306840F48070306072
:10183000FFF7E4FA009005E0FFF7E0FA0099401A9C
:10184000022850D83068C005F6D55E4EA0686C36C8
:1018500001280FD00528306810D020F0010030603A
:10186000306820F004003060A068B8B1FFF7C6FA15
:1018700000900FE0306840F00100F4E740F0040011
:101880003060F7E7FFF7BAFA0099411A41F2883061
:10189000814266D830688007F4D50EE0FFF7AEFAD3
:1018A000009007E0FFF7AAFA0099411A41F2883048
:1018B000814256D830688007F4D42FB1DBF800108D
:1018C00021F08051CBF80010A069C8B33D49091D33
:1018D0000968C1F3810102294AD00228504607D085
:1018E000C8F8600000E03CE0FFF788FA04463BE0FF
:1018F0004746C8F86000FFF781FA064605E000BFDA
:10190000FFF77CFA801B02282BD828688001F7D4C7
:10191000D4E907010843A16A2E4A490802EB0141B4
:10192000626A41EA8211084394F82C1040EA01618E
:10193000C9F8001001203866FFF760FA044606E097
:101940003EE000BFFFF75AFA001B022809D82868BA
:101950008001F7D534E000BFFFF750FA001B0228E2
:1019600002D90320BDE8F88F28688001F4D427E06D
:101970000128F7D0D9F80000E26900F48001914213
:101980001CD1226A00F03F01914217D147F6C07185
:10199000626A0140B1EB821F10D1A26A4FF0FF339F
:1019A00000F4403103EB5202B1EB024F06D194F840
:1019B0002C1000F07060B0EB016F01D00120D1E776
:1019C0000020CFE70438024000004742800E474223
:1019D000007000400000FFFF10B5401EB0F1807F96
:1019E00001D3012010BD4FF0E02460610F2160178A
:1019F00006F08AFB0020A06107202061002010BDB6
:101A00007047704770B590F83C20012A32D001240D
:101A100080F83C40022280F83D2003685A689D68A7
:101A200022F070060A6832435A60134B02689A42E9
:101A300014D0B2F1804F11D0104B9A420ED0104BFF
:101A40009A420BD00F4B9A4208D00F4B9A4205D0C6
:101A50000E4B9A4202D00E4B9A4204D1496825F0AF
:101A600080031943916080F83D40002180F83C10CC
:101A7000084670BD022070BD000001400004004017
:101A800000080040000C00400004014000400140FC
:101A90000018004010B5040003D094F83D0010B1C8
:101AA00007E0012010BD002084F83C00204600F033
:101AB0001FF8022084F83D00211D206803F09AFCE5
:101AC000012084F8460084F83E0084F83F0084F842
:101AD000400084F8410084F8420084F8430084F810
:101AE000440084F8450084F83D00002010BD00004B
:101AF000F0B587B0044614216846FEF7ABFB7B4B7C
:101B0000216800257948103B0224794A794EB1F1C9
:101B1000804F37D0784FB94267D1016841F0020158
:101B20000160006800F002000590186840F00100B4
:101B30001860186800F001000590186840F0020075
:101B400018601868694600F002000590C0208DE812
:101B50003100CDE903541046FFF746F803208DE825
:101B60003100CDE9035469463046FFF73DF80022C5
:101B700001211D20FFF76EFC5FF01D00FFF75CFCEC
:101B800007B0F0BD016841F001010160006800F09C
:101B900001000590186840F001001860186800F016
:101BA00001000590186840F00200186018680127CD
:101BB00000F00200059020208DE83100CDE90357A8
:101BC00069461046FFF710F840F608408DE83100EE
:101BD000CDE9035769463046FFF706F80022114663
:101BE0001C20FFF737FC1C20C8E7444A91420ED165
:101BF000016841F0040101600068002200F0040067
:101C0000059002211E20FFF725FC1E20B6E73C4A66
:101C100091420ED1016841F0080101600068002284
:101C200000F00800059003213220FFF713FC32205A
:101C3000A4E7344A91420ED1016841F020010160CD
:101C40000068002200F0200005900C213720FFF7EB
:101C500001FC372092E7254A2B4B121D99420ED1E9
:101C6000106840F4003010601068002200F400306A
:101C700005900B211920FFF7EDFB19207EE7234B80
:101C800099420ED1106840F4802010601068002244
:101C900000F48020059008211A20FFF7DBFB1A20B2
:101CA0006CE71B4A91420ED1016841F0800101604E
:101CB0000068002200F08000059009212C20FFF729
:101CC000C9FB2C205AE7134A91427FF459AF0168AF
:101CD00041F4807101600068002200F4807005907A
:101CE0000A212D20FFF7B6FB2D2047E740380240A0
:101CF00000000240000402400004004000080040D0
:101D0000000C004000140040004401400048014025
:101D1000001C00400020004090F83D10012901D037
:101D200001207047022180F83D100168CA6842F026
:101D30000102CA6000681149884214D0B0F1804F96
:101D400011D00F4988420ED00E4988420BD00E495F
:101D5000884208D00D49884205D00D49884202D0FA
:101D60000C49884204D1816801F00701062903D09B
:101D7000016841F00101016000207047000001404E
:101D80000004004000080040000C00400004014036
:101D900000400140001800400168CA6822F00102BA
:101DA000CA6001680A6A41F211131A4207D10A6A2D
:101DB0009B101A4203D10A6822F001020A60012135
:101DC00080F83D100020704770B5044690F83C0044
:101DD0000025012817D0012684F83C60022084F8F1
:101DE0003D002068826822F0770222F47F42826000
:101DF0000868502838D00DDC20284FD005DC90B37F
:101E0000102811D14AE0022070BD302846D0402869
:101E10000AD13BE060282FD070280DD0B0F5805F4C
:101E200003D0B0F5005F12D0012584F83D6000209A
:101E300084F83C00284670BDCB68D1E901212068B8
:101E400003F049FB2068816841F0770109E0CB6825
:101E5000D1E90121206803F03EFB2068816841F44C
:101E600080418160E1E719E0CA684968206803F0B1
:101E700007FC5021206806E0CA684968206803F022
:101E800051FC6021206803F030FBCEE7CA68496846
:101E9000206803F0F5FB40212068F4E72268014642
:101EA0001046F0E72DE9FF5FDFF838840746016848
:101EB000DFF83494D8F80000002401264FF0020A1D
:101EC0004EF6602BA9F18005814230D1387F012880
:101ED00006D0022856D004287CD00828F5D1F6E098
:101EE000D9F800004FF000010028FE4820D000F093
:101EF00089FE2862CDF800A0CDE901640021F948EF
:101F0000039400F0BFFB00226946F64800F076FA21
:101F1000D8F800106FF0020008610021F14800F0CD
:101F20002BFB10B1F1A006F0A1F8C9F800401FE1A9
:101F300000F068FE6862CDE9004602940021E9489D
:101F4000039400F09FFB00226946E64800F056FA31
:101F5000D8F800106FF0020008610021E14800F09D
:101F60000BFB10B1E1A006F081F8D5E90801814230
:101F700001DD081A02E0091A01EB0B00A862C9F89A
:101F80000060F5E0D9F804004FF004010028D548BE
:101F900021D000F037FEE862CDF800A0CDE9016461
:101FA0000421D048039400F06DFB04226946CD481B
:101FB00000F024FAD8F800106FF004000861042142
:101FC000C84800F0D9FA10B1C8A006F04FF8C9F817
:101FD0000440CDE029E000F015FE2863CDE900467D
:101FE00002940421BF48039400F04CFB042269468C
:101FF000BC4800F003FAD8F800106FF00400086144
:102000000421B84800F0B8FA10B1B8A006F02EF8D4
:10201000D5E90B01814201DD081A02E0091A01EB42
:102020000B006863C9F80460A2E0D9F808004FF01B
:1020300008010028AB4820D000F0E4FDA863CDF8EB
:1020400000A0CDE901640821A648039400F01AFB22
:1020500008226946A34800F0D1F9D8F800106FF0C3
:102060000800086108219F4800F086FA10B19FA07F
:1020700005F0FCFFC9F808407AE000F0C3FDE86312
:10208000CDE90046029408219648039400F0FAFA3C
:1020900008226946934800F0B1F9D8F800106FF0B3
:1020A0000800086108218F4800F066FA10B18FA07F
:1020B00005F0DCFFD5E90E10884201DD401A02E090
:1020C000411A01EB0B002864C9F8086050E0D9F808
:1020D0000C004FF00C010028824820D000F092FD47
:1020E0006864CDF800A0CDE901640C217D4803941B
:1020F00000F0C8FA0C2269467A4800F07FF9D8F857
:1021000000106FF0100008610C21764800F034FADE
:1021100010B176A005F0AAFFC9F80C4028E000F045
:1021200071FDA864CDE9004602940C216D4803942A
:1021300000F0A8FA0C2269466A4800F05FF9D8F866
:1021400000106FF0100008610C21664800F014FACE
:1021500010B166A005F08AFFD5E91101814201DDC9
:10216000081A02E0091A01EB0B00E864C9F80C60D8
:10217000DFF880813968D8F8000081422AD1387FA1
:10218000012829D0022873D004286FD0082821D133
:10219000D9F81C004FF00C010028404667D000F031
:1021A00031FD6867CDF800A0CDE901640C214046FF
:1021B000039400F067FA0C226946404600F01EF9CD
:1021C00039686FF0100008610C21384600F0D4F92E
:1021D000C9F81C40BDE8FF9FD9F810004F46002801
:1021E00044484FF000011BD000F00CFD2865CDF8ED
:1021F00000A0CDE9016400213E48039400F042FABA
:10220000002269463B4800F0F9F8D8F800106FF05A
:10221000020008610021374800F0AEF93C61D9E7BF
:1022200000F0F0FC6865CDE90046029400213148D9
:10223000039400F027FA002269462E4800F0DEF8E9
:10224000D8F800106FF0020008610021294800F062
:1022500093F9D5E91410884201DD401A02E0411AD1
:1022600001EB0B00A8653E61B4E701E054E09CE09F
:10227000D9F814004F4600281E484FF004011BD027
:1022800000F0C0FCE865CDF800A0CDE901640421B0
:102290001848039400F0F6F904226946154800F046
:1022A000ADF8D8F800106FF004000861042111485F
:1022B00000F062F97C618DE700F0A4FC2866CDE9AE
:1022C0000046029404210B48039400F0DBF9042239
:1022D0006946084800F092F8D8F800106FF0040042
:1022E000086109E0DC170020E00500204552524F4C
:1022F000520D0A002418002004213F4800F03CF948
:10230000D5E91710884201DD401A02E0411A01EBBD
:102310000B0068667E615DE7D9F818004F4600281B
:1023200035484FF008011BD000F06CFCA866CDF8D2
:1023300000A0CDE9016408212F48039400F0A2F920
:10234000082269462C4800F059F8D8F800106FF0C0
:10235000080008610821284800F00EF9BC6139E73F
:1023600000F050FCE866CDE90046029408212248BE
:10237000039400F087F9082269461F4800F03EF8F0
:10238000D8F800106FF00800086108211A4800F022
:10239000F3F8D5E91A10884201DD401A02E0411A2B
:1023A00001EB0B002867BE6114E700F02BFCA86767
:1023B000CDE9004602940C210F48039400F062F925
:1023C0000C2269460C4800F019F8D8F800106FF09C
:1023D000100008610C21084800F0CEF8D5E91D1066
:1023E000884201DD401A02E0411A01EB0B00E86768
:1023F000C9F81C60EEE60000241800202DE9F04129
:10240000054690F83C0000260C46012810D001201B
:1024100085F83C0072B1042A1CD0082A2CD00C2A62
:1024200050D00126002085F83C003046BDE8F08100
:102430000220FBE7D4E90012E368286803F032F9D0
:102440002868816921F00C01816128688169A2688E
:1024500011430FE0D4E90012E368286803F074F92F
:102460002868816921F44061816128688169A268D6
:1024700041EA02218161D5E72868D4E9002C277B55
:10248000016A21F480710162C169036A21F00301CC
:1024900041EA0C0121F0F00C39074FF420674CEAB7
:1024A000116123F4206307EA02221A43C161026228
:1024B0002868C16921F00C01C1612868C169A2685E
:1024C000114328E02868D4E90027E168036A23F46F
:1024D00080530362D0F81CC0036A2CF4407C4CEAA1
:1024E00007274FF6FF7C27F470470CEA0131394388
:1024F0004FF4204723F4204307EA02321A43C16114
:1025000002622868C16921F44061C1612868C1691B
:10251000A26841EA0221C16184E710B5040003D03A
:1025200094F83D0010B107E0012010BD002084F8B0
:102530003C00204600F01EF8022084F83D00211DDA
:10254000206802F057FF012084F8460084F83E001E
:1025500084F83F0084F8400084F8410084F8420089
:1025600084F8430084F8440084F8450084F83D0072
:10257000002010BD7047000030B50446002551B161
:1025800004290DD0082910D094F8410094F8452072
:10259000012811D10EE094F83E0094F84220F7E7AC
:1025A00094F83F0094F84320F2E794F8400094F840
:1025B0004420EDE7012A01D0012030BD022059B1AD
:1025C000042912D0082919D084F8410084F8450064
:1025D0000C2944D0012540E084F83E0084F84200F4
:1025E0002068C26842F0020210E084F83F0084F8DC
:1025F00043002068C26842F0040207E084F840000B
:1026000084F844002068C26842F00802C2600122D7
:10261000206802F053FF14492068884214D0B0F1BA
:10262000804F11D0114988420ED0114988420BD0F9
:102630001049884208D01049884205D00F49884285
:1026400002D00F49884204D1816801F007010629B0
:1026500003D0016841F001010160284630BD2068C7
:10266000C26842F01002D1E70000014000040040BF
:1026700000080040000C0040000401400040014000
:102680000018004070B50D0004464FF0000607D05A
:10269000042D0AD0082D0DD00C2D10D001262FE0CE
:1026A0002068C16821F002010DE02068C16821F0B6
:1026B000040108E02068C16821F0080103E02068F7
:1026C000C16821F01001C16000222946206802F093
:1026D000F5FE2068016A41F21112114207D1016A28
:1026E0009210114203D1016821F001010160012023
:1026F00045B1042D09D0082D0AD004F8410F2071EE
:10270000304670BD04F83E0FF9E704F83F0FF6E7D6
:1027100004F8400FF3E770B50446006801694FF014
:102720000005C943890715D4C168C943890711D475
:10273000E91E01610120207720688069800720461A
:1027400002D0FFF7AFFB04E000F0DAF8204600F01B
:102750006CF9257720680169C943490717D4C16816
:10276000C943490713D46FF00401016102202077A7
:102770002068806910F4407F204602D0FFF792FB6A
:1027800004E000F0BDF8204600F04FF925772068FE
:102790000169C943090716D4C168C943090712D49E
:1027A0006FF008010161042020772068C06980076C
:1027B000204602D0FFF776FB04E000F0A1F82046A7
:1027C00000F033F9257720680169C943C90617D499
:1027D000C168C943C90613D46FF010010161082014
:1027E00020772068C06910F4407F204602D0FFF7B0
:1027F00059FB04E000F084F8204600F016F9257734
:1028000020680169C943C90708D1C168C943C9071C
:1028100004D1891E0161204600F06CF9206801692D
:10282000C943090609D4C168C943090605D46FF034
:10283000800101612046FFF7E3F820680169C94380
:10284000490609D4C168C943490605D46FF040015F
:102850000161204600F0EBF920680169C94389064F
:102860000BD4C168C943890607D46FF02001016108
:102870002046BDE87040FFF7C4B870BD10B586B003
:10288000044614216846FDF7E5FC2368174C002137
:1028900017480222A34211D1036843F008030360E2
:1028A000006800F0080005904FF470400090CDE9FA
:1028B0000121CDE9031269460E4812E00E4CA342F5
:1028C00011D1036843F001030360006800F00100C8
:1028D00005900F200090CDE90121CDE90312694652
:1028E0000648FEF781F906B010BD00000008004060
:1028F00030380240000C0240000C00400000024052
:10290000704770B5044690F83C0000260D4601283B
:102910000FD0012084F83C006AB1042A1DD0082A97
:102920002FD00C2A3FD00126002084F83C003046EE
:1029300070BD022070BD206802F0E0FD2068816952
:1029400041F0080181612068816921F00401816101
:10295000206881692A69114311E0206802F0FEFDB8
:102960002068816941F4006181612068816921F4F6
:1029700080618161206881692A6941EA022181615F
:10298000D2E7206802F020FE2068C16941F008010A
:10299000C1612068C16921F00401C1612068C16979
:1029A0002A69114311E0206802F042FE2068C169E3
:1029B00041F40061C1612068C16921F48061C16195
:1029C0002068C1692A6941EA0221C161ACE710B5FA
:1029D000040003D094F83D0010B107E0012010BDC1
:1029E000002084F83C00204600F01EF8022084F805
:1029F0003D00211D206802F0FDFC012084F8460006
:102A000084F83E0084F83F0084F8400084F84100D8
:102A100084F8420084F8430084F8440084F84500B8
:102A200084F83D00002010BD7047704710B5044683
:102A3000022249B104290ED0082913D094F841008C
:102A4000012816D0012010BD94F83E000128F9D1CC
:102A500084F83E200FE094F83F000128F2D184F87A
:102A60003F2008E094F840000128EBD184F8402092
:102A700001E084F841200122206802F01FFD164980
:102A80002068164A884201D0904203D1436C43F437
:102A9000004343642068884213D0B0F1804F10D0C7
:102AA0000F4988420DD00F4988420AD00E4988420A
:102AB00007D0904205D00D49884202D00C49884287
:102AC00004D1816801F00701062903D0016841F0B3
:102AD00001010160002010BD000001400004014020
:102AE0000004004000080040000C0040004001408D
:102AF0000018004070B53649064600680968002590
:102B0000344C884215D1E08B3349401C80B2E083BD
:102B1000096888420DD1314901200870304805709C
:102B20003048016821F001010160002002F0EAFB59
:102B3000E5832D4930680968884212D1208B401CFA
:102B400080B2208332280CD1A08840F40040A080BD
:102B50002648016821F001010160002002F0EAFB33
:102B60002583234930680968884212D1608B401C54
:102B700080B2608332280CD1E08840F40040E080CD
:102B80001C48016821F001010160002002F0E0FB17
:102B90006583194930680968884218D1A08B401CA8
:102BA00080B2A083322812D1208940F400402081D5
:102BB00008488030C563114800F078FE104801696C
:102BC00021F001010161002002F0D0FBA58370BD5E
:102BD0004419002060050020FC040020DF040020D0
:102BE000E0040020104401408C19002010480140EE
:102BF000D4190020101C00401C1A0020004800407E
:102C0000002000400246002041B1042909D00829D3
:102C10000AD00C2901D11068006C70471068406B15
:102C200070471068806B70471068C06B70477047C2
:102C3000FEE701684A69D24352050FD46FF48062FF
:102C40004A61002140F8301F2022427381730269DB
:102C500042F00402026101730120704700207047B6
:102C60002DE9F84F0446C06A1E4693460D4621687A
:102C70000A6842F480620A60082807D0012805D05B
:102C800010F5803F02D0206B112804D12068016824
:102C900041F4807101604FF001195B460022494602
:102CA0002046009600F0C6F84FF4007840B1206846
:102CB0000068C00501D5C4F840800320BDE8F88F46
:102CC0002069DFF884A0B0F5804F0FD0062021687E
:102CD00000EAD51747F0F000086133465A460AF17A
:102CE0000601204600F0DAF858BB03E0E8B240F0F5
:102CF00001001CE02168E8B2086133465A4651469B
:102D0000204600F0CBF8E0B9206841698169009164
:102D1000016841F4807101605B460022494620460B
:102D2000009600F087F80028C1D147F0F100216833
:102D3000086133465A465146204600F0AFF8002855
:102D4000BCD00120BAE7000002000100F8B504463B
:102D5000C06A1E460D461746082807D0012805D030
:102D600010F5803F02D0206B122804D12068016842
:102D700041F480710160134600224FF0011120469A
:102D8000009600F057F840B120680068C00502D5F1
:102D90004FF4007020640320F8BD2069B0F5804F27
:102DA0000ED00620216800EAD51040F0F00008613E
:102DB00033463A460B49204600F070F878B902E0F5
:102DC00005F0FE0000E0E8B22168086105493346DD
:102DD0003A46891F204600F061F80028DCD0012027
:102DE000F8BD00000800010070B516460D46044607
:102DF0000DE02046FFF71DFF08B1012070BD681CE3
:102E000005D0FDF7FBFF801BA84207D835B120682D
:102E10004069C0434007ECD4002070BD002044F856
:102E2000300F20216173A073216941F020012161DD
:102E30002073E2E72DE9F0471E4690460D46044612
:102E4000C1F30747DDF8209008E0701C06D0FDF7BD
:102E5000D5FFA0EB0900B0420FD876B12068012F52
:102E600018D0806925EA00000004000C14D000216D
:102E70004145EAD00020BDE8F087002044F8300F3B
:102E800020216173A073216941F020012161207329
:102E90000120F0E74069E5E70121E9E72DE9F04786
:102EA0009A4691460E46044600254FF02008C1F38D
:102EB000074725E020684069C043400514D42068D6
:102EC000016841F40071016021686FF4806048611D
:102ED000256384F83D8084F83E50206C40F0040067
:102EE000206484F83C501FE0B9F1FF3F08D0FDF7A3
:102EF00085FFA0EB0A0149450CD8B9F1000F09D0B4
:102F00002068012F13D0806926EA00000004000C1D
:102F10000BD0CFE744F8305F84F80D80A5732069AB
:102F200040F02000206125730120BDE8F087406952
:102F3000EAE72DE9F041002590460E460446202799
:102F400017E04069C043C0060CD454F8301B6FF042
:102F50001000486144F810596777A577206A20620D
:102F6000257717E0FDF74AFFA0EB0800B04208D82C
:102F70003EB120684169C9434906E2D40020BDE85A
:102F8000F08144F8305F6773A573206940F020003A
:102F9000206125730120F2E770B516460D46044600
:102FA0000DE02046FFF745FE08B1012070BD681C0A
:102FB00005D0FDF723FF801BA84207D835B1206854
:102FC0004069C0430006ECD4002070BD002044F8E6
:102FD000300F20216173A073216941F0200121612C
:102FE0002073E2E77FB582B01D46064664240146A1
:102FF000012303AA09480094FEF7BAF810B1012092
:1030000006B070BD012301AA314604480094FDF7C3
:10301000BFFF9DF8040028700020F1E7881700200A
:103020002DE9F04792462DED0A8B89468046B0EE99
:10303000439AF0EE62BAB0EE42CAB0EE61BAF0EE78
:1030400041AAB0EE60AAB0EE408AFE4CF0EE008AD3
:10305000FD4FD4ED010AD4ED031A94ED000A94ED6E
:10306000021A20EEA12AF7EE009A00EE412A20EE85
:10307000200A01EE210A22EE282A87ED002A20EEFE
:10308000280A87ED010A20EEA00AF0EE690A01EE97
:10309000010A40EE680A2CEE0C0A0BEEAB0AC7EDF3
:1030A000020A09EE090A07F063FEA4F1180686ED8C
:1030B000030ADFEDE60AB5EEC0CA28EE203AF2EECA
:1030C000040A23EE201AD6ED050A70EE601A41EECE
:1030D000210AF1EE10FAC6ED050A02DDF0EE4C0A07
:1030E00001E0F1EE4C0A10EE901AD74DD8480C359D
:1030F00081427CDAF5EEC0BAF1EE10FA02DDF0EEB4
:103100006B0A01E0F1EE6B0A10EE901A814276DA5A
:10311000B5EEC09AF1EE10FA02DDF0EE490A01E0D8
:10312000F1EE490A10EE901A814268DACCEE001AEC
:1031300010EE100AC7490844C74988428BEE802A1E
:1031400089EE001A26D2D7ED020A20EE820A97ED08
:10315000012A01EE420A85ED030A97ED002A22EECC
:10316000011A01EEE01A85ED041AD5ED060A30EEDB
:10317000600A43EE000AC5ED060A95ED070A31EE36
:10318000401A03EE010A85ED070AC5ED000A00BFEB
:1031900085ED010A95ED090A95ED001ADFEDAF0AFC
:1031A000AF4821EE201A21EE281A01EE080A85ED1B
:1031B000090A95ED011AD5ED0A2A10EE102A21EE22
:1031C000201A21EE281A41EE082AC5ED0A2A95EDAB
:1031D000021A95ED0B2A61EE200A60EEA80A00EEB5
:1031E000882A85ED0B2A9FED9F1A9F4900E006E093
:1031F000DFED9E0A824207D9B0EE410A0AE09FED58
:103200009C0A85ED000AC3E710EE102A8A4201DD10
:10321000B0EE600A12EE902A85ED090A824202D9C8
:10322000F0EE412A05E012EE902A8A4201DDF0EE2E
:10323000602A12EE102AC5ED0A2A824202D9B0EEA7
:10324000412A05E012EE100A884201DDB0EE602A44
:1032500085ED0B2A96ED010AD6ED020A307830EEA4
:10326000600AE8B302F0DAFB10EE100A81498842E6
:1032700002D9BBEE040A17E096ED010AD6ED020A68
:1032800030EE600A02F0CAFB10EE100A7A4988425A
:1032900002DDB3EE040A07E096ED010AD6ED020A5C
:1032A00030EE600A02F0BAFBDFED740A744920EEDA
:1032B000202AD7ED020A10EE900A9FED720ADFED88
:1032C000722A884229DD95ED001AD5ED091A31EEF2
:1032D000211AD7ED001A01EEC2AA21EE001A00E071
:1032E00016E00AEE221A00EEC2BA85ED0C1A95ED30
:1032F000011AD5ED0A1A31EE211A21EE000A97EDD6
:10330000011A41EE42AA0AEEA20A85ED0D0A1CE05E
:1033100002F084FBDFED5D0AC8E7D5ED000A95ED0C
:10332000091A70EE810A60EE800A4AEE220AC5EDA3
:103330000C0AD5ED010A95ED0A1A70EE810A20EE0D
:10334000800A0AEEA20A85ED0D0A2BEE220A85ED0F
:103350000E0AD4ED010AD5ED0C2A94ED021A95ED72
:103360000D2A60EEE23AD4ED031AB0EE403A94ED45
:10337000000A41EE423A41EEC33A03EE880A60EE9B
:10338000223A41EE033A41EEC23A43EE880A60EE39
:10339000023A40EEC33A20EE033A00EE823A41EEA2
:1033A000A23A03EE881A01EE623A43EE081A84EC60
:1033B000040A20EE000A00EEA00A01EE010A01EE66
:1033C000A10A07F0D5FC86ED040AD4ED000AB0EEA0
:1033D000698AC0EE801AC4ED001AD4ED010A80EEAD
:1033E000801A84ED011AD4ED020A80EE802A84ED61
:1033F000022AD4ED030AC0EE802A21EE010AF0EE83
:10340000480A02EE020A40EE680A21EE810AC4ED83
:10341000032A02EE220A20EE280A06F083FB9FED23
:103420001C9A20EE090A88ED000A94ED010AD4EDF9
:10343000030A94ED021A20EE200AD4ED000A00EEF1
:10344000C10A27E02400002018080020C3F5C84066
:1034500000808945FF7F92BAFFFF1B00CDCCCC3D99
:1034600034FA0EBD34FA0EBD34FA0E3D34FA0E3D78
:10347000000000000000A0C10000A041EC51383E57
:103480003333333F9A99193F34FA8E3C6766663F6F
:103490003333654220EE280A10EE100AFDF7A9F832
:1034A00041EC100B04F040FE9FED151B51EC100B8E
:1034B00053EC112BFCF78CFFFDF7DEF8C9F8000088
:1034C00094ED001A94ED010AF0EE480A61EE011A3B
:1034D00040EE001A51EEA80AD4ED021A20EE210A9D
:1034E000D4ED031A01EE610A20EE280A06F01AFB59
:1034F00020EE090A8AED000ABDEC0A8BBDE8F087D0
:103500000000006066A64C40114810B5026886B005
:10351000002142F00202026000680E4C00F002003E
:1035200005904FF49870CDE900010320039001202D
:10353000029069462046FDF757FB60150090022077
:10354000029069462046FDF74FFB06B010BD000013
:1035500030380240000402402DE9F0410126374D89
:103560003702374C4FF4007801281DD02878A0B1DD
:1035700020212046FDF730FCC0B110212046FDF788
:103580002BFC98B139462046FDF726FC70B1414628
:103590002046FDF721FC012808D020212046FDF718
:1035A0001BFC012835D046E02E70E1E725A004F091
:1035B0005DFD0A20FDF706FB002028702021204633
:1035C000FDF70AFC80B110212046FDF705FC88B10B
:1035D00039462046FDF700FC88B141462046FDF7FC
:1035E000FBFB012810D026E01AA004F03FFD0120CB
:1035F000BDE8F0811BA004F039FD0220F8E71DA012
:1036000004F034FD0320F3E71EA004F02FFD042096
:10361000EEE710212046FDF7DFFB01280BD13946EC
:103620002046FDF7D9FB012805D141462046FDF78C
:10363000D3FB00B92E700020DAE700000000002064
:1036400000040240204B45595F5363616E200D0A10
:10365000000000004B4559315F50524553200D0A80
:10366000000000004B4559325F50524553200D0A6F
:10367000000000004B4559335F50524553200D0A5E
:10368000000000004B4559345F50524553200D0A4D
:103690000000000004210148FDF7A3BB0010024018
:1036A00010B5094C002204212046FDF7A2FB64203E
:1036B000FDF788FA012204212046FDF79AFBBDE8B8
:1036C00010406420FDF77EBA001002400821014836
:1036D000FDF787BB0010024010210148FDF781BBB8
:1036E00000100240012204210148FDF782BB0000C6
:1036F00000100240012208210148FDF77ABB0000BA
:1037000000100240012210210148FDF772BB0000A9
:1037100000100240044908B50A6802430A600968BB
:103720000140009108BD000030380240044908B54E
:103730000A6802430A6009680140009108BD000060
:1037400040380240F0B50A680F2692FAA2F2B2FAA7
:1037500082F303248AE001279F4015EA07027DD007
:103760004D68012D01D0022D1BD18D68876892FA1A
:10377000A2FCBCFA8CFC4FEA4C0C04FA0CFC27EAC5
:103780000C0792FAA2FCBCFA8CFC4FEA4C0C05FA2E
:103790000CF52F438760CD684768554397432F4307
:1037A00047600F69D0F80CC092FAA2F5B5FA85F51A
:1037B0004FEA450E04FA0EF52CEA050C92FAA2F532
:1037C000B5FA85F56D00AF404CEA070CC0F80CC0A7
:1037D0004D68022D33D192FAA2F5B5FA85F5082D80
:1037E00015D2D1F814C0056A92FAA2F7B7FA87F792
:1037F000BF0006FA07F7BD4392FAA2F7B7FA87F7B8
:10380000BF000CFA07FC45EA0C05056217E0D1F889
:1038100014E0476A150A95FAA5FCBCFA8CFC4FEA3D
:103820008C0C06FA0CFC95FAA5F5B5FA85F5AD00F9
:1038300027EA0C070EFA05FE47EA0E0747624D68B5
:10384000076892FAA2FCBCFA8CFC4FEA4C0C04FA12
:103850000CFE27EA0E0792FAA2F200E005E0B2FAA7
:1038600082F2520095402F4307605B1C0A681546A0
:10387000DA407FF470AF0020F0BD10B5044601F0CF
:10388000F9FA206001F0CCFA606001F0D7FAA0608C
:10389000606801F0E1FAE06010BD016921F4904137
:1038A0000161416921F02A014161704710F10C006A
:1038B00050E8001F21F0200140E80012002AF7D153
:1038C000704700007FB50446C0680D460126C0F36E
:1038D0004030C0BBE9686868AA6908432969114398
:1038E0000843E16849F20C6291430843E060A8682C
:1038F000216921F44051014321616869616921F422
:103900004071014361616846FFF7B7FF0F48844289
:1039100008D00F4884420DD00E4884420AD00E4889
:10392000844201D1039906E00C48844202D00C483D
:10393000844208D1029931B12B6823B10026204678
:10394000AA6900F00FF804B0304670BD00100140C5
:10395000004400400048004000140140004C00407A
:10396000005000402DE9F04106461920A1FB00015E
:103970001F46002364243225B2F5004F27D0BB0F29
:10398000BA00FCF71DFC0146B0FBF4F06FF0180222
:10399000504301EB800005EB0010B0FBF4F000F0A9
:1039A000F002B1FBF4F002EB0012B1FBF4F06FF0A7
:1039B0001803584301EB800005EB0010B0FBF4F056
:1039C00000F00F00104480B2B060BDE8F081FA1939
:1039D0005B41FCF7F5FB0146B0FBF4F00201B1FBE3
:1039E000F4F06FF01803584301EB800005EBC000C2
:1039F000B0FBF4F000F0F80002EB4002B1FBF4F091
:103A0000584301EB800005EBC000B0FBF4F000F080
:103A10000700D7E72DE9F0470F462E499946CB6CB2
:103A2000984202D10B6D9F4251D0C1E91307861A0B
:103A3000A7EB0905C6F1000401D4334600E0234694
:103A40008846896A8B4210DB310000D52146232944
:103A500001DA012300E0002301461F4800F098FF2F
:103A6000D8F808201044C8F83C00002E00DA26469A
:103A7000D8F828108E4203DAD8F80800C8F83C00BD
:103A8000A7EB09022800C2F1000400D520468842B5
:103A900012DB280000D52046232801DA012300E0AC
:103AA00000230D484A463946203800F071FFD8F807
:103AB00004100844C8F83800002D00DA2546D8F86C
:103AC0002800854203DAD8F80400C8F83800BDE8B9
:103AD000F08700004004002080080020F0B5164C5C
:103AE0000E461F46616C884202D1A16C8E4221D0E5
:103AF000C4E91106811AA6EB070500D54942192928
:103B000006DB01460D4801F04BF8A168084400E0CF
:103B1000A0686063002D00DA6D42192D08DB0748AC
:103B20003A463146203001F03BF86168084400E035
:103B300060682063F0BD000040040020E008002021
:103B40002DE9F0475148DFF8488101460378B1F983
:103B500064201C394FF032094FF0000A012B48D184
:103B6000B8F804305B1C9FB2A8F80470B0F90240AA
:103B70000B681E190E60B0F904404B681D194D60AA
:103B8000B0F906408B68322F2344A3F580538B6035
:103B90008C6914448C612CD34F46B6FBF7F600EECB
:103BA000106AB5FBF7F5B8EE400AB3FBF9F380ED08
:103BB0000D0A00EE105AB8EE400A80ED0E0A00EE33
:103BC000103AB4FBF9F3B8EE400A80ED0F0A00EEAC
:103BD000103AB8EE400A80ED160AA8F804A080F862
:103BE00000A0C1F818A0C1F808A0C1F804A0C1F84D
:103BF00000A04778002F46D0B8F806305B1C9EB274
:103C0000A8F80660B0F908400B69322E1C440C611C
:103C1000B0F90A50CB682B44CB60B0F90CC04D69A9
:103C200065444D61D1F818C062448A612BD300EE1F
:103C3000104AB2FBF9F2F8EE400A9FED160A012F86
:103C400080EE801A00EE903AF8EE600A80ED101ACD
:103C500080EE801A00EE905AF8EE600A80ED111A9C
:103C600080EE801A00EE102A5246B8EE400A80ED2F
:103C7000121A80ED160AA8F806A000D142708A61D7
:103C80004A61CA600A61BDE8F0870000C8060020EA
:103C90000200002000004842F0B51C212DED028BEF
:103CA00087B0B0EE408A6846FCF7D4FAFFF748FFC9
:103CB0009C48A0F17003018849BA0DB25D8041882B
:103CC00049BA0CB29C80818849BA0AB2DA8001896B
:103CD00049BA0FB21F81418900EE907A49BA09B200
:103CE0005981868900EE101A76BA36B29E81C08854
:103CF000F8EEE02A40BAB8EEC02A00B200EE106A30
:103D000000EE900AA3F86400B8EEC01AF8EEE00ADC
:103D100093ED1A0A70EEC00ADFED831A68EE211ADD
:103D200001EEA00A83ED1A0ADFED801AC0EE210A27
:103D30009FED7F0A7F4830EE800A83ED1B0A0178F1
:103D4000491CC9B201700A2905D94FF00001017060
:103D50004FF0010105E002D14FF0000101E001F157
:103D6000010100EE105A4170D3ED0D0AB8EEC00A01
:103D70006C4901F1A80130EE600A00EE904A81ED35
:103D8000000AF8EEE00AD3ED0E1ABDEEC00A30EEDE
:103D9000E13A00EE902A10EE102A81ED013AF8EE99
:103DA000E00AD3ED0F1ABDEEC30A70EEE11AC1EDC1
:103DB000021AD3ED100A72EEE02AC1ED042AD3ED07
:103DC000110A72EE600AC1ED030A93ED122A31EE78
:103DD000421A81ED051A0078A1F19A0121F810200C
:103DE00010EE102A01EB4000BDEEE10AC28210EE97
:103DF000102ABDEEE20A828510EE102ABDEEE00A1E
:103E0000A0F8582010EE102ABDEEC10AA0F84220FA
:103E100010EE102AA0F86E204FF00000009A31F941
:103E200010402244009201EB4002019CB2F916506E
:103E300000F101002C440194B2F92C50029CC0B254
:103E40002C440294B2F95850049C0A282C4404943F
:103E5000B2F94250039C2C440394B2F96E20059CA5
:103E600022440592DAD39DED000AF2EE041A2D4C9D
:103E7000F8EEC00AC43480EEA10A84ED000ADDED3C
:103E8000010AB8EEE01AC1EE210AC4ED010A9DED67
:103E9000021AB8EEC12A82EE211A84ED021A9DEDB3
:103EA000042AB8EEC22AC2EE212AC4ED042A9DEDEE
:103EB000032AB8EEC22AC2EE212A02EE102AA4F585
:103EC0008E72111FB8EEC22A081FC4ED032AC2EE7B
:103ED000212AC4ED052A01F0B9FDA4F58872111F4D
:103EE00094ED051AD4ED030A94ED040A081F01F0BD
:103EF000ADFDD3ED070A9FED100A60EE800AC3ED19
:103F00000A0AD3ED080A60EE800AC3ED0B0AD3ED6E
:103F1000090A20EE800A83ED0C0A07B0BDEC028B83
:103F2000F0BD000038070020C3F5C8400000AA43D8
:103F3000000012420200002098FA793D0E223B2137
:103F4000014B6820FFF74EB8380700202DE9F043F9
:103F500087B014216846FCF77DF9444800240168C5
:103F600041F010010160016801F010010591016844
:103F700041F080010160016801F080010591016854
:103F800041F004010160016801F00401059101683C
:103F900041F001010160016801F001010591016832
:103FA00041F002010160016801F002010591016820
:103FB00041F00801016000682D4E00F008000590F6
:103FC00000221C213046FCF714FF2A4F00220B214F
:103FD0003846FCF70EFFDFF8A08000221021404693
:103FE000FCF707FFDFF8949000224FF44C7148462D
:103FF000FCF7FFFE1C2000900125CDE90154694625
:1040000030460394FCF7F0FD0B200090CDE90154FD
:10401000694638460394FCF7E7FD0420CDE9000427
:10402000694638460294FCF7DFFD1020CDE9000513
:104030000220CDE9020469464046FCF7D5FD4FF465
:104040009870CDE90005CDE9025469464846FCF771
:10405000CBFD68020090CDE90154694648460394BF
:10406000FCF7C2FD07B0BDE8F08300003038024025
:10407000001002400008024000000240000402401C
:104080000D4810B50B4901600C49416000214FF407
:1040900080428160C0E9031241618161C1610162B6
:1040A000FCF7B2FE002803D0BDE81040FCF772BD5B
:1040B00010BD00000054004034170020A08601000D
:1040C0000D4810B50B4901600C49416000214FF4C7
:1040D00080428160C0E9031241618161C161016276
:1040E000FCF792FE002803D0BDE81040FCF752BD5B
:1040F00010BD0000005C004088170020A086010071
:104100000C4810B50A490160A7214160002140F226
:10411000E732C0E90212016180218161FDF7BAFC3A
:10412000002803D0BDE81040FCF734BD10BD0000EE
:1041300000440140441900200C4810B50A490160B0
:10414000A7214160002140F2E732C0E9021201617B
:1041500080218161FDF79EFC002803D0BDE810405E
:10416000FCF718BD10BD0000004801408C1900206C
:104170000C4810B50A49016053214160002140F20A
:10418000E732C0E90212016180218161FDF782FC02
:10419000002803D0BDE81040FCF7FCBC10BD0000B7
:1041A000001C0040D41900200C4810B50A490160D9
:1041B00053214160002140F2E732C0E9021201615F
:1041C00080218161FDF766FC002803D0BDE8104026
:1041D000FCF7E0BC10BD0000002000401C1A0020CD
:1041E00010B58AB000242E480494059406940794D0
:1041F000089409940094019402944FF08041039430
:1042000001601B21C0E901144EF65F21C0E90314CF
:1042100080218161FDF73EFC08B1FCF7BBFC4FF447
:104220008050049004A91E48FDF7CEFD08B1FCF7AC
:10423000B1FC1B48FEF771F908B1FCF7ABFC089420
:1042400008A917480994FDF7DDFB08B1FCF7A2FCAB
:104250000120CDE9004002940022694610480394F1
:10426000FEF7CCF808B1FCF795FC042269460C482F
:10427000FEF7C4F808B1FCF78DFC0822694608482F
:10428000FEF7BCF808B1FCF785FC0C22694604482F
:10429000FEF7B4F8002801D0FCF77CFC0AB010BD92
:1042A000DC17002010B58AB000242F480494059430
:1042B000069407940894099400940194029429495F
:1042C000039401601B21C0E901144EF65F21C0E98F
:1042D000031480218161FDF7DDFB08B1FCF75AFC76
:1042E0004FF48050049004A91F48FDF76DFD08B1FC
:1042F000FCF750FC1C48FEF710F908B1FCF74AFC2B
:10430000089408A918480994FDF77CFB08B1FCF74C
:1043100041FC0120CDE90040029400226946124888
:104320000394FEF76BF808B1FCF734FC04226946ED
:104330000D48FEF763F808B1FCF72CFC082269462B
:104340000948FEF75BF808B1FCF724FC0C2269462B
:104350000548FEF753F8002801D0FCF71BFC0AB013
:1043600010BD0000000400402418002010B58EB0DD
:1043700000240794089409940A940B941C2168461D
:104380000C94FBF767FF2C482A4901601B21C0E908
:1043900001144EF65F21C0E9031480218161FDF70D
:1043A00079FB08B1FCF7F6FB4FF48050079007A9A2
:1043B0002148FDF709FD08B1FCF7ECFB1E48FEF7AC
:1043C00006FB08B1FCF7E6FB0B940BA91A480C940A
:1043D000FDF718FB08B1FCF7DDFB6020009041F20F
:1043E0009410CDE901040022694613480494FEF7B5
:1043F00088FA08B1FCF7CEFB042269460E48FEF7A6
:1044000080FA08B1FCF7C6FB082269460A48FEF7A5
:1044100078FA08B1FCF7BEFB0C2269460648FEF7A5
:1044200070FA08B1FCF7B6FB0348FEF727FA0EB0A6
:1044300010BD0000000800406C18002010B58EB0C0
:1044400000240794089409940A940B941C2168464C
:104450000C94FBF7FFFE2C482A4901601B21C0E9A0
:1044600001144EF65F21C0E9031480218161FDF73C
:1044700011FB08B1FCF78EFB4FF48050079007A9A1
:104480002148FDF7A1FC08B1FCF784FB1E48FEF7AC
:104490009EFA08B1FCF77EFB0B940BA91A480C940A
:1044A000FDF7B0FA08B1FCF775FB6020009041F20F
:1044B0009410CDE901040022694613480494FEF7E4
:1044C00020FA08B1FCF766FB042269460E48FEF7A5
:1044D00018FA08B1FCF75EFB082269460A48FEF7A5
:1044E00010FA08B1FCF756FB0C2269460648FEF7A5
:1044F00008FA08B1FCF74EFB0348FEF7BFF90EB00F
:1045000010BD0000000C0040B41800201CB50024B1
:104510000F4800940D49019401605321C0E9011432
:1045200040F2E731C16080218161FDF7B3FA08B143
:10453000FCF730FB0094694605480194FDF762FAE8
:10454000002801D0FCF726FB1CBD00000014004031
:10455000FC180020F0B58DB01C2106A8FBF77AFEF0
:1045600018216846FBF776FE4FF48010FFF7DEF85F
:104570000420FFF7CFF80820FFF7CCF84FF4805065
:1045800002250024CDE9000503260827CDE90264B1
:10459000CDE9044769461948FFF7D4F80420CDE96E
:1045A0000005CDE90264CDE9044769461448FFF7E8
:1045B000C9F803F091FD0022062100F0BCF9014684
:1045C000352003F091FD352003F078FD4FF496403F
:1045D000CDE906040C200894CDE909400B940C9415
:1045E000084C06A92046FFF76DF92046FFF755F95C
:1045F000E06840F40050E0600DB0F0BD00080240FB
:10460000000C02400050004010B58EB01C216846DE
:10461000FBF720FE182107A8FBF71CFE20480168C5
:1046200041F010010160006800F010000D900120C1
:10463000FFF770F84FF4C060079002200890032045
:104640000024CDE909040720CDE90B4007A915484E
:10465000FFF778F803F040FD0022052100F06BF928
:104660000146252003F040FD252003F027FD4FF4EF
:10467000E130CDE900040C200294CDE9034005941B
:104680000694094C69462046FFF71CF92046FFF7BF
:1046900004F9E06840F40050E0600EB010BD000086
:1046A00044380240000002400010014010B58EB0B6
:1046B0001C216846FBF7CEFD182107A8FBF7CAFDB1
:1046C0004FF40030FFF732F80820FFF723F860209E
:1046D00007900220089003200024CDE90904072058
:1046E000CDE90B4007A91448FFF72CF803F0F4FCC0
:1046F0000022042100F01FF90146262003F0F4FCFB
:10470000262003F0DBFC4FF4E130CDE900040C205F
:104710000294CDE9034005940694084C694620466E
:10472000FFF7D0F82046FFF7B8F8E06840F40050F3
:10473000E0600EB010BD0000000C024000440040DC
:1047400010B58EB01C216846FBF784FD182107A820
:10475000FBF780FD4FF48020FEF7E8FF0820FEF70E
:10476000D9FF4FF4407007900220089003200024E6
:10477000CDE909040720CDE90B4007A91348FEF74E
:10478000E1FF03F0A9FC0022072100F0D4F8014664
:10479000272003F0A9FC272003F090FC4FF4E13020
:1047A000CDE900040C200294CDE903400594069461
:1047B000074C69462046FFF785F82046FFF76DF85D
:1047C000E06840F40050E0600EB010BD000C024004
:1047D00000480040FEE70000F8B514682B4D041BAC
:1047E00050686443081A00FB0040294EB0F5C86FBA
:1047F00040DC284C082B15D0274F387890B9D8B218
:1048000007F14402012100F006FA042207F14401F5
:104810002248FCF7F1F8002020826082A082E0822A
:10482000012038709FED1E0AE38AA28A618A208ADD
:10483000F0EE400AFFF7EEF81A4C1B4F206800908C
:104840003B682A681948316803F010FCB7EE000A8B
:1048500039683068FCF7A0F980B200F0EDFCB7EEE3
:10486000000A21682868FCF797F9BDE8F84080B293
:1048700000F0DCBC2A680EA0316803F0F7FB30883A
:1048800080B200F0D9FC2888EFE700007004002017
:104890007404002020090020D804002000440040B7
:1048A00000000000780400207C04002020B90008EB
:1048B0003270776D5F726F6C6C5F6F75743A2564E0
:1048C0002070776D5F70697463685F6F75743A25E7
:1048D000640D0A0010B5064C012211462046FCF773
:1048E00088FA20460022BDE810400221FCF781BA78
:1048F0000008024010B5064C002201212046FCF7BA
:1049000078FA20460122BDE810400221FCF771BA76
:104910000008024010B5064C002201212046FCF799
:1049200068FA20460022BDE810400221FCF761BA77
:1049300000080240FEE730B500F00703C3F10704AA
:10494000042C00D90424181D072801D2002300E0FC
:10495000DB1E012505FA04F0401E084098409D40EA
:104960006D1E1540284330BD10B5C0B2064A012166
:1049700000F051F9042204490448FCF73DF80249CB
:1049800001204439087010BD1C050020004400407F
:104990002DE9F041154604461E460F46481B00D53A
:1049A00040425F2802DD9FED350B01E09FED350BA6
:1049B00051EC100BFBF760FE00EE105A00EE900A6F
:1049C0003248B8EEC01A00EE107AC0ED100A6560E9
:1049D000B8EEC00A30EE410A84ED060A94ED071ADB
:1049E00031EE001A84ED071AD4ED051A84ED050A9C
:1049F00094ED032A70EE611A216822EE011A94EDFB
:104A0000022A484202EE001A94ED040A00EE211A2E
:104A100021EE200A00EE900AF8EEE00AF4EEC00A59
:104A2000F1EE10FA02D2B0EE401A03E000EE900A66
:104A3000B8EEE01A00EE901AF8EEE00AB4EEE01AD2
:104A4000F1EE10FA17D200EE900AF8EEE00AF4EE5A
:104A5000C00AF1EE10FA03D300EE100AB8EEC00A55
:104A60001EB1F6EE000A20EE200ABDEEC00A10EEDE
:104A7000100ABDE8F08100EE101AEFE7333333334C
:104A80003333F33F000000000000F03F40040020FB
:104A900039494FF4FA73DFED390A0B609FED380A9C
:104AA00001F12000C1ED020A9FED361A80ED030AE4
:104AB00081ED041A70224A6081ED050A81ED060A33
:104AC00081ED070A0360C0ED020A80ED041A42601E
:104AD00080ED050A80ED060A80ED070A2030D2211C
:104AE000DFED290A0160C0ED020A9FED281A80ED72
:104AF000030A80ED041A426080ED050A80ED060A83
:104B000080ED070A20300160C0ED020A80ED030A43
:104B100080ED041A426080ED050A80ED060A80ED02
:104B2000070A2030EB21DFED1A0A0160C0ED020A0E
:104B3000DFED180A80ED030AC0ED040A80ED010ADA
:104B400080ED050A80ED060A80ED070A2030DFEDD2
:104B5000120A0160C0ED020ADFED100A80ED030ABF
:104B6000C0ED040A80ED010A80ED050A80ED060A19
:104B700080ED070A704700006008002033331340BF
:104B8000000000003333333F33333340CDCC4C3F50
:104B90000AD78B406666C63F0AD78BC06666C6BF1B
:104BA00000EE102A00EE901AB8EEC00AF8EEE00A05
:104BB00080ED010A30EEC00ABDEEC00AF8EEC00A70
:104BC000C0ED060A90ED051A70EEC10AB8EEC01AE3
:104BD000B8EEC00AFDEEE00A80ED051A90ED021A6B
:104BE0000268F8EEE00A21EE000A90ED041A504245
:104BF00001EE200ABDEEC00A10EE101A884201DA5A
:104C00000B4600E00346934203DA884200DA084686
:104C1000704710467047FE23137050709170FD204E
:104C2000D07070472DE9F04107462DED048B1446F6
:104C30000E4690ED000A9FED1D8A20EE080A10EE48
:104C4000100AFBF7D6FC9FED1A9B53EC192BFBF7D0
:104C5000BFFBFBF7AFFC97ED010A054620EE080A03
:104C600010EE100AFBF7C5FC53EC192BFBF7B0FB59
:104C7000FBF7A0FCFE22227004226270A5702A0AB3
:104C80004042E2702071000A002160710220225C23
:104C9000401C1144C9B20628F9DBA171E671AA20B3
:104CA0002072BDEC048BBDE8F08100000000C8421A
:104CB000E17A14AE47E1E63F7047000010B51348B3
:104CC00003F0D4F912A003F0D1F916A003F0CEF945
:104CD00023A003F0CBF92DA003F0C8F9354803F069
:104CE000C5F9354803F0C2F9344803F0BFF9344838
:104CF00003F0BCF933A003F0B9F942A003F0B6F910
:104D0000BDE81040014803F0B1B9000018BA00082E
:104D10002020E68EA5E7BABFE696B9E6B3953A201D
:104D20000D0A00002A2AE6A2A6E5889BE794B5E5CD
:104D3000AD90E59B9BE6978BE7BFBCE9A39EE8A1FE
:104D40008CE599A8E5AEA4E58685E887AAE58AA85A
:104D5000E9A39EE8A18C2A2A2A2A0D0A0000000055
:104D600020202B3556202020202020203C2D2D2DAA
:104D70002D2D2D202020352E3056202020202020A3
:104D80003556E4BE9BE794B50D0A00002020474E3F
:104D900044202020202020202D2D2D2D2D2D2D2094
:104DA0002020474E4420202020202020E59CB05C7D
:104DB000720A0000ACBA0008C0B9000874B9000853
:104DC0005CBA0008202050413020202020202020E4
:104DD0002D2D2D2D2D2D3E2020204144435F434875
:104DE00031202020E6A8A1E68B9FE8B685E5A3B098
:104DF000E6B3A2E9AB98E5BAA6E6B58BE9878F5C86
:104E0000720A00002020E68993E58DB0E98787E9E2
:104E10009B86E695B0E68DAE3A200D0A00000000B4
:104E200004490968044A01F0F0010909515CC840CD
:104E30007047000008380240B0B70008044909680C
:104E4000044A01F4E05102EB91210978C84070470F
:104E500008380240C0B7000804490968044A01F450
:104E6000604102EB51310978C84070470838024070
:104E7000C0B700080748006810F00C01064807D0CA
:104E8000042904D0082903D1082000F009B80348F8
:104E900070470000083802400024F40000127A0035
:104EA00010B5104A04460020116811F480030E4921
:104EB00003D0B3F5800F00D14910082C11D1106830
:104EC00000F03F00B1FBF0F01168C1F388114843D6
:104ED0001168012201F4403102EB11414900B0FB9D
:104EE000F1F010BD043802400024F4000E490E48D1
:104EF00080310A46006C0B6A526A984203DB90428A
:104F000001DC01207047904204DB8A6A904201DC98
:104F1000022070478A6A904204DBC96A884201DC39
:104F20000320704700207047600500200F4810499B
:104F3000008880B208600F48091F008880B20860AE
:104F40000D48091F008880B208600C48091F0088BE
:104F500080B208600A480B49008880B208600A489D
:104F6000091D008880B2086070470000DC05002041
:104F7000400C0040D0050020C4050020B8050020EA
:104F8000AC05002034080040A0050020704710B593
:104F90000C46FBF731FD002020606060207210BDE0
:104FA00010B5002421B1012907D0241F204610BDCF
:104FB000C2F38F3102F091FEF8E7C2F34F2102F005
:104FC00087FEF3E72DE9F04188B098460C46074686
:104FD00003291BD0082C19D0202621A0012A006803
:104FE000009020A0006801901FA0006802900FD0E0
:104FF000022A0FD00220032910D004290CD0082C3B
:105000000ED06FF0070008B0BDE8F0814026E4E75D
:105010000020F0E70120EEE7694602E001A900E088
:1050200002A904AB0D5C06A905A8CDE9000103AAFD
:105030002946384601F061FB0028E4D1DDE905127C
:105040008DE80601BDF80C2029463846049B02F085
:1050500049FE0028D7D1BE7087F87C43D3E7000013
:105060000201030007060800242526002DE9FC475D
:1050700006460A9C5868644F206093F83E004FF043
:10508000000900F01F054FF4967041B1072D26D09E
:10509000B3F93C10814204DA4FF4F01006E000202E
:1050A0001EE041F69A1011FB00F080B1198FDFF875
:1050B0005CC101FB0CF101EB5001B1FBF0F000040D
:1050C000B84201D8381A04E04FF4481001E04FF418
:1050D000C800C0F3074064281AD8322800D832200C
:1050E0006071988D00274002A060188E4002E06039
:1050F000188A2082188F40026061988F2083A776DB
:10510000032A19D006DC012A16D0022A06D113E0A0
:105110006420E5E70D2A11D0112A0DD0281FE7766B
:1051200010283AD2DFE800F02D2B2F3135373939EE
:105130003339393939392729052000E00D20E07647
:10514000188F01AA4002C6F89003988D00214002F2
:10515000C6F89403304600F079FD062D1FD00020DC
:1051600080466A460021304600F063FD9DF800004D
:10517000012816D01AE00A20E1E70620DFE7042024
:10518000DDE70220DBE70120D9E70720D7E7092088
:10519000D5E70320D3E70020D1E7FF20CFE70120A8
:1051A000DEE7B8F1000F01D0012000E0002086F812
:1051B000860301AA0121304600F048FD042D0AD0E3
:1051C00000256A460121304600F033FD9DF80000BD
:1051D000012802D004E00125F3E70DB1012000E031
:1051E000002086F88703B4F91800E17E49B9002849
:1051F00007DA07494968814202DD0E20E07600E0C7
:1052000027834846BDE8FC8733B37500CDCC30001A
:1052100080060020014908607047000038080040FF
:1052200001490860704700003408004001490860E7
:10523000704700003C0C00400149086070470000C6
:10524000380C00400149086070470000400C0040E5
:105250000149086070470000340C0040FCF792B828
:1052600030B593B030216846FAF7F4FF14210CA84A
:10527000FAF7F0FF1D480025016841F080510160F8
:10528000006800F0805011901948016841F4804195
:1052900001600068022400F4804011900120009019
:1052A000000401908001CDE9064008AA0420A8214D
:1052B00082E813000B906846FCF7D8F908B172B683
:1052C000FEE70CA90F2081E831004FF4A0500F90A9
:1052D0004FF48050109005210CA8FCF7EDF8002841
:1052E00001D072B6FEE713B030BD00004038024076
:1052F000007000400248016841F47001016070478D
:1053000088ED00E050B1074900200860064A0121FD
:105310001170064908700648FCF7FEBC0448FCF70B
:105320003BBD000024440140E0040020DF040020D5
:105330004419002028B10449002008600348FCF704
:10534000EBBC0248FCF728BD244801408C19002022
:1053500028B10449002008600348FCF7DDBC02487E
:10536000FCF71ABD241C0040D419002028B10449C0
:10537000002048620348FCF7CFBC0248FCF70CBD94
:10538000002000401C1A00200148FDF7C4B90000AD
:105390008C1900200148FDF7BEB900004419002017
:1053A0000148FDF7B8B90000DC1700200148FDF7FF
:1053B000B2B90000241800200148FDF7ACB9000084
:1053C0006C1800200148FDF7A6B90000B4180020B1
:1053D0000148FDF7A0B90000FC1800200148FDF7C6
:1053E0009AB900001C1A00200148FDF794B900008A
:1053F000D4190020F0B50268254C264D264E274FC3
:10540000274B4FF0804CA04209D0604507D0A842FE
:1054100005D0B04203D0B84201D0984204D122F066
:10542000700E4A6842EA0E02A0421BD0604519D0B5
:10543000A84217D0B04215D0B84213D0984211D02C
:10544000184DA8420ED0184DA8420BD0174DA842B7
:1054500008D0174DA84205D0164DA84202D0164DCF
:10546000A84203D122F44075CA682A434D6922F04C
:1054700080022A4302608A68C2620A688262A0428D
:1054800001D0984201D10969016301214161F0BD58
:10549000000001400004004000080040000C0040F3
:1054A0000004014000400140004401400048014028
:1054B00000180040001C00400020004010B501F022
:1054C0001F030121046A99408C430462016A9A40D7
:1054D0001143016210BD10B5846842EA032224F42E
:1054E0007F440A432243826010BD826822F070022A
:1054F0000A4342F00701816070470000F0B5026A7C
:1055000022F001020262036A42688469124E24F0AA
:1055100073050C682C4323F002058B682B430D4D5B
:10552000A84201D0B04205D123F00807CB683B4325
:1055300023F00403A84201D0B04205D14D6922F402
:10554000407215438A692A43426084614968416315
:105550000362F0BD0000014000040140F0B5026AA2
:1055600022F010020262026A436884690D6824F422
:10557000E64444EA05248D6822F0200242EA05123E
:105580000F4D104EA84201D0B04206D1CF6822F094
:10559000800242EA071222F04002A84201D0B04243
:1055A00007D14D6923F4406343EA85038D6943EADB
:1055B000850343608461496881630262F0BD000035
:1055C0000000014000040140F0B5026A22F480723C
:1055D0000262026A4368C46922F4007224F073050F
:1055E0000C68124E2C438D6842EA05220E4DA842EB
:1055F00001D0B04206D1CF6822F4006242EA07220D
:1056000022F48062A84201D0B04207D14D6923F450
:10561000405343EA05138D6943EA05134360C461AF
:105620004968C1630262F0BD00000140000401400E
:1056300030B5026A22F480520262046A4268C36989
:105640000D6823F4E64343EA05238D6824F40054EF
:1056500044EA0534084DA84202D0084DA84204D1BE
:105660004D6922F4804242EA85124260C361496872
:105670000164046230BD00000000014000040140EC
:1056800010B5036A046A24F001040462846924F0FA
:10569000F00444EA021423F00A020A43846102621D
:1056A00010BD000070B5046A24F00104046284692E
:1056B000056A154EB04214D0B0F1804F11D0134E90
:1056C000B0420ED0124EB0420BD0124EB04208D0B3
:1056D000114EB04205D0114EB04202D0104EB04231
:1056E00003D124F00304144301E044F001041A0739
:1056F00024F0F00444EA126225F00A0301F00A01E2
:1057000019438261016270BD000001400004004045
:1057100000080040000C004000040140004001402F
:105720000018004010B5036A23F010030362836978
:10573000046A23F4704343EA023224F0A00343EAEC
:1057400001118261016210BD30B5046A24F01004B9
:1057500004628469056A24F4407444EA022222F453
:1057600070444FF6FF7202EA03322243A02425F070
:10577000A00304EA011119438261016230BD0000F7
:1057800010B52DED088BF0EE408AB0EE608A18EE71
:10579000900A2D4CFAF72DFF9FED2C1B53EC112B8B
:1057A000FAF710FE41EC190B18EE100AFAF721FF78
:1057B00053EC192BFAF748FF02D241F294103EE065
:1057C000B1EE480A80EE288A18EE100AFAF711FFA7
:1057D0009FED209B53EC192BFAF7FAFD41EC100BCF
:1057E00002F052FE9FED1DAB51EC100B53EC1A2B47
:1057F000FAF7EEFD9FED1BBB53EC1B2BFAF741FDB7
:10580000FAF7D8FE014619A002F030FC18EE100A93
:10581000FAF7EFFE53EC192BFAF7DAFD41EC100B17
:1058200002F032FE53EC1A2B51EC100BFAF7D0FDBC
:1058300053EC1B2BFAF725FDFAF7BCFE80B2206073
:10584000BDEC088B10BD0000400C004000000000C3
:1058500000005940000000000000F83F0000000078
:1058600000689040000000000094B14070776D5FC8
:105870007468723A25640D0A000000002DE9F041B9
:105880003B4C3CA0A17902F0F1FBA77901253E4BEE
:105890003E4E3F4A40F2DC5141F6583C41F28830DE
:1058A0000E2F62D2DFE807F030073F15191C1F22C8
:1058B000272C30323F413749188800EB8000098897
:1058C00006EB800050F82110012029E005F034FC9F
:1058D0002FE01088FFF748F82CE0C82101200CE0E9
:1058E0006146012004E003F0CFFC22E06146002085
:1058F00003F0BAFE1DE0C821002004F005FA18E00C
:105900001088FBF7F7F815E00020DFE72249188838
:1059100000EB8000098806EB800050F82110002081
:1059200004F0C0F905E00120D0E70146108805F039
:1059300041FE00B1A5712078A0B118489FED180A6A
:10594000C38A828A418A008AF0EE400AFEF762F832
:105950001448008880B2FFF769FC1348008880B2C1
:10596000FFF764FC0020BDE8F0810120FBE70000A8
:10597000D804002074616B656F6E655F7374617429
:10598000653A25640D0A000068060020680B0020B7
:10599000740500206A0600206C0600202009002003
:1059A00000000000780400207C0400202DE9F04174
:1059B00005460078174F14468846002628B1FBF7A5
:1059C0001DFA3864FEF786FF2E70FBF717FA396C64
:1059D000401A41F65831884209D3207838B9FEF789
:1059E00099FF0C484830012146708170217098F869
:1059F000000038B1FEF77EFF04210748FBF7ECF901
:105A0000012802D00020BDE8F081FEF783FF0120CD
:105A1000F9E70000D80400200008024010EE100A48
:105A20000749DFED080A884202DD30EE600A704760
:105A300010EE100A04498842F9D930EE200A704766
:105A4000000034430000B443000034C380ED000A7A
:105A5000C1ED000A82ED001A70470000014800F015
:105A600015B8000000500040014800F00FB80000D9
:105A700000100140014800F009B800000044004057
:105A8000014800F003B80000004800402DE9F04153
:105A90000168C1F34011002913D0C168C1F340115E
:105AA00000290ED03C4900263C4C884210D1406869
:105AB000A088010405D43A490E6020B140F40040AA
:105AC000A080BDE8F081BDE8F0410120FFF732BCC5
:105AD000324D344B0122803598421DD14068C1B20D
