:020000040800F2
:10000000801E00209D010008CF4A0008B12F000883
:10001000CD4A0008A50B00080D5C00080000000098
:100020000000000000000000000000006151000816
:100030002B0C000800000000154D00082554000896
:10004000B7010008B7010008B7010008B7010008B0
:10005000B7010008B7010008B7010008B7010008A0
:10006000B7010008B7010008B7010008B701000890
:10007000B7010008B7010008B7010008B701000880
:10008000B7010008B7010008B7010008B701000870
:10009000B7010008B7010008B7010008B701000860
:1000A000B70100082D55000821550008B7010008C8
:1000B000395500084555000851550008B70100089A
:1000C000B7010008B7010008B7010008B701000830
:1000D000B7010008395A0008455A0008515A00086B
:1000E000B7010008B7010008B7010008B701000810
:1000F0008155000875550008B7010008B7010008D0
:10010000B7010008B70100085D550008B7010008F5
:10011000B70100082D5A0008B7010008695500080A
:10012000B7010008B7010008B7010008B7010008CF
:10013000B7010008B7010008B7010008B7010008BF
:10014000B7010008B7010008B7010008B7010008AF
:10015000B7010008B7010008B7010008B70100089F
:10016000B7010008B7010008B7010008B70100088F
:10017000B7010008B7010008B7010008000000003F
:10018000B7010008B7010008DFF80CD000F0EEFB63
:10019000004800478D9D0008801E002006488047CB
:1001A00006480047FEE7FEE7FEE7FEE7FEE7FEE75C
:1001B000FEE7FEE7FEE7FEE7BD5400088901000800
:1001C0002DE9F05F0546002092469B46884606468C
:1001D000814640241BE0284641464746224600F01F
:1001E000A6FA53465A46C01A914110D311461846F2
:1001F000224600F08DFA2D1A67EB01084F46224681
:100200000120002100F084FA17EB00094E41201E66
:10021000A4F10104DFDC484631462A464346BDE8E6
:10022000F09F40EA01039B0703D009E008C9121FB1
:1002300008C0042AFAD203E011F8013B00F8013BA0
:10024000521EF9D27047D2B201E000F8012B491ECC
:10025000FBD270470022F6E710B513460A46044663
:100260001946FFF7F0FF204610BD10B5044604E024
:100270000B7800F8013B03B1491C521EF8D220460E
:1002800010BD2DE9FE4F804681EA0300C00F0C46E9
:10029000009021F0004123F00045B8EB0200A94195
:1002A00005D24046214690461C460B46024623F0A6
:1002B0000040104347D0270DC7F30A00C3F30A518B
:1002C0000290401A019040286BDAC3F3130040F407
:1002D000801B0098924620B10023D2EB030A63EB07
:1002E0000B0B01985946C0F14002504600F010FA3D
:1002F00006460D4650465946019A00F028FA10EB82
:1003000008006141002487EA115284EAE7731A4326
:1003100040D0009A62B3019A012A4FEA075215DCD5
:10032000001B61EB02014FF0004202EA0752CDE9E7
:100330000042001C41F5801132462B4600F05FFA66
:1003400003B0BDE8F08F40462146F9E7001B61EBA2
:100350000201001C41F5801300185B412018A2F532
:10036000001747EB030140EAD570B6196D4111E063
:100370006D084FEA360645EAC0754FEA0752001B82
:1003800061EB0201001C41F5801149084FEA300081
:100390000019514132462B4603B0BDE8F04F00F042
:1003A0001FBA0098012240000023D0EB020263EB49
:1003B000E073009821464FEAE074B8EB000061EB6F
:1003C0000401E9E783F000435BE781F0004158E76F
:1003D0002DE9FE4F81EA030404F0004421F00041BE
:1003E00000944FF0000B23F0004350EA01045ED06C
:1003F00052EA03045BD0C3F30A54C1F30A552C44F8
:10040000A4F2F3340194A0FB0254C1F3130141F4AC
:100410008011C3F3130343F4801301FB024400FB78
:10042000034E840A970A44EA815447EA8357A4FB9F
:10043000076802958D0A05FB07854FEA932C04FB9C
:100440000C542705029D4FEA065847EA1637B5EBCC
:1004500008056EEB070C870E920E47EA811742EAF9
:100460008312A7FB0201B6EB0B0164EB00042B0D1A
:1004700043EA0C335E1844EB1C50DA465146E7FB66
:100480000201C5F313044FEA0B3343EA14534FEA56
:100490000432019C43EA0603A4F10C040294009C7C
:1004A000CDE900B400F0ABF903B0BDE8F08F002057
:1004B0000146F9E72DE9F04D81EA030404F0004B11
:1004C00021F0004514464FF0000A23F0004150EAA5
:1004D000050220D054EA01021DD0C5F30A57024696
:1004E000C5F31303C1F31300C1F30A5640F480159A
:1004F00043F48013A7EB0608101BD64608F2FD381C
:1005000073EB050002D308F1010801E092185B418A
:10051000B8F1000F03DA00200146BDE8F08D00209D
:100520004FF48011064684460EE0171B73EB050757
:1005300005D3121B63EB050306434CEA010C490883
:100540004FEA300092185B4150EA0107EDD152EAC0
:10055000030012D082EA040083EA0501084305D0B3
:10056000101BAB4106D20122002306E000224FF00F
:10057000004302E06FF0010253101AEB06004CEB4F
:10058000085110EB0A0041EB0B01BDE8F04D00F003
:1005900027B90EB5C10F80EAE0700844CA070021F0
:1005A00040F233438DE80E000A460B4600F027F96F
:1005B00003B000BD70B5C1F30A5201F0004500243C
:1005C000C1F3130140F2FF3341F480119A4201DA82
:1005D000002070BD40F233439A42A2F2334203DC62
:1005E000524200F0A4F800E090402C43F1D0404289
:1005F00070BDC1F30A5210B5C1F3130140F2FF33CD
:1006000041F480119A4201DA002010BD40F23343D8
:100610009A42A2F2334203DC524200F088F810BD45
:10062000904010BD00F0004230F000400AD0C10DF3
:1006300001F56071C0F3160042EA0151C20840079B
:1006400011437047002001467047000030B5041E7A
:1006500071F1000404DB4FF00044404264EB0101FF
:10066000141E73F1000405DB1C464FF00043524298
:1006700063EB04038B4208BF824230BD30B5041ED9
:1006800071F1000404DB4FF00044404264EB0101CF
:10069000141E73F1000405DB1C464FF00043524268
:1006A00063EB0403994208BF904230BD01F0004360
:1006B00030B421F0004150EA010206D00A0DA2F543
:1006C0006072C1F31301002A02DC30BC00207047C5
:1006D000440F44EAC104C100E01830BC00EBC25032
:1006E00000F047B830B50B46014600202022012417
:1006F00009E021FA02F59D4205D303FA02F5491BF0
:1007000004FA02F52844151EA2F10102F1DC30BD05
:10071000202A04DB203A00FA02F1002070479140C1
:10072000C2F1200320FA03F3194390407047202AB6
:1007300004DB203A21FA02F00021704721FA02F38B
:10074000D040C2F120029140084319467047202A48
:1007500006DBCB17203A41FA02F043EAE07306E0E9
:1007600041FA02F3D040C2F12002914008431946F9
:1007700070470029A8BF7047401C490008BF20F0FF
:100780000100704710B4B0FA80FC00FA0CF050EA97
:10079000010404BF10BC704749B1CCF1200421FA18
:1007A00004F411FA0CF118BF012121430843A3EB13
:1007B0000C01CB1D4FEA00614FEA102042BF002020
:1007C00010BC704700EBC35010440029A4BF10BCFC
:1007D0007047401C490008BF20F0010010BC704762
:1007E00010B5141E73F1000408DA401C41F1000139
:1007F00092185B411A4301D120F0010010BD2DE990
:10080000F04D92469B4611B1B1FA81F202E0B0FA86
:1008100080F220329046FFF77BFF04460F4640EA05
:100820000A0041EA0B0153465A46084313D01146C9
:1008300053EA010019D0C8F140025046FFF777FF94
:1008400005460E46504659464246FFF761FF0843AB
:1008500005D0012004E020463946BDE8F08D002097
:10086000054346EAE0762C4337430A986305E40AD9
:10087000A0EB08000022FD0A44EA47540A3002D5E2
:1008800000200146E9E7010510196941DDE9084545
:1008900000196941BDE8F04DA2E72DE9F04D0023B4
:1008A0001A461B1A8A4103DB00200146BDE8F08D81
:1008B000C1F30A52C1F3130141F480154FF0000B4C
:1008C000D10702D100186D41521E0027044640F2A4
:1008D000FF11384601EB620A3E4680460246002080
:1008E0004FF48011FFF723FFC2197141BB1846EB8B
:1008F0000100B4EB030C75EB000C04D3E41A65EBB8
:10090000000517460E46241908F101006D41804686
:100910003428E3DDF91946EB0600091BA84103D290
:100920004FF0FF32134601E0002213461BEB070095
:1009300046EB0A51BDE8F04DFFF752BFC1F30A5232
:10094000C1F3130140F2FF3341F480119A4202DAFD
:1009500000200146704740F233439A42A2F23342EC
:1009600002DC5242FFF7E3BEFFF7D2BE064C074D52
:1009700006E0E06840F0010394E80700984710346F
:10098000AC42F6D3FFF704FCC0AD0008E0AD0008B0
:1009900070B58C1810F8015B15F0070301D110F841
:1009A000013B2A1106D110F8012B03E010F8016B6E
:1009B00001F8016B5B1EF9D12B0705D40023521EF1
:1009C0000DD401F8013BFAE710F8013BCB1A921C59
:1009D00003E013F8015B01F8015B521EF9D5A14257
:1009E000D8D3002070BD0000464910B54A6822F4F3
:1009F00040324A604A6843681A434A6001684A685C
:100A000022F480724A6001684A68036942EA03225C
:100A10004A6001684A6822F040724A6001684A6888
:100A200083681A434A6001688A6822F400628A6017
:100A300001688A68C3681A438A60816A6FF07062CD
:100A4000D14201688A6822F070628A6001688A680F
:100A50000CD0836A1A438A6001688A6822F0405287
:100A60008A6001688A68C36A1A4301E022F0405232
:100A70008A6001688A6822F002028A6001688A68D6
:100A8000037E42EA43028A6090F820100029016840
:100A90004A680FD042F400624A6001684A6822F452
:100AA00060424A6001684A68174C436A04EB43336A
:100AB0001A4301E022F400624A600168CA6A22F423
:100AC0007002CA620168CA6A838B104C04EB03533C
:100AD0001A43CA6201688A6822F400728A60016857
:100AE0008A6890F8303042EA43228A6001688A6856
:100AF00022F480628A6001688A68406942EA802044
:100B0000886010BD0023014000E0FFFF0000F0FFFF
:100B100000221021014800F05ABB000000000240F2
:100B200001221021014800F052BB000000000240E9
:100B300010B500230DE00468C4F3C014002CFAD0F3
:100B400011F8014B44600468C4F38014002CFAD0FF
:100B50005B1C9342EFD310BD0268C2F3C012002A9F
:100B6000FAD041600168C1F380110029FAD07047C2
:100B700008B502C8009150F8081B009150E8001F0A
:100B800041F0200140E80012002AF7D108BD000022
:100B9000034941F294100860091D08607047000085
:100BA000380C0040FEE77FB5044603A905F042FF7C
:100BB00094F87C6394F87F53002834D16B4601AAE3
:100BC00002A9204605F025FE00282CD1204607F07A
:100BD000C7F9002827D14FF4FA71204605F05DFAD5
:100BE000002820D12A4631462046636904F0D4FA11
:100BF000002818D1DDE901212046009B07F07AF991
:100C0000002810D10098206103A9204607F08DF933
:100C1000002808D1A1780622204606F00AFC002808
:100C200001D184F87E5304B070BD704770B50025C3
:100C3000184C0126322000F0B3F902F0EBFE02F06E
:100C400005FF02F009FFFFF76BFF642000F0A8F931
:100C5000FFF75EFF267002F019FF02F00FFF02F0AF
:100C600003FF6D1C022DE5DBA08D0B4980B20860EF
:100C7000A088091F80B208602089091F80B208601F
:100C8000A08A091F80B20860208C044980B20860E5
:100C900070BD000040040020400C004034080040BB
:100CA00072B6FEE778B50024009490F83C20012A43
:100CB00019D0012280F83C200A6807230568092A18
:100CC00013D9EE680A3A02EB420293409E43EE606B
:100CD0000B788A680A3B03EB43039A400368DD689C
:100CE0002A43DA6010E0022078BD2E6902EB42024E
:100CF00093409E432E610B788A6803EB43039A402E
:100D000003681D692A431A614A681F23072A13D200
:100D100005686E6B521E02EB820293409E436E6327
:100D20000B790A885B1E92B203EB83039A40036837
:100D30005D6B2A435A6327E005680D2A12D22E6B99
:100D4000D21F02EB820293409E432E630B790A88E6
:100D5000DB1F92B203EB83039A4003681D6B2A43A7
:100D60001A6311E0EE6A0D3A02EB820293409E4351
:100D7000EE620B790A880D3B92B203EB83039A4033
:100D80000368DD6A2A43DA62164B0568144A9D42FD
:100D900006D10D68122D03D1556845F480055560C4
:100DA00005689D4218D10B68102B01D0112B13D16F
:100DB000536843F400035360096810290CD10A49B1
:100DC0000A4A0968B1FBF2F101EB8101490000E038
:100DD000491E00910029FBD180F83C40002078BDDD
:100DE0000023014000200140B405002040420F00D4
:100DF00070B504004FF0000503D0206C002610B140
:100E000007E0012070BD204600F01CF8666484F8FD
:100E10003C60206CC00610D4206C20F4885040F058
:100E2000020020642046FFF7DFFD6664206C20F09E
:100E3000020040F00100206400E0012584F83C60DD
:100E4000284670BD10B586B0044614216846FFF7E9
:100E500001FA1149206888421CD11048002102681B
:100E600042F480720260006800F4807005900B48C4
:100E70001438026842F004020260006800F00400C6
:100E800005900F2000900320CDE901016946044838
:100E900000F098F806B010BD002001404438024030
:100EA0000008024018B50021009190F83C20012A6A
:100EB00007D0012280F83C2002689368DB0702D04B
:100EC00011E0022018BD936843F0010393602E4A9D
:100ED0002E4B1268B2FBF3F202EB420200E0521E0C
:100EE0000092002AFBD102689368DB0742D0036CB2
:100EF00040F20164A34343F48073036453685B05C9
:100F000005D5036C23F4005343F480530364036C4E
:100F1000DB0404D5436C23F00603436400E0416422
:100F200080F83C101A496FF022031360496800688A
:100F3000CA06184906D0884224D1816811F0405F62
:100F400013D01FE08842F8D0134A904203D1D1F861
:100F50000423D206F1D0114A904213D1D1F80413E0
:100F600001F01F011029E8D30CE0816841F08041B5
:100F7000816007E0016C41F010010164416C41F0B7
:100F800001014164002018BDB405002040420F005B
:100F900000230140002001400021014000220140C7
:100FA00070B5044600F018F90546601C02D00448EC
:100FB0000078044400F010F9401BA042FAD370BD41
:100FC000A80500202DE9F84FDFF8BCA1002201257B
:100FD00003264FF00F090AF1040BAAF1040E00BF1B
:100FE0000B6805FA02F42340A34270D10F7907F091
:100FF0000307012F01D0022F16D187684FEA42085C
:1010000006FA08FC27EA0C07D1F80CC00CFA08FC19
:101010004CEA070CC0F808C04768A7430C79C4F332
:10102000001494403C4344600C79E443A4070AD084
:10103000C4684FEA420C06FA0CF7BC438F6807FA03
:101040000CF72743C7600C7904F00304022C12D17B
:10105000D40800EB840CDCF820405707FF0E09FA97
:1010600007F824EA0804D1F8108008FA07F848EADB
:101070000408CCF8208004684FEA420C06FA0CF70A
:10108000BC430F7907F0030707FA0CF72743076003
:101090004C6814F4403F70D03C4C276847F48047BC
:1010A0002760246822F0030704F480440094384C3D
:1010B00007EB040CDCF8084897074FEA177809FAA1
:1010C00008F7BC43334FB84202D1002724E054E074
:1010D000314FB84201D101271EE0304FB84201D153
:1010E000022719E02E4FB84201D1032714E02D4FFB
:1010F000B84201D104270FE02B4FB84201D1052798
:101100000AE02A4FB84201D1062705E0284FB8422D
:1011100001D1072700E0082707FA08F72743CCF892
:101120000878DAF800405746D1F804C09C435FEADB
:10113000CC2C00D51C433C60DBF800405F46D1F866
:1011400004C09C435FEA8C2C00D51C433C60DEF855
:1011500000407746D1F804C09C435FEA8C3C00D540
:101160001C433C60084F083F3C68D1F804C09C43D6
:101170005FEACC3C00D51C433C60521C102AFFF4B3
:101180002FAFBDE8F88F0000083C01404438024012
:10119000003001400000024000040240000802400C
:1011A000000C0240001002400014024000180240EF
:1011B000001C02400069084000D0012070474269CD
:1011C00021EA02030A4043EA0241816170470AB101
:1011D000816170470904FBE701488068704700009F
:1011E000A805002070B5040025D094F83D00002526
:1011F00020B984F83C50204600F03EFA242084F8C0
:101200003D002068016821F001010160206801684B
:1012100041F4004101602068016821F4004101604F
:1012200000F0D2FB4D4A6168914201D84C4900E080
:101230004C49884201D2012070BD4B492368B0FB64
:10124000F1F15E6826F03F060E435E6063689342EC
:1012500006D94FF4967359434FF47A73B1FBF3F107
:101260002368491C1E6A26F03F06314319626168F3
:10127000914210D84900401EB0FBF1F2521CC2F35B
:101280000B02042A01D2042022E0B0FBF1F0401C42
:10129000C0F30B001CE0A268F2B301EBC10303EB47
:1012A0000116431EB3FBF6F35B1C43F480431B059E
:1012B00049D092B301EBC10202EB0111401EB0FB19
:1012C000F1F0401CC0F30B0040F4804040F40040BB
:1012D0002168CA694CF6FF739A431043C861D4E988
:1012E000071001432068026822F0C0021143016028
:1012F000D4E9030101432068826848F2FF339A432E
:1013000011438160D4E9050108432168CA6822F0CD
:10131000FF021043C86001E00EE016E0206801689B
:1013200041F0010101602564202084F83D0025631F
:1013300084F83E50002070BD01EB4106431EB3FB14
:10134000F6F35B1CB3E70120C2E701EB4101401E4D
:10135000B0FBF1F0401CC0F30B00B7E7A086010022
:1013600080841E0000093D0040420F002DE9F84F27
:101370001F4690468A460446DDF82890FFF72CFF6A
:10138000054694F83D00202875D1192301226C49A7
:101390002046009501F00EFF0028F5D194F83C009E
:1013A000012868D0012084F83C0020680168C90742
:1013B00003D1016841F0010101602068016821F456
:1013C00000610160222084F83D00102084F83E0076
:1013D00000262664C4F824806785608D20855948DE
:1013E000E0622B464A465146204601F0F9FD0028AE
:1013F00078D1208D544F68B1012814D0022820687C
:10140000016816D041F480610160206841698069FB
:10141000009087E02068416981690091016841F48A
:10142000007101607EE02068016821F48061016044
:10143000F0E721F4806101602068016841F40061F7
:10144000E2E7032848D801280AD0022814D04B46E6
:10145000002239462046009501F0ACFED8BB27E0BB
:101460002A464946204601F024FFA0BB20680069B7
:10147000616A08704DE061E04B4600223946204623
:10148000009501F097FE30BB2068016841F40071BF
:10149000016020680069616A0870606A401C6062CF
:1014A000218D491E2185618D491E618521682EE0AF
:1014B0002068016821F48061016020680069616A28
:1014C0000870606A401C6062208D401E2085608D1F
:1014D000401E6085D0E705E02A464946204601F0D7
:1014E000E8FE10B10120BDE8F88F20680069616A4C
:1014F0000870606A401C6062218D491E2185618DE3
:10150000491E618521684A69D24352070AD4096994
:101510000170606A401C6062208D401E2085608DD5
:10152000401E6085208D00288BD1202084F83D004E
:1015300084F83E6084F83C600020D4E70220D2E7C3
:10154000020010000000FFFF040001002DE9F84F29
:101550001F4690468A460446DDF82890FFF73CFE79
:10156000054694F83D0020287FD1192301224049E7
:101570002046009501F01EFE002876D194F83C002C
:10158000012872D0012084F83C0020680168C90756
:1015900003D1016841F0010101602068016821F474
:1015A00000610160212084F83D00102084F83E0095
:1015B00000262664C4F824806785608D20852D4828
:1015C000E0622B464A465146204601F07FFD90B925
:1015D000206841698069009036E02A4649462046E5
:1015E00001F09AFE50B1206C042804D120680168F3
:1015F00041F4007101600120BDE8F88F606A216844
:1016000000780861606A401C6062618D491E6185D6
:10161000218D491E89B2218522685369DB435B070E
:101620000BD451B100781061606A401C6062608D1B
:10163000401E6085208D401E20852A464946204652
:1016400001F092FD0028CED1208D0028C5D154F89C
:101650003D0B016841F400710160202004F81E096F
:10166000E67766770020C7E7FFE70220C4E70000BF
:10167000020010000000FFFF2DE9F04186B0044693
:1016800014216846FEF7E6FD2F4A2168DFF8BC808A
:1016900000242E4812250326042708F11008914241
:1016A0001CD1016841F002010160006802AA00F04B
:1016B00002000590C020CDE9000582E8D00069460F
:1016C0002348FFF77FFCD8F8001041F40011C8F858
:1016D0000010D8F8000000F4001031E01D4A9142DB
:1016E0002FD1016841F004010160016801F004019B
:1016F0000591016841F0010101600068694600F050
:10170000010005905015CDE9000502AA124882E8B3
:10171000D000FFF757FC4FF48070CDE9000502AA16
:10172000694682E8D0000D48FFF74CFCD8F800105D
:1017300041F40001C8F80010D8F8000000F40000DF
:10174000059006B0BDE8F0810054004030380240FA
:1017500000040240005C004000080240000002401B
:10176000024881680278114481607047A805002012
:101770000B4810B5016841F400710160016841F443
:1017800080610160016841F480710160032000F014
:101790006FF80F2000F006F800F024F8002010BDCC
:1017A000003C024070B50D4D04464FF47A71287824
:1017B000B1FBF0F00A490968B1FBF0F000F0FAFA69
:1017C00048B9102C07D200222146501E00F030F8F4
:1017D00000206C6070BD012070BD0000A8050020D5
:1017E000B40500200A4808B5016841F48041016051
:1017F000006800F4804000900548001F016841F037
:1018000080510160006800F08050009008BD000029
:1018100044380240002809DB00F01F0201219140FA
:101820004009800000F1E020C0F80011704700007E
:10183000F0B40E4B1B680C46C3F30223C3F107053B
:10184000042D00D90425191D072901D2002300E029
:10185000DB1E012606FA05F1491E214099409E40F3
:10186000761E16403143F0BC06F074BC0CED00E06F
:10187000064900F0070208684FF6FF03184040EAE7
:101880000220034A10430860704700000CED00E09E
:101890000000FA052DE9F0470E46050065D0DFF897
:1018A0001481D8F80000F7B200F00700B04207D268
:1018B00088F80070D8F8000000F00700B04254D15A
:1018C00028683D4C810712D5400703D5206840F4B5
:1018D000E05020602878000703D5206840F460407D
:1018E00020602068A96820F0F00008432060287874
:1018F000C0072DD0304968680839012812D0022865
:1019000013D0032811D00968890700292DDA21682E
:1019100021F0030101432160FFF75EFC814641F2A3
:10192000883A0EE009688903EFE709688901ECE766
:10193000FFF752FCA0EB0901514502D90320BDE895
:10194000F0872068696800F00C00B0EB810FEFD1E0
:10195000D8F80010404601F00701B14207D90770DE
:10196000006800F00700B04201D00120E7E72878C6
:10197000400705D52068E96820F4E050084320605E
:101980002878000706D52068296920F4604040EADD
:10199000C100206000F028F82168084AC1F3031153
:1019A000515CC8400649086006480068FFF7FAFE27
:1019B0000020C4E7003C02400838024084AB000825
:1019C000B4050020AC0500200448054900680968FA
:1019D000044AC1F38221515CC8407047B40500201D
:1019E0000838024094AB0008154810B5006810F0A4
:1019F0000C02144813D04110042A0FD0082A0ED12B
:101A00000F4C241F2268236802F03F025B0207D5B7
:101A10002068C0F38810A0FB010106E0084610BD55
:101A20002168C1F38811A1FB00010023FEF7C8FB68
:101A30002168C1F30141491C4900B0FBF1F010BD20
:101A4000083802400024F4002DE9F84F04006ED05D
:101A50002078DFF84C93C007A9F104054AD009F1BA
:101A600004000168C1F38101012908D00068C0F3B6
:101A7000810002280AD1D9F80000400206D5286862
:101A8000800337D560680028E1D033E06068B0F5A6
:101A9000803F10D0B0F5A02F286810D020F48030FF
:101AA0002860286820F4802028606068A8B1FFF7CB
:101AB00093FB06460DE0286840F48030F4E740F4DC
:101AC00080202860F7E700BFFFF786FB801B6428B3
:101AD00073D828688003F7D50CE0FFF77DFB064636
:101AE00005E000BFFFF778FB801B6428F0D828686A
:101AF0008003F7D42078DFF8AC8280074FF0000A2B
:101B00003ED5A748001D016811F00C0F08D00068F1
:101B1000C0F3810002280BD1D9F80000400207D49D
:101B20002868800716D5E068012800D112E033E16B
:101B3000E068B8B10120C8F80000FFF74DFB064689
:101B400005E000BFFFF748FB801B0228C0D82868CB
:101B50008007F7D52868216920F0F80040EAC10025
:101B600028600DE0C8F800A0FFF736FB064604E049
:101B7000FFF732FB801B02281FD828688007F7D4A4
:101B80002078000722D5864F87486169703771B188
:101B900001210160FFF720FB064604E0FFF71CFB74
:101BA000801B022809D838688007F7D50EE0C0F8F6
:101BB00000A0FFF711FB064605E082E0FFF70CFBF3
:101BC000801B02287DD838688007F7D4207840072A
:101BD00068D5DFF8CCB100270BF13C0BDBF8000037
:101BE000C0000BD4DBF8001041F08051CBF800109E
:101BF000DBF80000012700F0805000906B4E306849
:101C0000C00510D4306840F480703060FFF7E4FA0B
:101C1000009005E0FFF7E0FA0099401A022850D83A
:101C20003068C005F6D55E4EA0686C3601280FD02E
:101C30000528306810D020F001003060306820F0B6
:101C400004003060A068B8B1FFF7C6FA00900FE05A
:101C5000306840F00100F4E740F004003060F7E73E
:101C6000FFF7BAFA0099411A41F28830814266D8EA
:101C700030688007F4D50EE0FFF7AEFA009007E079
:101C8000FFF7AAFA0099411A41F28830814256D8EA
:101C900030688007F4D42FB1DBF8001021F08051B8
:101CA000CBF80010A069C8B33D49091D0968C1F30C
:101CB000810102294AD00228504607D0C8F86000A6
:101CC00000E03CE0FFF788FA04463BE04746C8F8EE
:101CD0006000FFF781FA064605E000BFFFF77CFAD7
:101CE000801B02282BD828688001F7D4D4E907018B
:101CF0000843A16A2E4A490802EB0141626A41EA9F
:101D00008211084394F82C1040EA0161C9F80010D0
:101D100001203866FFF760FA044606E03EE000BFA7
:101D2000FFF75AFA001B022809D828688001F7D566
:101D300034E000BFFFF750FA001B022802D903204D
:101D4000BDE8F88F28688001F4D427E00128F7D097
:101D5000D9F80000E26900F4800191421CD1226AA6
:101D600000F03F01914217D147F6C071626A01400D
:101D7000B1EB821F10D1A26A4FF0FF3300F4403163
:101D800003EB5202B1EB024F06D194F82C1000F095
:101D90007060B0EB016F01D00120D1E70020CFE7E8
:101DA0000438024000004742800E47420070004065
:101DB0000000FFFF10B5401EB0F1807F01D301206D
:101DC00010BD4FF0E02460610F21601706F0C2F9EA
:101DD0000020A06107202061002010BD70477047DF
:101DE00070B590F83C20012A32D0012480F83C40A4
:101DF000022280F83D2003685A689D6822F0700630
:101E00000A6832435A60134B02689A4214D0B2F106
:101E1000804F11D0104B9A420ED0104B9A420BD0EB
:101E20000F4B9A4208D00F4B9A4205D00E4B9A4264
:101E300002D00E4B9A4204D1496825F08003194321
:101E4000916080F83D40002180F83C10084670BD4C
:101E5000022070BD00000140000400400008004066
:101E6000000C004000040140004001400018004008
:101E700010B5040003D094F83D0010B107E0012034
:101E800010BD002084F83C00204600F01FF802201E
:101E900084F83D00211D206803F078FB012084F8C0
:101EA000460084F83E0084F83F0084F8400084F83F
:101EB000410084F8420084F8430084F8440084F828
:101EC000450084F83D00002010BD0000F0B587B04B
:101ED000044614216846FEF7BDF97B4B21680025B6
:101EE0007948103B0224794A794EB1F1804F37D0BE
:101EF000784FB94267D1016841F002010160006882
:101F000000F002000590186840F0010018601868A1
:101F100000F001000590186840F002001860186891
:101F2000694600F002000590C0208DE83100CDE93F
:101F300003541046FFF746F803208DE83100CDE941
:101F4000035469463046FFF73DF8002201211D2069
:101F5000FFF76EFC5FF01D00FFF75CFC07B0F0BD03
:101F6000016841F001010160006800F00100059086
:101F7000186840F001001860186800F00100059032
:101F8000186840F0020018601868012700F002008D
:101F9000059020208DE83100CDE9035769461046B1
:101FA000FFF710F840F608408DE83100CDE90357FF
:101FB00069463046FFF706F8002211461C20FFF75D
:101FC00037FC1C20C8E7444A91420ED1016841F019
:101FD000040101600068002200F004000590022165
:101FE0001E20FFF725FC1E20B6E73C4A91420ED189
:101FF000016841F0080101600068002200F008005B
:10200000059003213220FFF713FC3220A4E7344A65
:1020100091420ED1016841F0200101600068002268
:1020200000F0200005900C213720FFF701FC37203D
:1020300092E7254A2B4B121D99420ED1106840F4AD
:10204000003010601068002200F4003005900B2171
:102050001920FFF7EDFB19207EE7234B99420ED1A3
:10206000106840F4802010601068002200F4802086
:10207000059008211A20FFF7DBFB1A206CE71B4AAA
:1020800091420ED1016841F0800101600068002298
:1020900000F08000059009212C20FFF7C9FB2C20BF
:1020A0005AE7134A91427FF459AF016841F48071B5
:1020B00001600068002200F4807005900A212D2044
:1020C000FFF7B6FB2D2047E74038024000000240F2
:1020D000000402400004004000080040000C0040E2
:1020E000001400400044014000480140001C004032
:1020F0000020004090F83D10012901D001207047D8
:10210000022180F83D100168CA6842F00102CA60ED
:1021100000681149884214D0B0F1804F11D00F49A6
:1021200088420ED00E4988420BD00E49884208D012
:102130000D49884205D00D49884202D00C49884299
:1021400004D1816801F00701062903D0016841F03C
:1021500001010160002070470000014000040040C0
:1021600000080040000C0040000401400040014015
:10217000001800400168CA6822F00102CA600168C4
:102180000A6A41F211131A4207D10A6A9B101A42D5
:1021900003D10A6822F001020A60012180F83D1093
:1021A0000020704770B5044690F83C0000250128D7
:1021B00017D0012684F83C60022084F83D00206896
:1021C000826822F0770222F47F42826008685028F9
:1021D00038D00DDC20284FD005DC90B3102811D169
:1021E0004AE0022070BD302846D040280AD13BE0AA
:1021F00060282FD070280DD0B0F5805F03D0B0F5E7
:10220000005F12D0012584F83D60002084F83C0076
:10221000284670BDCB68D1E90121206803F027FA78
:102220002068816841F0770109E0CB68D1E901219C
:10223000206803F01CFA2068816841F480418160C5
:10224000E1E719E0CA684968206803F0E5FA50211F
:10225000206806E0CA684968206803F02FFB602107
:10226000206803F00EFACEE7CA684968206803F0D8
:10227000D3FA40212068F4E7226801461046F0E7CF
:102280002DE9FF5FDFF8388407460168DFF834B4D2
:10229000D8F80000002501264FF002094EF6602A0A
:1022A000ABF1800481422ED1387F012806D002286C
:1022B00053D0042877D00828F5D1EDE0606F4FF0B7
:1022C00000010028FE481FD000F05CFE6061CDF8E0
:1022D0000090CDE901650021F948039500F0B6FBB7
:1022E00000226946F64800F06DFAD8F800106FF049
:1022F000020008610021F24800F022FB10B1F2A0B8
:1023000005F0DAFE656718E100F03CFEA061CDE95A
:10231000005602950021EA48039500F097FB002241
:102320006946E74800F04EFAD8F800106FF0020056
:1023300008610021E24800F003FB10B1E2A005F0C3
:10234000BBFED4E90510884201DD401A02E0411AC3
:1023500001EB0A006667E061EFE0A06F4FF0040157
:102360000028D74820D000F00DFE2062CDF8009064
:10237000CDE901650421D248039500F067FB0422F2
:102380006946CF4800F01EFAD8F800106FF004003C
:1023900008610421CA4800F0D3FA10B1CAA005F0C0
:1023A0008BFEA567C9E028E000F0ECFD6062CDE996
:1023B000005602950421C248039500F047FB042211
:1023C0006946BF4800F0FEF9D8F800106FF004002D
:1023D00008610421BA4800F0B3FA10B1BAA005F0C0
:1023E0006BFED4E90810884201DD401A02E0411A70
:1023F00001EB0A00A667A0629FE0E06F4FF00801C2
:102400000028AF481FD000F0BDFDE062CDF800907D
:10241000CDE901650821AA48039500F017FB0822C1
:102420006946A74800F0CEF9D8F800106FF0080010
:1024300008610821A24800F083FA10B1A2A005F0BB
:102440003BFEE56779E000F09DFD2063CDE9005695
:10245000029508219A48039500F0F8FA0822694687
:10246000974800F0AFF9D8F800106FF00800086145
:102470000821934800F064FA10B193A005F01CFE07
:10248000D4E90B01814201DD081A02E0091A01EBCF
:102490000A00E667606350E0DBF800004FF00C01D3
:1024A0000028874820D000F06DFDA063CDF8009093
:1024B000CDE901650C218248039500F0C7FA0C2292
:1024C00069467F4800F07EF9D8F800106FF01000E0
:1024D00008610C217A4800F033FA10B17AA005F0B7
:1024E000EBFDCBF8005028E000F04CFDE063CDE9B7
:1024F000005602950C217248039500F0A7FA0C22B1
:1025000069466F4800F05EF9D8F800106FF01000CF
:1025100008610C216A4800F013FA10B16AA005F0B6
:10252000CBFDD4E90E10884201DD401A02E0411AC9
:1025300001EB0A002064CBF80060DFF89481396871
:10254000D8F8000081422AD1387F012829D00228FA
:1025500073D004286FD0082821D1DBF810004FF089
:102560000C010028404667D000F00CFDA066CDF8B5
:102570000090CDE901650C214046039500F066FA14
:102580000C226946404600F01DF939686FF01000D2
:1025900008610C21384600F0D3F9CBF81050BDE8A3
:1025A000FF9FDBF804005F46002849484FF0000118
:1025B0001BD000F0E7FC6064CDF80090CDE9016528
:1025C00000214348039500F041FA00226946404843
:1025D00000F0F8F8D8F800106FF002000861002150
:1025E0003B4800F0ADF97D60D9E700F0CBFCA0647A
:1025F000CDE90056029500213548039500F026FAF2
:1026000000226946324800F0DDF8D8F800106FF07B
:102610000200086100212E4800F092F9D4E911105F
:10262000884201DD401A02E0411A01EB0A00E06431
:102630007E60B4E701E053E09BE0DBF808005F4612
:10264000002823484FF004011BD000F09BFC2065BC
:10265000CDF80090CDE9016504211D48039500F0F7
:10266000F5F9042269461A4800F0ACF8D8F80010D1
:102670006FF0040008610421154800F061F9BD60A5
:102680008DE700F07FFC6065CDE9005602950421DE
:102690000F48039500F0DAF9042269460C4800F06F
:1026A00091F8D8F800106FF0040008610421084880
:1026B00000F046F9D4E9141088420BDD401A0CE012
:1026C000E8140020140500204552524F520D0A0014
:1026D00030150020411A01EB0A00A065BE605EE7DC
:1026E000DBF80C005F46002835484FF008011BD08E
:1026F00000F048FCE065CDF80090CDE901650821C7
:102700002F48039500F0A2F9082269462C4800F0F2
:1027100059F8D8F800106FF008000861082128481F
:1027200000F00EF9FD603AE700F02CFC2066CDE9E0
:102730000056029508212248039500F087F90822E7
:1027400069461F4800F03EF8D8F800106FF0080006
:10275000086108211A4800F0F3F8D4E917108842FC
:1027600001DD401A02E0411A01EB0A006066FE60DA
:1027700015E700F007FCE066CDE9005602950C2154
:102780000F48039500F062F90C2269460C4800F0EE
:1027900019F8D8F800106FF0100008610C210848F3
:1027A00000F0CEF8D4E91A10884201DD401A02E0A8
:1027B000411A01EB0A002067CBF81060EFE6000039
:1027C000301500202DE9F041054690F83C00002628
:1027D0000C46012810D0012085F83C0072B1042A73
:1027E0001CD0082A2CD00C2A50D00126002085F8B5
:1027F0003C003046BDE8F0810220FBE7D4E900123E
:10280000E368286803F01AF82868816921F00C0150
:10281000816128688169A26811430FE0D4E9001240
:10282000E368286803F05CF82868816921F4406156
:10283000816128688169A26841EA02218161D5E746
:102840002868D4E9002C277B016A21F48071016299
:10285000C169036A21F0030141EA0C0121F0F00C87
:1028600039074FF420674CEA116123F4206307EA2B
:1028700002221A43C16102622868C16921F00C0179
:10288000C1612868C169A268114328E02868D4E9B9
:102890000027E168036A23F480530362D0F81CC068
:1028A000036A2CF4407C4CEA07274FF6FF7C27F4A0
:1028B00070470CEA013139434FF4204723F4204399
:1028C00007EA02321A43C16102622868C16921F431
:1028D0004061C1612868C169A26841EA0221C16101
:1028E00084E710B5040003D094F83D0010B107E070
:1028F000012010BD002084F83C00204600F01EF8A6
:10290000022084F83D00211D206802F03FFE0120D6
:1029100084F8460084F83E0084F83F0084F84000C4
:1029200084F8410084F8420084F8430084F84400AD
:1029300084F8450084F83D00002010BD7047000079
:1029400030B50446002551B104290DD0082910D016
:1029500094F8410094F84520012811D10EE094F834
:102960003E0094F84220F7E794F83F0094F84320A3
:10297000F2E794F8400094F84420EDE7012A01D0F2
:10298000012030BD022059B1042912D0082919D0E4
:1029900084F8410084F845000C2944D0012540E02A
:1029A00084F83E0084F842002068C26842F00202C7
:1029B00010E084F83F0084F843002068C26842F0C9
:1029C000040207E084F8400084F844002068C268EC
:1029D00042F00802C2600122206802F03BFE144966
:1029E0002068884214D0B0F1804F11D0114988423C
:1029F0000ED0114988420BD01049884208D01049A6
:102A0000884205D00F49884202D00F49884204D13C
:102A1000816801F00701062903D0016841F0010136
:102A20000160284630BD2068C26842F01002D1E73C
:102A3000000001400004004000080040000C00407D
:102A400000040140004001400018004070B50D0036
:102A500004464FF0000607D0042D0AD0082D0DD0F3
:102A60000C2D10D001262FE02068C16821F0020152
:102A70000DE02068C16821F0040108E02068C16809
:102A800021F0080103E02068C16821F01001C16055
:102A900000222946206802F0DDFD2068016A41F22B
:102AA0001112114207D1016A9210114203D101683B
:102AB00021F001010160012045B1042D09D0082D4C
:102AC0000AD004F8410F2071304670BD04F83E0F63
:102AD000F9E704F83F0FF6E704F8400FF3E770B5A5
:102AE0000446006801694FF00005C943890715D401
:102AF000C168C943890711D4E91E0161012020770B
:102B0000206880698007204602D0FFF7B9FB04E007
:102B100000F0DAF8204600F06CF9257720680169AA
:102B2000C943490717D4C168C943490713D46FF093
:102B300004010161022020772068806910F4407F41
:102B4000204602D0FFF79CFB04E000F0BDF82046D1
:102B500000F04FF9257720680169C943090716D4A9
:102B6000C168C943090712D46FF00801016104204C
:102B700020772068C0698007204602D0FFF780FBDD
:102B800004E000F0A1F8204600F033F92577206832
:102B90000169C943C90617D4C168C943C90613D41A
:102BA0006FF010010161082020772068C06910F4DF
:102BB000407F204602D0FFF763FB04E000F084F87A
:102BC000204600F016F9257720680169C943C90736
:102BD00008D1C168C943C90704D1891E01612046D3
:102BE00000F06CF920680169C943090609D4C1687D
:102BF000C943090605D46FF0800101612046FFF743
:102C0000EDF820680169C943490609D4C168C94380
:102C1000490605D46FF040010161204600F0C7F974
:102C200020680169C94389060BD4C168C943890674
:102C300007D46FF0200101612046BDE87040FFF726
:102C4000CEB870BD10B586B0044614216846FDF7B5
:102C500001FB2368174C002117480222A34211D11F
:102C6000036843F008030360006800F00800059063
:102C70004FF470400090CDE90121CDE9031269467F
:102C80000E4812E00E4CA34211D1036843F0010339
:102C90000360006800F0010005900F200090CDE96E
:102CA0000121CDE9031269460648FEF78BF906B00B
:102CB00010BD00000008004030380240000C024007
:102CC000000C004000000240704770B5044690F8C8
:102CD0003C0000260D4601280FD0012084F83C005E
:102CE0006AB1042A1DD0082A2FD00C2A3FD0012611
:102CF000002084F83C00304670BD022070BD206882
:102D000002F0C8FC2068816941F0080181612068F7
:102D1000816921F004018161206881692A69114378
:102D200011E0206802F0E6FC2068816941F400614E
:102D300081612068816921F48061816120688169F5
:102D40002A6941EA02218161D2E7206802F008FD88
:102D50002068C16941F00801C1612068C16921F0A2
:102D60000401C1612068C1692A69114311E020682A
:102D700002F02AFD2068C16941F40061C161206848
:102D8000C16921F48061C1612068C1692A6941EA91
:102D90000221C161ACE710B5040003D094F83D00F6
:102DA00010B107E0012010BD002084F83C0020464F
:102DB00000F01EF8022084F83D00211D206802F07A
:102DC000E5FB012084F8460084F83E0084F83F00CB
:102DD00084F8400084F8410084F8420084F84300FD
:102DE00084F8440084F8450084F83D00002010BDBC
:102DF0007047704710B50446022249B104290ED02D
:102E0000082913D094F84100012816D0012010BDE4
:102E100094F83E000128F9D184F83E200FE094F8A0
:102E20003F000128F2D184F83F2008E094F84000E8
:102E30000128EBD184F8402001E084F841200122F0
:102E4000206802F007FC16492068164A884201D023
:102E5000904203D1436C43F40043436420688842AA
:102E600013D0B0F1804F10D00F4988420DD00F49D8
:102E700088420AD00E49884207D0904205D00D49B9
:102E8000884202D00C49884204D1816801F00701D0
:102E9000062903D0016841F001010160002010BD46
:102EA0000000014000040140000400400008004010
:102EB000000C0040004001400018004070B5294956
:102EC000054600680968284C884202D1218A491CBD
:102ED0002182264900260968884212D16089401C57
:102EE00080B2608132280CD1608840F4004060805C
:102EF0001F48016821F001010160002002F0E6FA9C
:102F000066811C4928680968884212D1A089401C42
:102F100080B2A08128280CD1A08840F40040A08075
:102F20001548016821F001010160002002F0DCFA7F
:102F3000A681124928680968884212D1E089401C9C
:102F400080B2E08132280CD1E08840F40040E0807B
:102F50000B48016921F001010161002002F0D2FA61
:102F6000E68170BD501600209404002098160020C1
:102F700010480140E0160020101C004028170020D7
:102F8000002000400246002041B1042909D0082950
:102F90000AD00C2901D11068006C70471068406B92
:102FA00070471068806B70471068C06B704770473F
:102FB000FEE701684A69D24352050FD46FF480627C
:102FC0004A61002140F8301F202242738173026958
:102FD00042F0040202610173012070470020704733
:102FE0002DE9F84F0446C06A1E4693460D462168F7
:102FF0000A6842F480620A60082807D0012805D0D8
:1030000010F5803F02D0206B112804D120680168A0
:1030100041F4807101604FF001195B46002249467E
:103020002046009600F0C6F84FF4007840B12068C2
:103030000068C00501D5C4F840800320BDE8F88FC2
:103040002069DFF884A0B0F5804F0FD006202168FA
:1030500000EAD51747F0F000086133465A460AF1F6
:103060000601204600F0DAF858BB03E0E8B240F071
:1030700001001CE02168E8B2086133465A46514617
:10308000204600F0CBF8E0B92068416981690091E1
:10309000016841F4807101605B4600224946204688
:1030A000009600F087F80028C1D147F0F1002168B0
:1030B000086133465A465146204600F0AFF80028D2
:1030C000BCD00120BAE7000002000100F8B50446B8
:1030D000C06A1E460D461746082807D0012805D0AD
:1030E00010F5803F02D0206B122804D120680168BF
:1030F00041F480710160134600224FF00111204617
:10310000009600F057F840B120680068C00502D56D
:103110004FF4007020640320F8BD2069B0F5804FA3
:103120000ED00620216800EAD51040F0F0000861BA
:1031300033463A460B49204600F070F878B902E071
:1031400005F0FE0000E0E8B2216808610549334659
:103150003A46891F204600F061F80028DCD00120A3
:10316000F8BD00000800010070B516460D46044683
:103170000DE02046FFF71DFF08B1012070BD681C5F
:1031800005D0FEF729F8801BA84207D835B1206882
:103190004069C0434007ECD4002070BD002044F8D3
:1031A000300F20216173A073216941F0200121615A
:1031B0002073E2E72DE9F0471E4690460D4604468F
:1031C000C1F30747DDF8209008E0701C06D0FEF739
:1031D00003F8A0EB0900B0420FD876B12068012FA8
:1031E00018D0806925EA00000004000C14D00021EA
:1031F0004145EAD00020BDE8F087002044F8300FB8
:1032000020216173A073216941F0200121612073A5
:103210000120F0E74069E5E70121E9E72DE9F04702
:103220009A4691460E46044600254FF02008C1F309
:10323000074725E020684069C043400514D4206852
:10324000016841F40071016021686FF48060486199
:10325000256384F83D8084F83E50206C40F00400E3
:10326000206484F83C501FE0B9F1FF3F08D0FDF71F
:10327000B3FFA0EB0A0149450CD8B9F1000F09D002
:103280002068012F13D0806926EA00000004000C9A
:103290000BD0CFE744F8305F84F80D80A573206928
:1032A00040F02000206125730120BDE8F0874069CF
:1032B000EAE72DE9F041002590460E460446202716
:1032C00017E04069C043C0060CD454F8301B6FF0BF
:1032D0001000486144F810596777A577206A20628A
:1032E000257717E0FDF778FFA0EB0800B04208D87B
:1032F0003EB120684169C9434906E2D40020BDE8D7
:10330000F08144F8305F6773A573206940F02000B6
:10331000206125730120F2E770B516460D4604467C
:103320000DE02046FFF745FE08B1012070BD681C86
:1033300005D0FDF751FF801BA84207D835B12068A2
:103340004069C0430006ECD4002070BD002044F862
:10335000300F20216173A073216941F020012161A8
:103360002073E2E77FB582B01D460646642401461D
:10337000012303AA09480094FEF7E8F810B10120E0
:1033800006B070BD012301AA314604480094FDF740
:10339000EDFF9DF8040028700020F1E79414002050
:1033A0002DE9F04792462DED0A8B89468046B0EE16
:1033B000439AF0EE62BAB0EE42CAB0EE61BAF0EEF5
:1033C00041AAB0EE60AAB0EE408AFE4CF0EE008A50
:1033D000FD4FD4ED010AD4ED031A94ED000A94EDEB
:1033E000021A20EEA12AF7EE009A00EE412A20EE02
:1033F000200A01EE210A22EE282A87ED002A20EE7B
:10340000280A87ED010A20EEA00AF0EE690A01EE13
:10341000010A40EE680A2CEE0C0A0BEEAB0AC7ED6F
:10342000020A09EE090A07F005F9A4F1180686ED6B
:10343000030ADFEDE60AB5EEC0CA28EE203AF2EE46
:10344000040A23EE201AD6ED050A70EE601A41EE4A
:10345000210AF1EE10FAC6ED050A02DDF0EE4C0A83
:1034600001E0F1EE4C0A10EE901AD74DD8480C3519
:1034700081427CDAF5EEC0BAF1EE10FA02DDF0EE30
:103480006B0A01E0F1EE6B0A10EE901A814276DAD7
:10349000B5EEC09AF1EE10FA02DDF0EE490A01E055
:1034A000F1EE490A10EE901A814268DACCEE001A69
:1034B00010EE100AC7490844C74988428BEE802A9B
:1034C00089EE001A26D2D7ED020A20EE820A97ED85
:1034D000012A01EE420A85ED030A97ED002A22EE49
:1034E000011A01EEE01A85ED041AD5ED060A30EE58
:1034F000600A43EE000AC5ED060A95ED070A31EEB3
:10350000401A03EE010A85ED070AC5ED000A00BF67
:1035100085ED010A95ED090A95ED001ADFEDAF0A78
:10352000AF4821EE201A21EE281A01EE080A85ED97
:10353000090A95ED011AD5ED0A2A10EE102A21EE9E
:10354000201A21EE281A41EE082AC5ED0A2A95ED27
:10355000021A95ED0B2A61EE200A60EEA80A00EE31
:10356000882A85ED0B2A9FED9F1A9F4900E006E00F
:10357000DFED9E0A824207D9B0EE410A0AE09FEDD4
:103580009C0A85ED000AC3E710EE102A8A4201DD8D
:10359000B0EE600A12EE902A85ED090A824202D945
:1035A000F0EE412A05E012EE902A8A4201DDF0EEAB
:1035B000602A12EE102AC5ED0A2A824202D9B0EE24
:1035C000412A05E012EE100A884201DDB0EE602AC1
:1035D00085ED0B2A96ED010AD6ED020A307830EE21
:1035E000600AE8B302F002FA10EE100A814988423C
:1035F00002D9BBEE040A17E096ED010AD6ED020AE5
:1036000030EE600A02F0F2F910EE100A7A498842B0
:1036100002DDB3EE040A07E096ED010AD6ED020AD8
:1036200030EE600A02F0E2F9DFED740A744920EE30
:10363000202AD7ED020A10EE900A9FED720ADFED04
:10364000722A884229DD95ED001AD5ED091A31EE6E
:10365000211AD7ED001A01EEC2AA21EE001A00E0ED
:1036600016E00AEE221A00EEC2BA85ED0C1A95EDAC
:10367000011AD5ED0A1A31EE211A21EE000A97ED52
:10368000011A41EE42AA0AEEA20A85ED0D0A1CE0DB
:1036900002F0ACF9DFED5D0AC8E7D5ED000A95ED63
:1036A000091A70EE810A60EE800A4AEE220AC5ED20
:1036B0000C0AD5ED010A95ED0A1A70EE810A20EE8A
:1036C000800A0AEEA20A85ED0D0A2BEE220A85ED8C
:1036D0000E0AD4ED010AD5ED0C2A94ED021A95EDEF
:1036E0000D2A60EEE23AD4ED031AB0EE403A94EDC2
:1036F000000A41EE423A41EEC33A03EE880A60EE18
:10370000223A41EE033A41EEC23A43EE880A60EEB5
:10371000023A40EEC33A20EE033A00EE823A41EE1E
:10372000A23A03EE881A01EE623A43EE081A84ECDC
:10373000040A20EE000A00EEA00A01EE010A01EEE2
:10374000A10A06F077FF86ED040AD4ED000AB0EE78
:10375000698AC0EE801AC4ED001AD4ED010A80EE29
:10376000801A84ED011AD4ED020A80EE802A84EDDD
:10377000022AD4ED030AC0EE802A21EE010AF0EEFF
:10378000480A02EE020A40EE680A21EE810AC4ED00
:10379000032A02EE220A20EE280A06F077F89FEDAF
:1037A0001C9A20EE090A88ED000A94ED010AD4ED76
:1037B000030A94ED021A20EE200AD4ED000A00EE6E
:1037C000C10A27E02400002050070020C3F5C840AC
:1037D00000808945FF7F92BAFFFF1B00CDCCCC3D16
:1037E00034FA0EBD34FA0EBD34FA0E3D34FA0E3DF5
:1037F000000000000000A0C10000A041EC51383ED4
:103800003333333F9A99193F34FA8E3C6766663FEB
:103810003333654220EE280A10EE100AFCF702FF4F
:1038200041EC100B04F0A8FC9FED151B51EC100BA4
:1038300053EC112BFCF7CCFDFCF738FFC9F8000066
:1038400094ED001A94ED010AF0EE480A61EE011AB7
:1038500040EE001A51EEA80AD4ED021A20EE210A19
:10386000D4ED031A01EE610A20EE280A06F00EF8E4
:1038700020EE090A8AED000ABDEC0A8BBDE8F0874C
:103880000000006066A64C40114810B5026886B082
:10389000002142F00202026000680E4C00F00200BB
:1038A00005904FF49870CDE90001032003900120AA
:1038B000029069462046FDF785FB601500900220C6
:1038C000029069462046FDF77DFB06B010BD000062
:1038D00030380240000402402DE9F0410126374D06
:1038E0003702374C4FF4007801281DD02878A0B15A
:1038F00020212046FDF75EFCC0B110212046FDF7D7
:1039000059FC98B139462046FDF754FC70B1414648
:103910002046FDF74FFC012808D020212046FDF766
:1039200049FC012835D046E02E70E1E725A004F0DF
:10393000C3FB0A20FDF734FB00202870202120461D
:10394000FDF738FC80B110212046FDF733FC88B12B
:1039500039462046FDF72EFC88B141462046FDF74A
:1039600029FC012810D026E01AA004F0A5FB0120B4
:10397000BDE8F0811BA004F09FFB0220F8E71DA02A
:1039800004F09AFB0320F3E71EA004F095FB04204B
:10399000EEE710212046FDF70DFC01280BD139463A
:1039A0002046FDF707FC012805D141462046FDF7DA
:1039B00001FC00B92E700020DAE7000000000020B2
:1039C00000040240204B45595F5363616E200D0A8D
:1039D000000000004B4559315F50524553200D0AFD
:1039E000000000004B4559325F50524553200D0AEC
:1039F000000000004B4559335F50524553200D0ADB
:103A0000000000004B4559345F50524553200D0AC9
:103A10000000000004210148FDF7D1BB0010024066
:103A200010B5094C002204212046FDF7D0FB64208C
:103A3000FDF7B6FA012204212046FDF7C8FBBDE8D8
:103A400010406420FDF7ACBA001002400821014884
:103A5000FDF7B5BB0010024010210148FDF7AFBBD8
:103A600000100240FFF7D6BF012204210148FDF7F4
:103A7000AEBB000000100240FFF7E8BF01220821A2
:103A80000148FDF7A4BB00000010024001221021F4
:103A90000148FDF79CBB000000100240044908B536
:103AA0000A6802430A6009680140009108BD0000ED
:103AB00030380240044908B50A6802430A600968C0
:103AC0000140009108BD000040380240F0B50A688E
:103AD0000F2692FAA2F2B2FA82F303248AE00127B7
:103AE0009F4015EA07027DD04D68012D01D0022DBF
:103AF0001BD18D68876892FAA2FCBCFA8CFC4FEA55
:103B00004C0C04FA0CFC27EA0C0792FAA2FCBCFA53
:103B10008CFC4FEA4C0C05FA0CF52F438760CD68FE
:103B20004768554397432F4347600F69D0F80CC04F
:103B300092FAA2F5B5FA85F54FEA450E04FA0EF5AC
:103B40002CEA050C92FAA2F5B5FA85F56D00AF40A6
:103B50004CEA070CC0F80CC04D68022D33D192FA24
:103B6000A2F5B5FA85F5082D15D2D1F814C0056A6D
:103B700092FAA2F7B7FA87F7BF0006FA07F7BD4334
:103B800092FAA2F7B7FA87F7BF000CFA07FC45EAEA
:103B90000C05056217E0D1F814E0476A150A95FA9A
:103BA000A5FCBCFA8CFC4FEA8C0C06FA0CFC95FACE
:103BB000A5F5B5FA85F5AD0027EA0C070EFA05FE66
:103BC00047EA0E0747624D68076892FAA2FCBCFA02
:103BD0008CFC4FEA4C0C04FA0CFE27EA0E0792FA12
:103BE000A2F200E005E0B2FA82F2520095402F43C3
:103BF00007605B1C0A681546DA407FF470AF00204E
:103C0000F0BD10B5044601F063F9206001F036F90B
:103C1000606001F041F9A060606801F04BF9E0607C
:103C200010BD016921F490410161416921F02A012F
:103C30004161704710F10C0050E8001F21F0200195
:103C400040E80012002AF7D1704700007FB5044613
:103C5000C0680D460126C0F34030C0BBE968686803
:103C6000AA690843296911430843E16849F20C62D3
:103C700091430843E060A868216921F44051014361
:103C800021616869616921F440710143616168469D
:103C9000FFF7B7FF0F48844208D00F4884420DD089
:103CA0000E4884420AD00E48844201D1039906E0AE
:103CB0000C48844202D00C48844208D1029931B1A8
:103CC0002B6823B100262046AA6900F00FF804B043
:103CD000304670BD001001400044004000480040E4
:103CE00000140140004C0040005000402DE9F0411C
:103CF00006461920A1FB00011F460023642432253B
:103D0000B2F5004F27D0BB0FBA00FCF759FA0146B5
:103D1000B0FBF4F06FF01802504301EB800005EBAC
:103D20000010B0FBF4F000F0F002B1FBF4F002EB95
:103D30000012B1FBF4F06FF01803584301EB800060
:103D400005EB0010B0FBF4F000F00F00104480B25F
:103D5000B060BDE8F081FA195B41FCF731FA014629
:103D6000B0FBF4F00201B1FBF4F06FF0180358431C
:103D700001EB800005EBC000B0FBF4F000F0F800B0
:103D800002EB4002B1FBF4F0584301EB800005EB7D
:103D9000C000B0FBF4F000F00700D7E72DE9F041D8
:103DA0001E4613468846C21AA1EB060500D55242AC
:103DB000124F134C142A07DB01461A46114800F033
:103DC00023FFA168084400E0A068606380B2386007
:103DD000002D00DA6D42094F3F1D142D08DB094804
:103DE00032464146203000F00FFF6168084400E091
:103DF0006068206380B23860BDE8F081380C004014
:103E000040040020180800202DE9F0475148DFF851
:103E1000488101460378B1F964201C394FF032091A
:103E20004FF0000A012B48D1B8F804305B1C9FB258
:103E3000A8F80470B0F902400B681E190E60B0F9C2
:103E400004404B681D194D60B0F906408B68322F55
:103E50002344A3F580538B608C6914448C612CD36C
:103E60004F46B6FBF7F600EE106AB5FBF7F5B8EE75
:103E7000400AB3FBF9F380ED0D0A00EE105AB8EEDC
:103E8000400A80ED0E0A00EE103AB4FBF9F3B8EEEA
:103E9000400A80ED0F0A00EE103AB8EE400A80EDBD
:103EA000160AA8F804A080F800A0C1F818A0C1F86C
:103EB00008A0C1F804A0C1F800A04778002F46D0A0
:103EC000B8F806305B1C9EB2A8F80660B0F908404E
:103ED0000B69322E1C440C61B0F90A50CB682B449C
:103EE000CB60B0F90CC04D6965444D61D1F818C084
:103EF00062448A612BD300EE104AB2FBF9F2F8EE6D
:103F0000400A9FED160A012F80EE801A00EE903ACB
:103F1000F8EE600A80ED101A80EE801A00EE905ADA
:103F2000F8EE600A80ED111A80EE801A00EE102A79
:103F30005246B8EE400A80ED121A80ED160AA8F833
:103F400006A000D142708A614A61CA600A61BDE878
:103F5000F087000000060020020000200000484218
:103F6000F0B51C212DED028B87B0B0EE408A68467B
:103F7000FCF770F9FFF748FF9C48A0F17003018837
:103F800049BA0DB25D80418849BA0CB29C808188E3
:103F900049BA0AB2DA80018949BA0FB21F81418950
:103FA00000EE907A49BA09B25981868900EE101A5A
:103FB00076BA36B29E81C088F8EEE02A40BAB8EEF2
:103FC000C02A00B200EE106A00EE900AA3F8640066
:103FD000B8EEC01AF8EEE00A93ED1A0A70EEC00AC5
:103FE000DFED831A68EE211A01EEA00A83ED1A0AAA
:103FF000DFED801AC0EE210A9FED7F0A7F4830EE88
:10400000800A83ED1B0A0178491CC9B201700A2994
:1040100005D94FF0000101704FF0010105E002D118
:104020004FF0000101E001F1010100EE105A417072
:10403000D3ED0D0AB8EEC00A6C4901F1A80130EECB
:10404000600A00EE904A81ED000AF8EEE00AD3ED36
:104050000E1ABDEEC00A30EEE13A00EE902A10EEE4
:10406000102A81ED013AF8EEE00AD3ED0F1ABDEE09
:10407000C30A70EEE11AC1ED021AD3ED100A72EE16
:10408000E02AC1ED042AD3ED110A72EE600AC1EDF7
:10409000030A93ED122A31EE421A81ED051A0078D7
:1040A000A1F19A0121F8102010EE102A01EB400036
:1040B000BDEEE10AC28210EE102ABDEEE20A828550
:1040C00010EE102ABDEEE00AA0F8582010EE102ADB
:1040D000BDEEC10AA0F8422010EE102AA0F86E2012
:1040E0004FF00000009A31F910402244009201EB99
:1040F0004002019CB2F9165000F101002C440194D9
:10410000B2F92C50029CC0B22C440294B2F958501F
:10411000049C0A282C440494B2F94250039C2C4479
:104120000394B2F96E20059C22440592DAD39DEDEA
:10413000000AF2EE041A2D4CF8EEC00AC43480EEE8
:10414000A10A84ED000ADDED010AB8EEE01AC1EE25
:10415000210AC4ED010A9DED021AB8EEC12A82EED1
:10416000211A84ED021A9DED042AB8EEC22AC2EE8D
:10417000212AC4ED042A9DED032AB8EEC22AC2EE1C
:10418000212A02EE102AA4F58E72111FB8EEC22A5F
:10419000081FC4ED032AC2EE212AC4ED052A01F04E
:1041A0003DFCA4F58872111F94ED051AD4ED030AA5
:1041B00094ED040A081F01F031FCD3ED070A9FEDCE
:1041C000100A60EE800AC3ED0A0AD3ED080A60EE19
:1041D000800AC3ED0B0AD3ED090A20EE800A83EDB5
:1041E0000C0A07B0BDEC028BF0BD00007006002089
:1041F000C3F5C8400000AA4300001242020000209C
:1042000098FA793D0E223B21014B6820FFF7AAB8AE
:10421000700600207FB50024154800940194029494
:104220001249039401604FF48031C0E90114046124
:10423000047680F820400F49C0E90A140125C561C1
:10424000C46080F830404561FCF7D2FD08B1FCF74E
:1042500027FD0A20CDE90005694602940448FCF7D1
:1042600021FD002801D0FCF71BFD7FBD002001408F
:10427000F81300200100000F2DE9F04186B0142151
:104280006846FBF7E7FF38480024016841F0100159
:104290000160016801F010010591016841F08001A1
:1042A0000160016801F080010591016841F004019D
:1042B0000160016801F004010591016841F001010C
:1042C0000160016801F001010591016841F00201FE
:1042D0000160016801F002010591016841F00801E7
:1042E00001600068214E00F00800059000221C21AA
:1042F0003046FCF76CFF1E4F002210213846FCF7B9
:1043000066FFDFF8708000224FF44C714046FCF7E6
:104310005EFF1C2000900125CDE90154694630461E
:104320000394FCF74FFE1020CDE900050220CDE9F3
:10433000020469463846FCF745FE4FF49870CDE913
:104340000005CDE9025469464046FCF73BFE680291
:104350000090CDE90154694640460394FCF732FED3
:1043600006B0BDE8F0810000303802400010024085
:1043700000000240000402400D4810B50B490160E6
:104380000C49416000214FF480428160C0E9031272
:1043900041618161C1610162FCF724FF002803D003
:1043A000BDE81040FCF77CBC10BD0000005400408C
:1043B00040140020A08601000D4810B50B49016093
:1043C0000C49416000214FF480428160C0E9031232
:1043D00041618161C1610162FCF704FF002803D0E3
:1043E000BDE81040FCF75CBC10BD0000005C004064
:1043F00094140020A08601000C4810B50A49016001
:10440000A7214160002140F2E732C0E902120161B8
:1044100080218161FDF72CFD002803D0BDE810400C
:10442000FCF73EBC10BD00000044014050160020C7
:104430000C4810B50A490160A7214160002140F2F3
:10444000E732C0E90212016180218161FDF710FDB0
:10445000002803D0BDE81040FCF722BC10BD0000CE
:1044600000480140981600200C4810B50A49016028
:1044700053214160002140F2E732C0E9021201619C
:1044800080218161FDF7F4FC002803D0BDE81040D5
:10449000FCF706BC10BD0000001C0040E016002028
:1044A0000C4810B50A49016053214160002140F2D7
:1044B000E732C0E90212016180218161FDF7D8FC79
:1044C000002803D0BDE81040FCF7EABB10BD000097
:1044D000002000402817002010B58AB000242E4884
:1044E0000494059406940794089409940094019404
:1044F00002944FF08041039401601B21C0E9011434
:104500004EF65F21C0E9031480218161FDF7B0FC04
:1045100008B1FCF7C5FB4FF48050049004A91E4875
:10452000FDF740FE08B1FCF7BBFB1B48FEF7D9F9CD
:1045300008B1FCF7B5FB089408A917480994FDF7E2
:104540004FFC08B1FCF7ACFB0120CDE90040029420
:104550000022694610480394FEF734F908B1FCF7CD
:104560009FFB042269460C48FEF72CF908B1FCF7C2
:1045700097FB082269460848FEF724F908B1FCF7C2
:104580008FFB0C2269460448FEF71CF9002801D075
:10459000FCF786FB0AB010BDE814002010B58AB005
:1045A00000242F48049405940694079408940994D1
:1045B0000094019402942949039401601B21C0E9ED
:1045C00001144EF65F21C0E9031480218161FDF7DB
:1045D0004FFC08B1FCF764FB4FF48050049004A931
:1045E0001F48FDF7DFFD08B1FCF75AFB1C48FEF73A
:1045F00078F908B1FCF754FB089408A91848099405
:10460000FDF7EEFB08B1FCF74BFB0120CDE90040C4
:1046100002940022694612480394FEF7D3F808B1C9
:10462000FCF73EFB042269460D48FEF7CBF808B1C3
:10463000FCF736FB082269460948FEF7C3F808B1C3
:10464000FCF72EFB0C2269460548FEF7BBF8002854
:1046500001D0FCF725FB0AB010BD000000040040AB
:104660003015002010B58EB00024079408940994EA
:104670000A940B941C2168460C94FBF7EBFD2C4824
:104680002A4901601B21C0E901144EF65F21C0E9EF
:10469000031480218161FDF7EBFB08B1FCF700FBFF
:1046A0004FF48050079007A92148FDF77BFD08B122
:1046B000FCF7F6FA1E48FEF76EFB08B1FCF7F0FABD
:1046C0000B940BA91A480C94FDF78AFB08B1FCF770
:1046D000E7FA6020009041F29410CDE90104002235
:1046E000694613480494FEF7F0FA08B1FCF7D8FACB
:1046F000042269460E48FEF7E8FA08B1FCF7D0FA42
:10470000082269460A48FEF7E0FA08B1FCF7C8FA41
:104710000C2269460648FEF7D8FA08B1FCF7C0FA41
:104720000348FEF78FFA0EB010BD000000080040ED
:104730007815002010B58EB00024079408940994D1
:104740000A940B941C2168460C94FBF783FD2C48BB
:104750002A4901601B21C0E901144EF65F21C0E91E
:10476000031480218161FDF783FB08B1FCF798FAFF
:104770004FF48050079007A92148FDF713FD08B1B9
:10478000FCF78EFA1E48FEF706FB08B1FCF788FA24
:104790000B940BA91A480C94FDF722FB08B1FCF707
:1047A0007FFA6020009041F29410CDE901040022CC
:1047B000694613480494FEF788FA08B1FCF770FACA
:1047C000042269460E48FEF780FA08B1FCF768FA41
:1047D000082269460A48FEF778FA08B1FCF760FA41
:1047E0000C2269460648FEF770FA08B1FCF758FA41
:1047F0000348FEF727FA0EB010BD0000000C004081
:10480000C01500201CB500240F4800940D490194E8
:1048100001605321C0E9011440F2E731C1608021F9
:104820008161FDF725FB08B1FCF73AFA009469466F
:1048300005480194FDF7D4FA002801D0FCF730FABE
:104840001CBD00000014004008160020F0B58DB01B
:104850001C2106A8FBF7FEFC18216846FBF7FAFCB2
:104860004FF48010FFF726F90420FFF717F908200E
:10487000FFF714F94FF4805002250024CDE900051C
:1048800003260827CDE90264CDE9044769461948A3
:10489000FFF71CF90420CDE90005CDE90264CDE95C
:1048A000044769461448FFF711F903F03BFC002266
:1048B000072100F00DF90146352003F03BFC3520BF
:1048C00003F022FC4FF4E130CDE906040C200894FB
:1048D000CDE909400B940C94084C06A92046FFF73B
:1048E000B5F92046FFF79DF9E06840F40050E0601C
:1048F0000DB0F0BD00080240000C02400050004026
:1049000010B58EB01C216846FBF7A4FC182107A83F
:10491000FBF7A0FC2048016841F01001016000682D
:1049200000F010000D900120FFF7B8F84FF4C060C0
:1049300007900220089003200024CDE909040720F5
:10494000CDE90B4007A91548FFF7C0F803F0EAFBD3
:104950000022052100F0BCF80146252003F0EAFB07
:10496000252003F0D1FB4FF4E130CDE900040C2009
:104970000294CDE9034005940694094C694620460B
:10498000FFF764F92046FFF74CF9E06840F4005067
:10499000E0600EB010BD000044380240000002404C
:1049A0000010014010B58EB01C216846FBF752FC88
:1049B000182107A8FBF74EFC4FF40030FFF77AF8F8
:1049C0000820FFF76BF86020079002200890032072
:1049D0000024CDE909040720CDE90B4007A91448BC
:1049E000FFF774F803F09EFB0022042100F070F83A
:1049F0000146262003F09EFB262003F085FB4FF4A2
:104A0000E130CDE900040C200294CDE90340059487
:104A10000694084C69462046FFF718F92046FFF730
:104A200000F9E06840F40050E0600EB010BD0000F6
:104A3000000C02400044004010B58EB01C216846B6
:104A4000FBF708FC182107A8FBF704FC4FF48020B3
:104A5000FFF730F80820FFF721F84FF44070079077
:104A60000220089003200024CDE909040720CDE9A5
:104A70000B4007A91348FFF729F803F053FB002266
:104A8000062100F025F80146272003F053FB2720DC
:104A900003F03AFB4FF49640CDE900040C20029459
:104AA000CDE9034005940694074C69462046FFF77C
:104AB000CDF82046FFF7B5F8E06840F40050E0601C
:104AC0000EB010BD000C024000480040FEE7FEE7BB
:104AD00030B500F00703C3F10704042C00D9042407
:104AE000181D072801D2002300E0DB1E012505FA6E
:104AF00004F0401E084098409D406D1E154028431C
:104B000030BD000039494FF4FA73DFED390A0B600C
:104B10009FED380A01F12000C1ED020A80ED030A81
:104B2000B0EE041A81ED041A70224A6081ED050A84
:104B300081ED060A81ED070A0360C0ED020A80EDEF
:104B4000041A426080ED050A80ED060A80ED070A2E
:104B50002030D221DFED280A0160C0ED020A9FED6E
:104B6000271A80ED030A80ED041A426080ED050AE1
:104B700080ED060A80ED070A20300160C0ED020AD0
:104B800080ED030A80ED041A426080ED050A80ED95
:104B9000060A80ED070A203040F28A21DFED180A6C
:104BA0000160C0ED020A80ED030AF1EE0E0AC0EDCD
:104BB000040A80ED010A80ED050A80ED060A80ED09
:104BC000070A2030DFED0F0A0160C0ED020A80ED18
:104BD000030AF9EE0E0AC0ED040A80ED010A80ED29
:104BE000050A80ED060A80ED070A70479807002045
:104BF0006666064000000000CDCC0C406666E63FCD
:104C0000CDCCAC40CDCCACC000EE102A00EE901A5A
:104C1000B8EEC00AF8EEE00A80ED010A30EEC00AF4
:104C2000BDEEC00AF8EEC00AC0ED060A90ED051A06
:104C300070EEC10AB8EEC01AB8EEC00AFDEEE00A86
:104C400080ED051A90ED021A0268F8EEE00A21EEF6
:104C5000000A90ED041A504201EE200ABDEEC00A8F
:104C600010EE101A884201DA0B4600E00346934228
:104C700003DA884200DA08467047104670470000A1
:104C80002DE9F04107462DED048B14460E4690EDBC
:104C9000000A9FED1D8A20EE080A10EE100AFBF7AD
:104CA000C1FC9FED1A9B53EC192BFBF791FBFBF713
:104CB00081FC97ED010A054620EE080A10EE100A65
:104CC000FBF7B0FC53EC192BFBF782FBFBF772FCF4
:104CD000FE22227004226270A5702A0A4042E2700D
:104CE0002071000A002160710220225C401C1144E6
:104CF000C9B20628F9DBA171E671AA202072BDECC9
:104D0000048BBDE8F08100000000C8423333333328
:104D10003333E73F7047000010B5134803F0CCF978
:104D200012A003F0C9F916A003F0C6F923A003F0FE
:104D3000C3F92DA003F0C0F9354803F0BDF935489B
:104D400003F0BAF9344803F0B7F9344803F0B4F982
:104D500033A003F0B1F942A003F0AEF9BDE8104072
:104D6000014803F0A9B90000E8AC00082020E68E55
:104D7000A5E7BABFE696B9E6B3953A200D0A00005A
:104D80002A2AE6A2A6E5889BE794B5E5AD90E59BC7
:104D90009BE6978BE7BFBCE9A39EE8A18CE599A8A9
:104DA000E5AEA4E58685E887AAE58AA8E9A39EE89A
:104DB000A18C2A2A2A2A0D0A0000000020202B3567
:104DC00056202020202020203C2D2D2D2D2D2D2043
:104DD0002020352E30562020202020203556E4BEBD
:104DE0009BE794B50D0A00002020474E4420202068
:104DF000202020202D2D2D2D2D2D2D202020474E03
:104E00004420202020202020E59CB05C720A000075
:104E10007CAD000890AC000848AC00082CAD000840
:104E20002020504130202020202020202D2D2D2DED
:104E30002D2D3E2020204144435F43483120202037
:104E4000E6A8A1E68B9FE8B685E5A3B0E6B3A2E9A4
:104E5000AB98E5BAA6E6B58BE9878F5C720A0000CD
:104E60002020E68993E58DB0E98787E99B86E69562
:104E7000B0E68DAE3A200D0A000000000449096832
:104E8000044A01F0F0010909515CC8407047000074
:104E90000838024084AB000804490968044A01F458
:104EA000E05102EB91210978C84070470838024070
:104EB00094AB000804490968044A01F4604102EB1C
:104EC00051310978C84070470838024094AB000857
:104ED0000748006810F00C01064807D0042904D0E8
:104EE000082903D1082000F009B8034870470000E2
:104EF000083802400024F40000127A0010B5104A6D
:104F000004460020116811F480030E4903D0B3F564
:104F1000800F00D14910082C11D1106800F03F001B
:104F2000B1FBF0F01168C1F3881148431168012208
:104F300001F4403102EB11414900B0FBF1F010BD2A
:104F4000043802400024F4000E490E4880310A461D
:104F5000406B4B699269984203DB904201DC01206F
:104F60007047904204DBCA69904201DC022070471E
:104F7000CA69904204DB096A884201DC0320704759
:104F800000207047940400200F481049008880B228
:104F900008600F48091F008880B208600D48091F8B
:104FA000008880B208600C48091F008880B2086041
:104FB0000A480B49008880B208600A48091D008829
:104FC00080B208607047000004050020400C0040DB
:104FD000F8040020EC040020E0040020D4040020A9
:104FE00034080040C8040020F0B52DED028B95B0C8
:104FF000044600680190606802901D4616460F4600
:105000000846FBF7C6FA9FED3B8B53EC182BFBF7DA
:10501000DFF9FBF7CFFA2168081A03906068049063
:105020002068C01B05906068069005980790304680
:10503000FBF7AFFA53EC182BFBF7CAF9FBF7BAFAF8
:105040006168B3EE040A081A089005980990606830
:105050002A4B801B0A9003980B900A980C902068AA
:105060000D900A980E9020680F9008981090206874
:1050700011906068129001A80090092213A9284697
:1050800004F0C4FCDDE9131206461DA003F014F879
:10509000224A13A9284605F0F7FA204C20A0D4E9AB
:1050A000001203F009F8D4E9002395ED010ADFEDC1
:1050B000220A20EE200ABDEEC00A10EE101A95ED6D
:1050C000000A20EE200ABDEEC00A10EE100AFEF71C
:1050D00065FE1A4802681A4801681AA002F0ECFF3F
:1050E000092E04D0002015B0BDEC028BF0BD0120CC
:1050F000F9E70000000000000000E03F7018002009
:105100007461726765745F783A25642074617267B0
:1051100065745F793A25640D0A000000900500204F
:105120006E6578745F783A25642C206E6578745FBC
:10513000793A25640D0A00000000C842700400207E
:1051400074040020726F6C6C5F6F75743A25642C68
:105150002070697463685F6F75743A25640D0A0086
:10516000704710B50C46FBF7E3FC00202060606040
:10517000207210BD10B5002421B1012907D0241FD1
:10518000204610BDC2F38F3102F0CDFDF8E7C2F327
:105190004F2102F0C3FDF3E72DE9F04188B09846B6
:1051A0000C46074603291BD0082C19D0202621A025
:1051B000012A0068009020A0006801901FA00068EC
:1051C00002900FD0022A0FD00220032910D0042908
:1051D0000CD0082C0ED06FF0070008B0BDE8F081AD
:1051E0004026E4E70020F0E70120EEE7694602E010
:1051F00001A900E002A904AB0D5C06A905A8CDE950
:10520000000103AA2946384601F09DFA0028E4D19E
:10521000DDE905128DE80601BDF80C202946384667
:10522000049B02F085FD0028D7D1BE7087F87C432F
:10523000D3E700000201030007060800242526002A
:105240002DE9FC4706460A9C5868644F206093F895
:105250003E004FF0000900F01F054FF4967041B179
:10526000072D26D0B3F93C10814204DA4FF4F01038
:1052700006E000201EE041F69A1011FB00F080B11C
:10528000198FDFF85CC101FB0CF101EB5001B1FBA0
:10529000F0F00004B84201D8381A04E04FF4481086
:1052A00001E04FF4C800C0F3074064281AD8322840
:1052B00000D832206071988D00274002A060188EBF
:1052C0004002E060188A2082188F40026061988F47
:1052D0002083A776032A19D006DC012A16D0022AD9
:1052E00006D113E06420E5E70D2A11D0112A0DD074
:1052F000281FE77610283AD2DFE800F02D2B2F3157
:10530000353739393339393939392729052000E01A
:105310000D20E076188F01AA4002C6F89003988D00
:1053200000214002C6F89403304600F0B5FC062D7B
:105330001FD0002080466A460021304600F09FFCC6
:105340009DF80000012816D01AE00A20E1E70620A7
:10535000DFE70420DDE70220DBE70120D9E70720B3
:10536000D7E70920D5E70320D3E70020D1E7FF20C6
:10537000CFE70120DEE7B8F1000F01D0012000E007
:10538000002086F8860301AA0121304600F084FC43
:10539000042D0AD000256A460121304600F06FFC3A
:1053A0009DF80000012802D004E00125F3E70DB1CB
:1053B000012000E0002086F88703B4F91800E17EA0
:1053C00049B9002807DA07494968814202DD0E2001
:1053D000E07600E027834846BDE8FC8733B37500DC
:1053E000CDCC3000B80500200149086070470000AE
:1053F0003808004001490860704700003C0C00403C
:105400000149086070470000380C004001490860FD
:1054100070470000400C00400149086070470000E0
:10542000340C0040FCF79CB930B593B0302168468D
:10543000FAF710FF14210CA8FAF70CFF1D480025FD
:10544000016841F080510160006800F080501190C7
:105450001948016841F4804101600068022400F4A9
:105460008040119001200090000401908001CDE95E
:10547000064008AA0420A82182E813000B90684681
:10548000FCF7E2FA08B172B6FEE70CA90F2081E83A
:1054900031004FF4A0500F904FF480501090052130
:1054A0000CA8FCF7F7F9002801D072B6FEE713B09C
:1054B00030BD0000403802400070004002480168E2
:1054C00041F470010160704788ED00E028B10449A3
:1054D000002008600348FCF70DBE0248FCF74ABEF6
:1054E000244801409816002028B104490020086093
:1054F0000348FCF7FFBD0248FCF73CBE241C0040FB
:10550000E016002028B10449002048620348FCF757
:10551000F1BD0248FCF72EBE0020004028170020F5
:105520000148FDF7DCBA0000981600200148FDF79D
:10553000D6BA0000501600200148FDF7D0BA00008E
:10554000E81400200148FDF7CABA00003015002019
:105550000148FDF7C4BA0000781500200148FDF7A6
:10556000BEBA0000C01500200148FDF7B8BA00001F
:10557000081600200148FDF7B2BA000028170020E5
:105580000148FDF7ACBA0000E0160020F0B5026853
:10559000254C264D264E274F274B4FF0804CA042DE
:1055A00009D0604507D0A84205D0B04203D0B84228
:1055B00001D0984204D122F0700E4A6842EA0E02ED
:1055C000A0421BD0604519D0A84217D0B04215D0D8
:1055D000B84213D0984211D0184DA8420ED0184DA1
:1055E000A8420BD0174DA84208D0174DA84205D0AD
:1055F000164DA84202D0164DA84203D122F44075A0
:10560000CA682A434D6922F080022A4302608A68F0
:10561000C2620A688262A04201D0984201D109693F
:10562000016301214161F0BD000001400004004020
:1056300000080040000C0040000401400040014010
:10564000004401400048014000180040001C004098
:105650000020004010B501F01F030121046A9940A9
:105660008C430462016A9A401143016210BD10B577
:10567000846842EA032224F47F440A43224382607E
:1056800010BD826822F070020A4342F00701816077
:1056900070470000F0B5026A22F001020262036A5C
:1056A00042688469124E24F073050C682C4323F081
:1056B00002058B682B430D4DA84201D0B04205D1A5
:1056C00023F00807CB683B4323F00403A84201D032
:1056D000B04205D14D6922F4407215438A692A43CC
:1056E00042608461496841630362F0BD000001408B
:1056F00000040140F0B5026A22F010020262026A60
:10570000436884690D6824F4E64444EA05248D68FE
:1057100022F0200242EA05120F4D104EA84201D09D
:10572000B04206D1CF6822F0800242EA071222F08E
:105730004002A84201D0B04207D14D6923F4406332
:1057400043EA85038D6943EA8503436084614968C0
:1057500081630262F0BD00000000014000040140CE
:10576000F0B5026A22F480720262026A4368C46978
:1057700022F4007224F073050C68124E2C438D68DD
:1057800042EA05220E4DA84201D0B04206D1CF68B0
:1057900022F4006242EA072222F48062A84201D089
:1057A000B04207D14D6923F4405343EA05138D6994
:1057B00043EA05134360C4614968C1630262F0BDF6
:1057C000000001400004014030B5026A22F480521A
:1057D0000262046A4268C3690D6823F4E64343EA3F
:1057E00005238D6824F4005444EA0534084DA8428A
:1057F00002D0084DA84204D14D6922F4804242EA09
:1058000085124260C36149680164046230BD0000D2
:10581000000001400004014010B5036A046A24F04E
:1058200001040462846924F0F00444EA021423F0C1
:105830000A020A438461026210BD000070B5046A66
:1058400024F0010404628469056A154EB04214D044
:10585000B0F1804F11D0134EB0420ED0124EB04274
:105860000BD0124EB04208D0114EB04205D0114EAE
:10587000B04202D0104EB04203D124F003041443CE
:1058800001E044F001041A0724F0F00444EA126233
:1058900025F00A0301F00A0119438261016270BD1B
:1058A000000001400004004000080040000C0040DF
:1058B00000040140004001400018004010B5036A98
:1058C00023F0100303628369046A23F4704343EAFC
:1058D000023224F0A00343EA01118261016210BD8B
:1058E00030B5046A24F0100404628469056A24F463
:1058F000407444EA022222F470444FF6FF7202EA36
:1059000003322243A02425F0A00304EA0111194325
:105910008261016230BD000030EEC01A10B52B4824
:10592000B0EEC11A11EE101A2DED048B8142284CF5
:1059300002DA41F2941044E011EE101A814241DD86
:10594000F4EEC00A9FED238B9FED249BF1EE10FA3D
:105950001CD2B1EE601AC1EE000A10EE900AFAF7FE
:1059600061FE9FED201B53EC112BFAF731FD41EC4A
:10597000100B02F0B1FD53EC182B51EC100BFAF7A1
:1059800027FD53EC192BFAF77CFC17E0B0EE001A58
:1059900040EE410A80EE801A11EE100AFAF742FE3C
:1059A00041EC100B02F098FD53EC182B51EC100B4E
:1059B000FAF70EFD53EC192BFAF707FDFAF7FAFD8B
:1059C00080B22060BDEC048B10BD00000000484296
:1059D000400C004000000000007087400000000004
:1059E0000094B140000000000000E83F10EE100AF3
:1059F0000749DFED080A884202DD30EE600A704791
:105A000010EE100A04498842F9D930EE200A704796
:105A1000000034430000B443000034C380ED000AAA
:105A2000C1ED000A82ED001A70470000014800F045
:105A300015B8000000500040014800F00FB8000009
:105A400000100140014800F009B800000044004087
:105A5000014800F003B80000004800402DE9F04183
:105A60000168C1F34011002913D0C168C1F340118E
:105A700000290ED036490026364C884210D14068A5
:105A80006088010405D434490E6020B140F4004020
:105A90006080BDE8F081BDE8F0410120FFF716BD50
:105AA000DFF8B880404526D140682A4DC7B280351E
:105AB000232F01D10120A862A0880104E9D4A96A9A
:105AC0000129E6D126490E6018B90120FFF70CFD27
:105AD0006E622449A0880F54401C81B2A180686A7C
